{"abi":[{"type":"constructor","inputs":[],"stateMutability":"nonpayable"},{"type":"function","name":"approve","inputs":[{"name":"to","type":"address","internalType":"address"},{"name":"tokenId","type":"uint256","internalType":"uint256"}],"outputs":[],"stateMutability":"nonpayable"},{"type":"function","name":"balanceOf","inputs":[{"name":"owner","type":"address","internalType":"address"}],"outputs":[{"name":"","type":"uint256","internalType":"uint256"}],"stateMutability":"view"},{"type":"function","name":"getApproved","inputs":[{"name":"tokenId","type":"uint256","internalType":"uint256"}],"outputs":[{"name":"","type":"address","internalType":"address"}],"stateMutability":"view"},{"type":"function","name":"getTokenSupply","inputs":[],"outputs":[{"name":"","type":"uint256","internalType":"uint256"}],"stateMutability":"view"},{"type":"function","name":"initialize","inputs":[{"name":"kinoraAccessAddress","type":"address","internalType":"address"},{"name":"kinoraOpenActionAddress","type":"address","internalType":"address"}],"outputs":[],"stateMutability":"nonpayable"},{"type":"function","name":"isApprovedForAll","inputs":[{"name":"owner","type":"address","internalType":"address"},{"name":"operator","type":"address","internalType":"address"}],"outputs":[{"name":"","type":"bool","internalType":"bool"}],"stateMutability":"view"},{"type":"function","name":"kinoraAccess","inputs":[],"outputs":[{"name":"","type":"address","internalType":"contract KinoraAccessControl"}],"stateMutability":"view"},{"type":"function","name":"kinoraEscrow","inputs":[],"outputs":[{"name":"","type":"address","internalType":"address"}],"stateMutability":"view"},{"type":"function","name":"kinoraOpenAction","inputs":[],"outputs":[{"name":"","type":"address","internalType":"address"}],"stateMutability":"view"},{"type":"function","name":"mintToken","inputs":[{"name":"uri","type":"string","internalType":"string"},{"name":"playerAddress","type":"address","internalType":"address"}],"outputs":[],"stateMutability":"nonpayable"},{"type":"function","name":"name","inputs":[],"outputs":[{"name":"","type":"string","internalType":"string"}],"stateMutability":"view"},{"type":"function","name":"ownerOf","inputs":[{"name":"tokenId","type":"uint256","internalType":"uint256"}],"outputs":[{"name":"","type":"address","internalType":"address"}],"stateMutability":"view"},{"type":"function","name":"safeTransferFrom","inputs":[{"name":"from","type":"address","internalType":"address"},{"name":"to","type":"address","internalType":"address"},{"name":"tokenId","type":"uint256","internalType":"uint256"}],"outputs":[],"stateMutability":"nonpayable"},{"type":"function","name":"safeTransferFrom","inputs":[{"name":"from","type":"address","internalType":"address"},{"name":"to","type":"address","internalType":"address"},{"name":"tokenId","type":"uint256","internalType":"uint256"},{"name":"data","type":"bytes","internalType":"bytes"}],"outputs":[],"stateMutability":"nonpayable"},{"type":"function","name":"setApprovalForAll","inputs":[{"name":"operator","type":"address","internalType":"address"},{"name":"approved","type":"bool","internalType":"bool"}],"outputs":[],"stateMutability":"nonpayable"},{"type":"function","name":"setKinoraAccessContract","inputs":[{"name":"newAccessContract","type":"address","internalType":"address"}],"outputs":[],"stateMutability":"nonpayable"},{"type":"function","name":"setKinoraEscrowContract","inputs":[{"name":"newEscrowContract","type":"address","internalType":"address"}],"outputs":[],"stateMutability":"nonpayable"},{"type":"function","name":"supportsInterface","inputs":[{"name":"interfaceId","type":"bytes4","internalType":"bytes4"}],"outputs":[{"name":"","type":"bool","internalType":"bool"}],"stateMutability":"view"},{"type":"function","name":"symbol","inputs":[],"outputs":[{"name":"","type":"string","internalType":"string"}],"stateMutability":"view"},{"type":"function","name":"tokenByIndex","inputs":[{"name":"index","type":"uint256","internalType":"uint256"}],"outputs":[{"name":"","type":"uint256","internalType":"uint256"}],"stateMutability":"view"},{"type":"function","name":"tokenOfOwnerByIndex","inputs":[{"name":"owner","type":"address","internalType":"address"},{"name":"index","type":"uint256","internalType":"uint256"}],"outputs":[{"name":"","type":"uint256","internalType":"uint256"}],"stateMutability":"view"},{"type":"function","name":"tokenURI","inputs":[{"name":"tokenId","type":"uint256","internalType":"uint256"}],"outputs":[{"name":"","type":"string","internalType":"string"}],"stateMutability":"view"},{"type":"function","name":"totalSupply","inputs":[],"outputs":[{"name":"","type":"uint256","internalType":"uint256"}],"stateMutability":"view"},{"type":"function","name":"transferFrom","inputs":[{"name":"from","type":"address","internalType":"address"},{"name":"to","type":"address","internalType":"address"},{"name":"tokenId","type":"uint256","internalType":"uint256"}],"outputs":[],"stateMutability":"nonpayable"},{"type":"event","name":"Approval","inputs":[{"name":"owner","type":"address","indexed":true,"internalType":"address"},{"name":"approved","type":"address","indexed":true,"internalType":"address"},{"name":"tokenId","type":"uint256","indexed":true,"internalType":"uint256"}],"anonymous":false},{"type":"event","name":"ApprovalForAll","inputs":[{"name":"owner","type":"address","indexed":true,"internalType":"address"},{"name":"operator","type":"address","indexed":true,"internalType":"address"},{"name":"approved","type":"bool","indexed":false,"internalType":"bool"}],"anonymous":false},{"type":"event","name":"Initialized","inputs":[{"name":"version","type":"uint64","indexed":false,"internalType":"uint64"}],"anonymous":false},{"type":"event","name":"TokenMinted","inputs":[{"name":"playerAddress","type":"address","indexed":false,"internalType":"address"},{"name":"tokenId","type":"uint256","indexed":false,"internalType":"uint256"}],"anonymous":false},{"type":"event","name":"Transfer","inputs":[{"name":"from","type":"address","indexed":true,"internalType":"address"},{"name":"to","type":"address","indexed":true,"internalType":"address"},{"name":"tokenId","type":"uint256","indexed":true,"internalType":"uint256"}],"anonymous":false},{"type":"error","name":"AlreadyInitialized","inputs":[]},{"type":"error","name":"ERC721EnumerableForbiddenBatchMint","inputs":[]},{"type":"error","name":"ERC721IncorrectOwner","inputs":[{"name":"sender","type":"address","internalType":"address"},{"name":"tokenId","type":"uint256","internalType":"uint256"},{"name":"owner","type":"address","internalType":"address"}]},{"type":"error","name":"ERC721InsufficientApproval","inputs":[{"name":"operator","type":"address","internalType":"address"},{"name":"tokenId","type":"uint256","internalType":"uint256"}]},{"type":"error","name":"ERC721InvalidApprover","inputs":[{"name":"approver","type":"address","internalType":"address"}]},{"type":"error","name":"ERC721InvalidOperator","inputs":[{"name":"operator","type":"address","internalType":"address"}]},{"type":"error","name":"ERC721InvalidOwner","inputs":[{"name":"owner","type":"address","internalType":"address"}]},{"type":"error","name":"ERC721InvalidReceiver","inputs":[{"name":"receiver","type":"address","internalType":"address"}]},{"type":"error","name":"ERC721InvalidSender","inputs":[{"name":"sender","type":"address","internalType":"address"}]},{"type":"error","name":"ERC721NonexistentToken","inputs":[{"name":"tokenId","type":"uint256","internalType":"uint256"}]},{"type":"error","name":"ERC721OutOfBoundsIndex","inputs":[{"name":"owner","type":"address","internalType":"address"},{"name":"index","type":"uint256","internalType":"uint256"}]},{"type":"error","name":"InvalidAddress","inputs":[]},{"type":"error","name":"InvalidContract","inputs":[]},{"type":"error","name":"InvalidInitialization","inputs":[]},{"type":"error","name":"NotInitializing","inputs":[]}],"bytecode":{"object":"0x608060405234801561000f575f5ffd5b506040518060400160405280601081526020016f25b4b737b930a7232a21b932b0ba37b960811b815250604051806040016040528060038152602001624b4e4360e81b815250815f90816100639190610110565b5060016100708282610110565b5050506101ca565b634e487b7160e01b5f52604160045260245ffd5b600181811c908216806100a057607f821691505b6020821081036100be57634e487b7160e01b5f52602260045260245ffd5b50919050565b601f82111561010b57805f5260205f20601f840160051c810160208510156100e95750805b601f840160051c820191505b81811015610108575f81556001016100f5565b50505b505050565b81516001600160401b0381111561012957610129610078565b61013d81610137845461008c565b846100c4565b6020601f82116001811461016f575f83156101585750848201515b5f19600385901b1c1916600184901b178455610108565b5f84815260208120601f198516915b8281101561019e578785015182556020948501946001909201910161017e565b50848210156101bb57868401515f19600387901b60f8161c191681555b50505050600190811b01905550565b61178b806101d75f395ff3fe608060405234801561000f575f5ffd5b5060043610610153575f3560e01c80636f552a7c116100bf578063ad974f4c11610079578063ad974f4c146102d2578063b88d4fde146102da578063c87b56dd146102ed578063e2839eb314610300578063e784c51714610313578063e985e9c514610326575f5ffd5b80636f552a7c1461026b57806370a082311461027e57806395d89b41146102915780639a07e00814610299578063a1d2f568146102ac578063a22cb465146102bf575f5ffd5b80632f745c59116101105780632f745c59146101f957806342842e0e1461020c578063485cc9551461021f5780634ae550cd146102325780634f6ccce7146102455780636352211e14610258575f5ffd5b806301ffc9a71461015757806306fdde031461017f578063081812fc14610194578063095ea7b3146101bf57806318160ddd146101d457806323b872dd146101e6575b5f5ffd5b61016a61016536600461126c565b610339565b60405190151581526020015b60405180910390f35b610187610363565b60405161017691906112bc565b6101a76101a23660046112ce565b6103f2565b6040516001600160a01b039091168152602001610176565b6101d26101cd366004611300565b610419565b005b6008545b604051908152602001610176565b6101d26101f4366004611328565b610428565b6101d8610207366004611300565b6104b6565b6101d261021a366004611328565b610519565b6101d261022d366004611362565b610538565b6101d261024036600461141e565b610686565b6101d86102533660046112ce565b610736565b6101a76102663660046112ce565b61078b565b600b546101a7906001600160a01b031681565b6101d861028c366004611473565b610795565b6101876107da565b6101d26102a7366004611473565b6107e9565b600c546101a7906001600160a01b031681565b6101d26102cd366004611499565b6108aa565b600d546101d8565b6101d26102e83660046114ce565b6108b5565b6101876102fb3660046112ce565b6108cd565b600a546101a7906001600160a01b031681565b6101d2610321366004611473565b61096c565b61016a610334366004611362565b610a14565b5f6001600160e01b0319821663780e9d6360e01b148061035d575061035d82610a41565b92915050565b60605f805461037190611545565b80601f016020809104026020016040519081016040528092919081815260200182805461039d90611545565b80156103e85780601f106103bf576101008083540402835291602001916103e8565b820191905f5260205f20905b8154815290600101906020018083116103cb57829003601f168201915b5050505050905090565b5f6103fc82610a90565b505f828152600460205260409020546001600160a01b031661035d565b610424828233610ac8565b5050565b6001600160a01b03821661045657604051633250574960e11b81525f60048201526024015b60405180910390fd5b5f610462838333610ad5565b9050836001600160a01b0316816001600160a01b0316146104b0576040516364283d7b60e01b81526001600160a01b038086166004830152602482018490528216604482015260640161044d565b50505050565b5f6104c083610795565b82106104f15760405163295f44f760e21b81526001600160a01b03841660048201526024810183905260440161044d565b506001600160a01b03919091165f908152600660209081526040808320938352929052205490565b61053383838360405180602001604052805f8152506108b5565b505050565b5f610541610ba8565b805490915060ff600160401b820416159067ffffffffffffffff165f811580156105685750825b90505f8267ffffffffffffffff1660011480156105845750303b155b905081158015610592575080155b156105b05760405163f92ee8a960e01b815260040160405180910390fd5b845467ffffffffffffffff1916600117855583156105da57845460ff60401b1916600160401b1785555b600a546001600160a01b0316156106035760405162dc149f60e41b815260040160405180910390fd5b600a80546001600160a01b03808a166001600160a01b031992831617909255600c8054928916929091169190911790555f600d55831561067d57845460ff60401b19168555604051600181527fc7f505b2f371ae2175ee4913f4499e1f2633a7b5936321eed1cdaeb6115181d29060200160405180910390a15b50505050505050565b600b546001600160a01b031633146106b1576040516303777f6960e51b815260040160405180910390fd5b600d8054905f6106c083611591565b9091555050600d545f908152600e602052604090206106df83826115ed565b506106ec81600d54610bd0565b600d54604080516001600160a01b038416815260208101929092527fb9144c96c86541f6fa89c9f2f02495cccf4b08cd6643e26d34ee00aa586558a8910160405180910390a15050565b5f61074060085490565b82106107685760405163295f44f760e21b81525f60048201526024810183905260440161044d565b6008828154811061077b5761077b6116a8565b905f5260205f2001549050919050565b5f61035d82610a90565b5f6001600160a01b0382166107bf576040516322718ad960e21b81525f600482015260240161044d565b506001600160a01b03165f9081526003602052604090205490565b60606001805461037190611545565b600a5460405162a08cef60e31b81523360048201526001600160a01b0390911690630504677890602401602060405180830381865afa15801561082e573d5f5f3e3d5ffd5b505050506040513d601f19601f8201168201806040525081019061085291906116bc565b15801561086a5750600c546001600160a01b03163314155b156108885760405163e6c4247b60e01b815260040160405180910390fd5b600b80546001600160a01b0319166001600160a01b0392909216919091179055565b610424338383610be9565b6108c0848484610428565b6104b03385858585610c87565b5f818152600e602052604090208054606091906108e990611545565b80601f016020809104026020016040519081016040528092919081815260200182805461091590611545565b80156109605780601f1061093757610100808354040283529160200191610960565b820191905f5260205f20905b81548152906001019060200180831161094357829003601f168201915b50505050509050919050565b600a5460405162a08cef60e31b81523360048201526001600160a01b0390911690630504677890602401602060405180830381865afa1580156109b1573d5f5f3e3d5ffd5b505050506040513d601f19601f820116820180604052508101906109d591906116bc565b6109f25760405163e6c4247b60e01b815260040160405180910390fd5b600a80546001600160a01b0319166001600160a01b0392909216919091179055565b6001600160a01b039182165f90815260056020908152604080832093909416825291909152205460ff1690565b5f6001600160e01b031982166380ac58cd60e01b1480610a7157506001600160e01b03198216635b5e139f60e01b145b8061035d57506301ffc9a760e01b6001600160e01b031983161461035d565b5f818152600260205260408120546001600160a01b03168061035d57604051637e27328960e01b81526004810184905260240161044d565b6105338383836001610daf565b5f5f610ae2858585610eb3565b90506001600160a01b038116610b3e57610b3984600880545f838152600960205260408120829055600182018355919091527ff3f7a9fe364faab93b216da50a3214154f22a0a2b415b23a84c8169e8b636ee30155565b610b61565b846001600160a01b0316816001600160a01b031614610b6157610b618185610fa5565b6001600160a01b038516610b7d57610b7884611022565b610ba0565b846001600160a01b0316816001600160a01b031614610ba057610ba085856110c9565b949350505050565b5f807ff0c57e16840df040f15088dc2f81fe391c3923bec73e23a9662efc9c229c6a0061035d565b610424828260405180602001604052805f815250611117565b6001600160a01b038216610c1b57604051630b61174360e31b81526001600160a01b038316600482015260240161044d565b6001600160a01b038381165f81815260056020908152604080832094871680845294825291829020805460ff191686151590811790915591519182527f17307eab39ab6107e8899845ad3d59bd9653f200f220920489ca2b5937696c31910160405180910390a3505050565b6001600160a01b0383163b15610da857604051630a85bd0160e11b81526001600160a01b0384169063150b7a0290610cc99088908890879087906004016116d7565b6020604051808303815f875af1925050508015610d03575060408051601f3d908101601f19168201909252610d0091810190611713565b60015b610d6a573d808015610d30576040519150601f19603f3d011682016040523d82523d5f602084013e610d35565b606091505b5080515f03610d6257604051633250574960e11b81526001600160a01b038516600482015260240161044d565b805181602001fd5b6001600160e01b03198116630a85bd0160e11b14610da657604051633250574960e11b81526001600160a01b038516600482015260240161044d565b505b5050505050565b8080610dc357506001600160a01b03821615155b15610e84575f610dd284610a90565b90506001600160a01b03831615801590610dfe5750826001600160a01b0316816001600160a01b031614155b8015610e115750610e0f8184610a14565b155b15610e3a5760405163a9fbf51f60e01b81526001600160a01b038416600482015260240161044d565b8115610e825783856001600160a01b0316826001600160a01b03167f8c5be1e5ebec7d5bd14f71427d1e84f3dd0314c0f7b2291e5b200ac8c7c3b92560405160405180910390a45b505b50505f90815260046020526040902080546001600160a01b0319166001600160a01b0392909216919091179055565b5f828152600260205260408120546001600160a01b0390811690831615610edf57610edf81848661112e565b6001600160a01b03811615610f1957610efa5f855f5f610daf565b6001600160a01b0381165f90815260036020526040902080545f190190555b6001600160a01b03851615610f47576001600160a01b0385165f908152600360205260409020805460010190555b5f8481526002602052604080822080546001600160a01b0319166001600160a01b0389811691821790925591518793918516917fddf252ad1be2c89b69c2b068fc378daa952ba7f163c4a11628f55a4df523b3ef91a4949350505050565b5f610faf83610795565b5f838152600760209081526040808320546001600160a01b0388168452600690925290912091925090818314611004575f83815260208281526040808320548584528184208190558352600790915290208290555b5f938452600760209081526040808620869055938552525081205550565b6008545f906110339060019061172e565b5f838152600960205260408120546008805493945090928490811061105a5761105a6116a8565b905f5260205f20015490508060088381548110611079576110796116a8565b5f9182526020808320909101929092558281526009909152604080822084905585825281205560088054806110b0576110b0611741565b600190038181905f5260205f20015f9055905550505050565b5f60016110d584610795565b6110df919061172e565b6001600160a01b039093165f908152600660209081526040808320868452825280832085905593825260079052919091209190915550565b6111218383611192565b610533335f858585610c87565b6111398383836111f3565b610533576001600160a01b03831661116757604051637e27328960e01b81526004810182905260240161044d565b60405163177e802f60e01b81526001600160a01b03831660048201526024810182905260440161044d565b6001600160a01b0382166111bb57604051633250574960e11b81525f600482015260240161044d565b5f6111c783835f610ad5565b90506001600160a01b03811615610533576040516339e3563760e11b81525f600482015260240161044d565b5f6001600160a01b03831615801590610ba05750826001600160a01b0316846001600160a01b0316148061122c575061122c8484610a14565b80610ba05750505f908152600460205260409020546001600160a01b03908116911614919050565b6001600160e01b031981168114611269575f5ffd5b50565b5f6020828403121561127c575f5ffd5b813561128781611254565b9392505050565b5f81518084528060208401602086015e5f602082860101526020601f19601f83011685010191505092915050565b602081525f611287602083018461128e565b5f602082840312156112de575f5ffd5b5035919050565b80356001600160a01b03811681146112fb575f5ffd5b919050565b5f5f60408385031215611311575f5ffd5b61131a836112e5565b946020939093013593505050565b5f5f5f6060848603121561133a575f5ffd5b611343846112e5565b9250611351602085016112e5565b929592945050506040919091013590565b5f5f60408385031215611373575f5ffd5b61137c836112e5565b915061138a602084016112e5565b90509250929050565b634e487b7160e01b5f52604160045260245ffd5b5f5f67ffffffffffffffff8411156113c1576113c1611393565b50604051601f19601f85018116603f0116810181811067ffffffffffffffff821117156113f0576113f0611393565b604052838152905080828401851015611407575f5ffd5b838360208301375f60208583010152509392505050565b5f5f6040838503121561142f575f5ffd5b823567ffffffffffffffff811115611445575f5ffd5b8301601f81018513611455575f5ffd5b611464858235602084016113a7565b92505061138a602084016112e5565b5f60208284031215611483575f5ffd5b611287826112e5565b8015158114611269575f5ffd5b5f5f604083850312156114aa575f5ffd5b6114b3836112e5565b915060208301356114c38161148c565b809150509250929050565b5f5f5f5f608085870312156114e1575f5ffd5b6114ea856112e5565b93506114f8602086016112e5565b925060408501359150606085013567ffffffffffffffff81111561151a575f5ffd5b8501601f8101871361152a575f5ffd5b611539878235602084016113a7565b91505092959194509250565b600181811c9082168061155957607f821691505b60208210810361157757634e487b7160e01b5f52602260045260245ffd5b50919050565b634e487b7160e01b5f52601160045260245ffd5b5f600182016115a2576115a261157d565b5060010190565b601f82111561053357805f5260205f20601f840160051c810160208510156115ce5750805b601f840160051c820191505b81811015610da8575f81556001016115da565b815167ffffffffffffffff81111561160757611607611393565b61161b816116158454611545565b846115a9565b6020601f82116001811461164d575f83156116365750848201515b5f19600385901b1c1916600184901b178455610da8565b5f84815260208120601f198516915b8281101561167c578785015182556020948501946001909201910161165c565b508482101561169957868401515f19600387901b60f8161c191681555b50505050600190811b01905550565b634e487b7160e01b5f52603260045260245ffd5b5f602082840312156116cc575f5ffd5b81516112878161148c565b6001600160a01b03858116825284166020820152604081018390526080606082018190525f906117099083018461128e565b9695505050505050565b5f60208284031215611723575f5ffd5b815161128781611254565b8181038181111561035d5761035d61157d565b634e487b7160e01b5f52603160045260245ffdfea2646970667358221220708c9e2f3fce2f42948085984a83a82f9035b233629a63585cdea5d29ba2db8d64736f6c634300081c0033","linkReferences":{}},"methodIdentifiers":{"approve(address,uint256)":"095ea7b3","balanceOf(address)":"70a08231","getApproved(uint256)":"081812fc","getTokenSupply()":"ad974f4c","initialize(address,address)":"485cc955","isApprovedForAll(address,address)":"e985e9c5","kinoraAccess()":"e2839eb3","kinoraEscrow()":"6f552a7c","kinoraOpenAction()":"a1d2f568","mintToken(string,address)":"4ae550cd","name()":"06fdde03","ownerOf(uint256)":"6352211e","safeTransferFrom(address,address,uint256)":"42842e0e","safeTransferFrom(address,address,uint256,bytes)":"b88d4fde","setApprovalForAll(address,bool)":"a22cb465","setKinoraAccessContract(address)":"e784c517","setKinoraEscrowContract(address)":"9a07e008","supportsInterface(bytes4)":"01ffc9a7","symbol()":"95d89b41","tokenByIndex(uint256)":"4f6ccce7","tokenOfOwnerByIndex(address,uint256)":"2f745c59","tokenURI(uint256)":"c87b56dd","totalSupply()":"18160ddd","transferFrom(address,address,uint256)":"23b872dd"},"id":45}