{"abi":[{"type":"function","name":"completeMilestone","inputs":[{"name":"playerProfile","type":"address","internalType":"address"},{"name":"questId","type":"uint256","internalType":"uint256"}],"outputs":[],"stateMutability":"nonpayable"},{"type":"function","name":"configureNewQuest","inputs":[{"name":"params","type":"tuple","internalType":"struct KinoraLibrary.NewQuestParams","components":[{"name":"gateLogic","type":"tuple","internalType":"struct KinoraLibrary.GatingLogic","components":[{"name":"erc721TokenURIs","type":"string[][]","internalType":"string[][]"},{"name":"erc721TokenIds","type":"uint256[][]","internalType":"uint256[][]"},{"name":"erc721Addresses","type":"address[]","internalType":"address[]"},{"name":"erc20Addresses","type":"address[]","internalType":"address[]"},{"name":"erc20Thresholds","type":"uint256[]","internalType":"uint256[]"},{"name":"oneOf","type":"bool","internalType":"bool"}]},{"name":"milestones","type":"tuple[]","internalType":"struct KinoraLibrary.MilestoneParameter[]","components":[{"name":"gated","type":"tuple","internalType":"struct KinoraLibrary.GatingLogic","components":[{"name":"erc721TokenURIs","type":"string[][]","internalType":"string[][]"},{"name":"erc721TokenIds","type":"uint256[][]","internalType":"uint256[][]"},{"name":"erc721Addresses","type":"address[]","internalType":"address[]"},{"name":"erc20Addresses","type":"address[]","internalType":"address[]"},{"name":"erc20Thresholds","type":"uint256[]","internalType":"uint256[]"},{"name":"oneOf","type":"bool","internalType":"bool"}]},{"name":"rewards","type":"tuple[]","internalType":"struct KinoraLibrary.Reward[]","components":[{"name":"rewardType","type":"uint8","internalType":"enum KinoraLibrary.RewardType"},{"name":"uri","type":"string","internalType":"string"},{"name":"tokenAddress","type":"address","internalType":"address"},{"name":"amount","type":"uint256","internalType":"uint256"}]},{"name":"videos","type":"tuple[]","internalType":"struct KinoraLibrary.Video[]","components":[{"name":"factoryIds","type":"uint256[]","internalType":"uint256[]"},{"name":"playerId","type":"string","internalType":"string"},{"name":"postId","type":"uint256","internalType":"uint256"},{"name":"minPlayCount","type":"uint256","internalType":"uint256"},{"name":"minAVD","type":"uint256","internalType":"uint256"},{"name":"minDuration","type":"uint256","internalType":"uint256"},{"name":"minSecondaryQuoteOnQuote","type":"uint256","internalType":"uint256"},{"name":"minSecondaryMirrorOnQuote","type":"uint256","internalType":"uint256"},{"name":"minSecondaryReactOnQuote","type":"uint256","internalType":"uint256"},{"name":"minSecondaryCommentOnQuote","type":"uint256","internalType":"uint256"},{"name":"minSecondaryCollectOnQuote","type":"uint256","internalType":"uint256"},{"name":"minSecondaryQuoteOnComment","type":"uint256","internalType":"uint256"},{"name":"minSecondaryMirrorOnComment","type":"uint256","internalType":"uint256"},{"name":"minSecondaryReactOnComment","type":"uint256","internalType":"uint256"},{"name":"minSecondaryCommentOnComment","type":"uint256","internalType":"uint256"},{"name":"minSecondaryCollectOnComment","type":"uint256","internalType":"uint256"},{"name":"quote","type":"bool","internalType":"bool"},{"name":"mirror","type":"bool","internalType":"bool"},{"name":"comment","type":"bool","internalType":"bool"},{"name":"bookmark","type":"bool","internalType":"bool"},{"name":"react","type":"bool","internalType":"bool"}]},{"name":"uri","type":"string","internalType":"string"},{"name":"milestone","type":"uint256","internalType":"uint256"}]},{"name":"uri","type":"string","internalType":"string"},{"name":"envokerAddress","type":"address","internalType":"address"},{"name":"postId","type":"uint256","internalType":"uint256"},{"name":"maxPlayerCount","type":"uint256","internalType":"uint256"}]}],"outputs":[],"stateMutability":"nonpayable"},{"type":"function","name":"deleteQuest","inputs":[{"name":"questId","type":"uint256","internalType":"uint256"}],"outputs":[],"stateMutability":"nonpayable"},{"type":"function","name":"getAddressToProfile","inputs":[{"name":"playerAddress","type":"address","internalType":"address"}],"outputs":[{"name":"","type":"address","internalType":"address"}],"stateMutability":"view"},{"type":"function","name":"getLensDataFromQuestId","inputs":[{"name":"questId","type":"uint256","internalType":"uint256"}],"outputs":[{"name":"","type":"uint256","internalType":"uint256"}],"stateMutability":"view"},{"type":"function","name":"getMilestoneCount","inputs":[{"name":"questId","type":"uint256","internalType":"uint256"}],"outputs":[{"name":"","type":"uint256","internalType":"uint256"}],"stateMutability":"view"},{"type":"function","name":"getMilestoneGatedERC20Addresses","inputs":[{"name":"questId","type":"uint256","internalType":"uint256"},{"name":"milestone","type":"uint256","internalType":"uint256"}],"outputs":[{"name":"","type":"address[]","internalType":"address[]"}],"stateMutability":"view"},{"type":"function","name":"getMilestoneGatedERC20Thresholds","inputs":[{"name":"questId","type":"uint256","internalType":"uint256"},{"name":"milestone","type":"uint256","internalType":"uint256"}],"outputs":[{"name":"","type":"uint256[]","internalType":"uint256[]"}],"stateMutability":"view"},{"type":"function","name":"getMilestoneGatedERC721Addresses","inputs":[{"name":"questId","type":"uint256","internalType":"uint256"},{"name":"milestone","type":"uint256","internalType":"uint256"}],"outputs":[{"name":"","type":"address[]","internalType":"address[]"}],"stateMutability":"view"},{"type":"function","name":"getMilestoneGatedERC721TokenIds","inputs":[{"name":"questId","type":"uint256","internalType":"uint256"},{"name":"milestone","type":"uint256","internalType":"uint256"}],"outputs":[{"name":"","type":"uint256[][]","internalType":"uint256[][]"}],"stateMutability":"view"},{"type":"function","name":"getMilestoneGatedERC721TokenURIs","inputs":[{"name":"questId","type":"uint256","internalType":"uint256"},{"name":"milestone","type":"uint256","internalType":"uint256"}],"outputs":[{"name":"","type":"string[][]","internalType":"string[][]"}],"stateMutability":"view"},{"type":"function","name":"getMilestoneGatedOneOf","inputs":[{"name":"questId","type":"uint256","internalType":"uint256"},{"name":"milestone","type":"uint256","internalType":"uint256"}],"outputs":[{"name":"","type":"bool","internalType":"bool"}],"stateMutability":"view"},{"type":"function","name":"getMilestoneRewardTokenAddress","inputs":[{"name":"questId","type":"uint256","internalType":"uint256"},{"name":"rewardIndex","type":"uint256","internalType":"uint256"},{"name":"milestone","type":"uint256","internalType":"uint256"}],"outputs":[{"name":"","type":"address","internalType":"address"}],"stateMutability":"view"},{"type":"function","name":"getMilestoneRewardTokenAmount","inputs":[{"name":"questId","type":"uint256","internalType":"uint256"},{"name":"rewardIndex","type":"uint256","internalType":"uint256"},{"name":"milestone","type":"uint256","internalType":"uint256"}],"outputs":[{"name":"","type":"uint256","internalType":"uint256"}],"stateMutability":"view"},{"type":"function","name":"getMilestoneRewardType","inputs":[{"name":"questId","type":"uint256","internalType":"uint256"},{"name":"rewardIndex","type":"uint256","internalType":"uint256"},{"name":"milestone","type":"uint256","internalType":"uint256"}],"outputs":[{"name":"","type":"uint8","internalType":"enum KinoraLibrary.RewardType"}],"stateMutability":"view"},{"type":"function","name":"getMilestoneRewardURI","inputs":[{"name":"questId","type":"uint256","internalType":"uint256"},{"name":"rewardIndex","type":"uint256","internalType":"uint256"},{"name":"milestone","type":"uint256","internalType":"uint256"}],"outputs":[{"name":"","type":"string","internalType":"string"}],"stateMutability":"view"},{"type":"function","name":"getMilestoneRewardsLength","inputs":[{"name":"questId","type":"uint256","internalType":"uint256"},{"name":"milestone","type":"uint256","internalType":"uint256"}],"outputs":[{"name":"","type":"uint256","internalType":"uint256"}],"stateMutability":"view"},{"type":"function","name":"getMilestoneURI","inputs":[{"name":"questId","type":"uint256","internalType":"uint256"},{"name":"milestone","type":"uint256","internalType":"uint256"}],"outputs":[{"name":"","type":"string","internalType":"string"}],"stateMutability":"view"},{"type":"function","name":"getMilestoneVideoBookmark","inputs":[{"name":"questId","type":"uint256","internalType":"uint256"},{"name":"milestone","type":"uint256","internalType":"uint256"},{"name":"videoPostId","type":"uint256","internalType":"uint256"}],"outputs":[{"name":"","type":"bool","internalType":"bool"}],"stateMutability":"view"},{"type":"function","name":"getMilestoneVideoComment","inputs":[{"name":"questId","type":"uint256","internalType":"uint256"},{"name":"milestone","type":"uint256","internalType":"uint256"},{"name":"videoPostId","type":"uint256","internalType":"uint256"}],"outputs":[{"name":"","type":"bool","internalType":"bool"}],"stateMutability":"view"},{"type":"function","name":"getMilestoneVideoFactoryIds","inputs":[{"name":"questId","type":"uint256","internalType":"uint256"},{"name":"milestone","type":"uint256","internalType":"uint256"},{"name":"videoPostId","type":"uint256","internalType":"uint256"}],"outputs":[{"name":"","type":"uint256[]","internalType":"uint256[]"}],"stateMutability":"view"},{"type":"function","name":"getMilestoneVideoLength","inputs":[{"name":"questId","type":"uint256","internalType":"uint256"},{"name":"milestone","type":"uint256","internalType":"uint256"}],"outputs":[{"name":"","type":"uint256","internalType":"uint256"}],"stateMutability":"view"},{"type":"function","name":"getMilestoneVideoMinAVD","inputs":[{"name":"questId","type":"uint256","internalType":"uint256"},{"name":"milestone","type":"uint256","internalType":"uint256"},{"name":"videoPostId","type":"uint256","internalType":"uint256"}],"outputs":[{"name":"","type":"uint256","internalType":"uint256"}],"stateMutability":"view"},{"type":"function","name":"getMilestoneVideoMinDuration","inputs":[{"name":"questId","type":"uint256","internalType":"uint256"},{"name":"milestone","type":"uint256","internalType":"uint256"},{"name":"videoPostId","type":"uint256","internalType":"uint256"}],"outputs":[{"name":"","type":"uint256","internalType":"uint256"}],"stateMutability":"view"},{"type":"function","name":"getMilestoneVideoMinPlayCount","inputs":[{"name":"questId","type":"uint256","internalType":"uint256"},{"name":"milestone","type":"uint256","internalType":"uint256"},{"name":"videoPostId","type":"uint256","internalType":"uint256"}],"outputs":[{"name":"","type":"uint256","internalType":"uint256"}],"stateMutability":"view"},{"type":"function","name":"getMilestoneVideoMinSecondaryCollectOnComment","inputs":[{"name":"questId","type":"uint256","internalType":"uint256"},{"name":"milestone","type":"uint256","internalType":"uint256"},{"name":"videoPostId","type":"uint256","internalType":"uint256"}],"outputs":[{"name":"","type":"uint256","internalType":"uint256"}],"stateMutability":"view"},{"type":"function","name":"getMilestoneVideoMinSecondaryCollectOnQuote","inputs":[{"name":"questId","type":"uint256","internalType":"uint256"},{"name":"milestone","type":"uint256","internalType":"uint256"},{"name":"videoPostId","type":"uint256","internalType":"uint256"}],"outputs":[{"name":"","type":"uint256","internalType":"uint256"}],"stateMutability":"view"},{"type":"function","name":"getMilestoneVideoMinSecondaryCommentOnComment","inputs":[{"name":"questId","type":"uint256","internalType":"uint256"},{"name":"milestone","type":"uint256","internalType":"uint256"},{"name":"videoPostId","type":"uint256","internalType":"uint256"}],"outputs":[{"name":"","type":"uint256","internalType":"uint256"}],"stateMutability":"view"},{"type":"function","name":"getMilestoneVideoMinSecondaryCommentOnQuote","inputs":[{"name":"questId","type":"uint256","internalType":"uint256"},{"name":"milestone","type":"uint256","internalType":"uint256"},{"name":"videoPostId","type":"uint256","internalType":"uint256"}],"outputs":[{"name":"","type":"uint256","internalType":"uint256"}],"stateMutability":"view"},{"type":"function","name":"getMilestoneVideoMinSecondaryMirrorOnComment","inputs":[{"name":"questId","type":"uint256","internalType":"uint256"},{"name":"milestone","type":"uint256","internalType":"uint256"},{"name":"videoPostId","type":"uint256","internalType":"uint256"}],"outputs":[{"name":"","type":"uint256","internalType":"uint256"}],"stateMutability":"view"},{"type":"function","name":"getMilestoneVideoMinSecondaryMirrorOnQuote","inputs":[{"name":"questId","type":"uint256","internalType":"uint256"},{"name":"milestone","type":"uint256","internalType":"uint256"},{"name":"videoPostId","type":"uint256","internalType":"uint256"}],"outputs":[{"name":"","type":"uint256","internalType":"uint256"}],"stateMutability":"view"},{"type":"function","name":"getMilestoneVideoMinSecondaryQuoteOnComment","inputs":[{"name":"questId","type":"uint256","internalType":"uint256"},{"name":"milestone","type":"uint256","internalType":"uint256"},{"name":"videoPostId","type":"uint256","internalType":"uint256"}],"outputs":[{"name":"","type":"uint256","internalType":"uint256"}],"stateMutability":"view"},{"type":"function","name":"getMilestoneVideoMinSecondaryQuoteOnQuote","inputs":[{"name":"questId","type":"uint256","internalType":"uint256"},{"name":"milestone","type":"uint256","internalType":"uint256"},{"name":"videoPostId","type":"uint256","internalType":"uint256"}],"outputs":[{"name":"","type":"uint256","internalType":"uint256"}],"stateMutability":"view"},{"type":"function","name":"getMilestoneVideoMinSecondaryReactOnComment","inputs":[{"name":"questId","type":"uint256","internalType":"uint256"},{"name":"milestone","type":"uint256","internalType":"uint256"},{"name":"videoPostId","type":"uint256","internalType":"uint256"}],"outputs":[{"name":"","type":"uint256","internalType":"uint256"}],"stateMutability":"view"},{"type":"function","name":"getMilestoneVideoMinSecondaryReactOnQuote","inputs":[{"name":"questId","type":"uint256","internalType":"uint256"},{"name":"milestone","type":"uint256","internalType":"uint256"},{"name":"videoPostId","type":"uint256","internalType":"uint256"}],"outputs":[{"name":"","type":"uint256","internalType":"uint256"}],"stateMutability":"view"},{"type":"function","name":"getMilestoneVideoMirror","inputs":[{"name":"questId","type":"uint256","internalType":"uint256"},{"name":"milestone","type":"uint256","internalType":"uint256"},{"name":"videoPostId","type":"uint256","internalType":"uint256"}],"outputs":[{"name":"","type":"bool","internalType":"bool"}],"stateMutability":"view"},{"type":"function","name":"getMilestoneVideoQuote","inputs":[{"name":"questId","type":"uint256","internalType":"uint256"},{"name":"milestone","type":"uint256","internalType":"uint256"},{"name":"videoPostId","type":"uint256","internalType":"uint256"}],"outputs":[{"name":"","type":"bool","internalType":"bool"}],"stateMutability":"view"},{"type":"function","name":"getMilestoneVideoReact","inputs":[{"name":"questId","type":"uint256","internalType":"uint256"},{"name":"milestone","type":"uint256","internalType":"uint256"},{"name":"videoPostId","type":"uint256","internalType":"uint256"}],"outputs":[{"name":"","type":"bool","internalType":"bool"}],"stateMutability":"view"},{"type":"function","name":"getMilestoneVideos","inputs":[{"name":"questId","type":"uint256","internalType":"uint256"},{"name":"milestone","type":"uint256","internalType":"uint256"}],"outputs":[{"name":"","type":"uint256[]","internalType":"uint256[]"}],"stateMutability":"view"},{"type":"function","name":"getPlayerActiveSince","inputs":[{"name":"playerProfile","type":"address","internalType":"address"}],"outputs":[{"name":"","type":"uint256","internalType":"uint256"}],"stateMutability":"view"},{"type":"function","name":"getPlayerAddress","inputs":[{"name":"playerProfile","type":"address","internalType":"address"}],"outputs":[{"name":"","type":"address","internalType":"address"}],"stateMutability":"view"},{"type":"function","name":"getPlayerEligibleToClaimMilestone","inputs":[{"name":"playerProfile","type":"address","internalType":"address"},{"name":"questId","type":"uint256","internalType":"uint256"},{"name":"milestone","type":"uint256","internalType":"uint256"}],"outputs":[{"name":"","type":"bool","internalType":"bool"}],"stateMutability":"view"},{"type":"function","name":"getPlayerHasJoinedQuest","inputs":[{"name":"playerProfile","type":"address","internalType":"address"},{"name":"questId","type":"uint256","internalType":"uint256"}],"outputs":[{"name":"","type":"bool","internalType":"bool"}],"stateMutability":"view"},{"type":"function","name":"getPlayerMilestonesCompletedPerQuest","inputs":[{"name":"playerProfile","type":"address","internalType":"address"},{"name":"questId","type":"uint256","internalType":"uint256"}],"outputs":[{"name":"","type":"uint256","internalType":"uint256"}],"stateMutability":"view"},{"type":"function","name":"getPlayerQuestsCompleted","inputs":[{"name":"playerProfile","type":"address","internalType":"address"}],"outputs":[{"name":"","type":"uint256[]","internalType":"uint256[]"}],"stateMutability":"view"},{"type":"function","name":"getPlayerQuestsJoined","inputs":[{"name":"playerProfile","type":"address","internalType":"address"}],"outputs":[{"name":"","type":"uint256[]","internalType":"uint256[]"}],"stateMutability":"view"},{"type":"function","name":"getPlayerVideoAVD","inputs":[{"name":"playerProfile","type":"address","internalType":"address"},{"name":"videoPostId","type":"uint256","internalType":"uint256"}],"outputs":[{"name":"","type":"uint256","internalType":"uint256"}],"stateMutability":"view"},{"type":"function","name":"getPlayerVideoBookmark","inputs":[{"name":"playerProfile","type":"address","internalType":"address"},{"name":"videoPostId","type":"uint256","internalType":"uint256"}],"outputs":[{"name":"","type":"bool","internalType":"bool"}],"stateMutability":"view"},{"type":"function","name":"getPlayerVideoComment","inputs":[{"name":"playerProfile","type":"address","internalType":"address"},{"name":"videoPostId","type":"uint256","internalType":"uint256"}],"outputs":[{"name":"","type":"bool","internalType":"bool"}],"stateMutability":"view"},{"type":"function","name":"getPlayerVideoDuration","inputs":[{"name":"playerProfile","type":"address","internalType":"address"},{"name":"videoPostId","type":"uint256","internalType":"uint256"}],"outputs":[{"name":"","type":"uint256","internalType":"uint256"}],"stateMutability":"view"},{"type":"function","name":"getPlayerVideoIds","inputs":[{"name":"playerProfile","type":"address","internalType":"address"}],"outputs":[{"name":"","type":"uint256[]","internalType":"uint256[]"}],"stateMutability":"view"},{"type":"function","name":"getPlayerVideoMirror","inputs":[{"name":"playerProfile","type":"address","internalType":"address"},{"name":"videoPostId","type":"uint256","internalType":"uint256"}],"outputs":[{"name":"","type":"bool","internalType":"bool"}],"stateMutability":"view"},{"type":"function","name":"getPlayerVideoMostReplayedArea","inputs":[{"name":"playerProfile","type":"address","internalType":"address"},{"name":"videoPostId","type":"uint256","internalType":"uint256"}],"outputs":[{"name":"","type":"string","internalType":"string"}],"stateMutability":"view"},{"type":"function","name":"getPlayerVideoPlayCount","inputs":[{"name":"playerProfile","type":"address","internalType":"address"},{"name":"videoPostId","type":"uint256","internalType":"uint256"}],"outputs":[{"name":"","type":"uint256","internalType":"uint256"}],"stateMutability":"view"},{"type":"function","name":"getPlayerVideoQuote","inputs":[{"name":"playerProfile","type":"address","internalType":"address"},{"name":"videoPostId","type":"uint256","internalType":"uint256"}],"outputs":[{"name":"","type":"bool","internalType":"bool"}],"stateMutability":"view"},{"type":"function","name":"getPlayerVideoReact","inputs":[{"name":"playerProfile","type":"address","internalType":"address"},{"name":"videoPostId","type":"uint256","internalType":"uint256"}],"outputs":[{"name":"","type":"bool","internalType":"bool"}],"stateMutability":"view"},{"type":"function","name":"getPlayerVideoSecondaryCollectOnComment","inputs":[{"name":"playerProfile","type":"address","internalType":"address"},{"name":"videoPostId","type":"uint256","internalType":"uint256"}],"outputs":[{"name":"","type":"uint256","internalType":"uint256"}],"stateMutability":"view"},{"type":"function","name":"getPlayerVideoSecondaryCollectOnQuote","inputs":[{"name":"playerProfile","type":"address","internalType":"address"},{"name":"videoPostId","type":"uint256","internalType":"uint256"}],"outputs":[{"name":"","type":"uint256","internalType":"uint256"}],"stateMutability":"view"},{"type":"function","name":"getPlayerVideoSecondaryCommentOnComment","inputs":[{"name":"playerProfile","type":"address","internalType":"address"},{"name":"videoPostId","type":"uint256","internalType":"uint256"}],"outputs":[{"name":"","type":"uint256","internalType":"uint256"}],"stateMutability":"view"},{"type":"function","name":"getPlayerVideoSecondaryCommentOnQuote","inputs":[{"name":"playerProfile","type":"address","internalType":"address"},{"name":"videoPostId","type":"uint256","internalType":"uint256"}],"outputs":[{"name":"","type":"uint256","internalType":"uint256"}],"stateMutability":"view"},{"type":"function","name":"getPlayerVideoSecondaryMirrorOnComment","inputs":[{"name":"playerProfile","type":"address","internalType":"address"},{"name":"videoPostId","type":"uint256","internalType":"uint256"}],"outputs":[{"name":"","type":"uint256","internalType":"uint256"}],"stateMutability":"view"},{"type":"function","name":"getPlayerVideoSecondaryMirrorOnQuote","inputs":[{"name":"playerProfile","type":"address","internalType":"address"},{"name":"videoPostId","type":"uint256","internalType":"uint256"}],"outputs":[{"name":"","type":"uint256","internalType":"uint256"}],"stateMutability":"view"},{"type":"function","name":"getPlayerVideoSecondaryQuoteOnComment","inputs":[{"name":"playerProfile","type":"address","internalType":"address"},{"name":"videoPostId","type":"uint256","internalType":"uint256"}],"outputs":[{"name":"","type":"uint256","internalType":"uint256"}],"stateMutability":"view"},{"type":"function","name":"getPlayerVideoSecondaryQuoteOnQuote","inputs":[{"name":"playerProfile","type":"address","internalType":"address"},{"name":"videoPostId","type":"uint256","internalType":"uint256"}],"outputs":[{"name":"","type":"uint256","internalType":"uint256"}],"stateMutability":"view"},{"type":"function","name":"getPlayerVideoSecondaryReactOnComment","inputs":[{"name":"playerProfile","type":"address","internalType":"address"},{"name":"videoPostId","type":"uint256","internalType":"uint256"}],"outputs":[{"name":"","type":"uint256","internalType":"uint256"}],"stateMutability":"view"},{"type":"function","name":"getPlayerVideoSecondaryReactOnQuote","inputs":[{"name":"playerProfile","type":"address","internalType":"address"},{"name":"videoPostId","type":"uint256","internalType":"uint256"}],"outputs":[{"name":"","type":"uint256","internalType":"uint256"}],"stateMutability":"view"},{"type":"function","name":"getQuestEnvoker","inputs":[{"name":"questId","type":"uint256","internalType":"uint256"}],"outputs":[{"name":"","type":"address","internalType":"address"}],"stateMutability":"view"},{"type":"function","name":"getQuestGatedERC20Addresses","inputs":[{"name":"questId","type":"uint256","internalType":"uint256"}],"outputs":[{"name":"","type":"address[]","internalType":"address[]"}],"stateMutability":"view"},{"type":"function","name":"getQuestGatedERC20Thresholds","inputs":[{"name":"questId","type":"uint256","internalType":"uint256"}],"outputs":[{"name":"","type":"uint256[]","internalType":"uint256[]"}],"stateMutability":"view"},{"type":"function","name":"getQuestGatedERC721Addresses","inputs":[{"name":"questId","type":"uint256","internalType":"uint256"}],"outputs":[{"name":"","type":"address[]","internalType":"address[]"}],"stateMutability":"view"},{"type":"function","name":"getQuestGatedERC721TokenIds","inputs":[{"name":"questId","type":"uint256","internalType":"uint256"}],"outputs":[{"name":"","type":"uint256[][]","internalType":"uint256[][]"}],"stateMutability":"view"},{"type":"function","name":"getQuestGatedERC721TokenURIs","inputs":[{"name":"questId","type":"uint256","internalType":"uint256"}],"outputs":[{"name":"","type":"string[][]","internalType":"string[][]"}],"stateMutability":"view"},{"type":"function","name":"getQuestGatedOneOf","inputs":[{"name":"questId","type":"uint256","internalType":"uint256"}],"outputs":[{"name":"","type":"bool","internalType":"bool"}],"stateMutability":"view"},{"type":"function","name":"getQuestIdFromLensData","inputs":[{"name":"postId","type":"uint256","internalType":"uint256"}],"outputs":[{"name":"","type":"uint256","internalType":"uint256"}],"stateMutability":"view"},{"type":"function","name":"getQuestIdsToVideoPlaybackId","inputs":[{"name":"playbackId","type":"string","internalType":"string"}],"outputs":[{"name":"","type":"uint256[]","internalType":"uint256[]"}],"stateMutability":"view"},{"type":"function","name":"getQuestMaxPlayerCount","inputs":[{"name":"questId","type":"uint256","internalType":"uint256"}],"outputs":[{"name":"","type":"uint256","internalType":"uint256"}],"stateMutability":"view"},{"type":"function","name":"getQuestPlayers","inputs":[{"name":"questId","type":"uint256","internalType":"uint256"}],"outputs":[{"name":"","type":"address[]","internalType":"address[]"}],"stateMutability":"view"},{"type":"function","name":"getQuestPostId","inputs":[{"name":"questId","type":"uint256","internalType":"uint256"}],"outputs":[{"name":"","type":"uint256","internalType":"uint256"}],"stateMutability":"view"},{"type":"function","name":"getQuestStatus","inputs":[{"name":"questId","type":"uint256","internalType":"uint256"}],"outputs":[{"name":"","type":"uint8","internalType":"enum KinoraLibrary.Status"}],"stateMutability":"view"},{"type":"function","name":"getQuestURI","inputs":[{"name":"questId","type":"uint256","internalType":"uint256"}],"outputs":[{"name":"","type":"string","internalType":"string"}],"stateMutability":"view"},{"type":"function","name":"getTotalPlayerCount","inputs":[],"outputs":[{"name":"","type":"uint256","internalType":"uint256"}],"stateMutability":"view"},{"type":"function","name":"getTotalQuestCount","inputs":[],"outputs":[{"name":"","type":"uint256","internalType":"uint256"}],"stateMutability":"view"},{"type":"function","name":"getVideoPlaybackId","inputs":[{"name":"postId","type":"uint256","internalType":"uint256"}],"outputs":[{"name":"","type":"string","internalType":"string"}],"stateMutability":"view"},{"type":"function","name":"getVideoPostIdFromPlaybackId","inputs":[{"name":"playbackId","type":"string","internalType":"string"}],"outputs":[{"name":"","type":"uint256","internalType":"uint256"}],"stateMutability":"view"},{"type":"function","name":"initialize","inputs":[{"name":"kinoraAccessAddress","type":"address","internalType":"address"},{"name":"kinoraOpenActionAddress","type":"address","internalType":"address"}],"outputs":[],"stateMutability":"nonpayable"},{"type":"function","name":"joinQuest","inputs":[{"name":"playerProfile","type":"address","internalType":"address"},{"name":"playerAddress","type":"address","internalType":"address"},{"name":"questId","type":"uint256","internalType":"uint256"}],"outputs":[],"stateMutability":"nonpayable"},{"type":"function","name":"kinoraAccess","inputs":[],"outputs":[{"name":"","type":"address","internalType":"contract KinoraAccessControl"}],"stateMutability":"view"},{"type":"function","name":"kinoraEscrow","inputs":[],"outputs":[{"name":"","type":"address","internalType":"contract KinoraEscrow"}],"stateMutability":"view"},{"type":"function","name":"kinoraMetrics","inputs":[],"outputs":[{"name":"","type":"address","internalType":"contract KinoraMetrics"}],"stateMutability":"view"},{"type":"function","name":"kinoraOpenAction","inputs":[],"outputs":[{"name":"","type":"address","internalType":"address"}],"stateMutability":"view"},{"type":"function","name":"name","inputs":[],"outputs":[{"name":"","type":"string","internalType":"string"}],"stateMutability":"pure"},{"type":"function","name":"playerEligibleToClaim","inputs":[{"name":"playerProfile","type":"address","internalType":"address"},{"name":"questId","type":"uint256","internalType":"uint256"},{"name":"milestone","type":"uint256","internalType":"uint256"},{"name":"eligible","type":"bool","internalType":"bool"}],"outputs":[],"stateMutability":"nonpayable"},{"type":"function","name":"setKinoraAccessContract","inputs":[{"name":"newAccessContract","type":"address","internalType":"address"}],"outputs":[],"stateMutability":"nonpayable"},{"type":"function","name":"setKinoraEscrowContract","inputs":[{"name":"newEscrowContract","type":"address","internalType":"address"}],"outputs":[],"stateMutability":"nonpayable"},{"type":"function","name":"setKinoraMetricsContract","inputs":[{"name":"newMetricsContract","type":"address","internalType":"address"}],"outputs":[],"stateMutability":"nonpayable"},{"type":"function","name":"setKinoraOpenActionContract","inputs":[{"name":"newOpenActionContract","type":"address","internalType":"address"}],"outputs":[],"stateMutability":"nonpayable"},{"type":"function","name":"symbol","inputs":[],"outputs":[{"name":"","type":"string","internalType":"string"}],"stateMutability":"pure"},{"type":"function","name":"updatePlayerMetrics","inputs":[{"name":"metrics","type":"tuple","internalType":"struct KinoraLibrary.PlayerVideoMetrics","components":[{"name":"mostReplayedArea","type":"string","internalType":"string"},{"name":"postId","type":"uint256","internalType":"uint256"},{"name":"playCount","type":"uint256","internalType":"uint256"},{"name":"secondaryQuoteOnQuote","type":"uint256","internalType":"uint256"},{"name":"secondaryMirrorOnQuote","type":"uint256","internalType":"uint256"},{"name":"secondaryReactOnQuote","type":"uint256","internalType":"uint256"},{"name":"secondaryCommentOnQuote","type":"uint256","internalType":"uint256"},{"name":"secondaryCollectOnQuote","type":"uint256","internalType":"uint256"},{"name":"secondaryQuoteOnComment","type":"uint256","internalType":"uint256"},{"name":"secondaryMirrorOnComment","type":"uint256","internalType":"uint256"},{"name":"secondaryReactOnComment","type":"uint256","internalType":"uint256"},{"name":"secondaryCommentOnComment","type":"uint256","internalType":"uint256"},{"name":"secondaryCollectOnComment","type":"uint256","internalType":"uint256"},{"name":"avd","type":"uint256","internalType":"uint256"},{"name":"duration","type":"uint256","internalType":"uint256"},{"name":"hasQuoted","type":"bool","internalType":"bool"},{"name":"hasMirrored","type":"bool","internalType":"bool"},{"name":"hasCommented","type":"bool","internalType":"bool"},{"name":"hasBookmarked","type":"bool","internalType":"bool"},{"name":"hasReacted","type":"bool","internalType":"bool"}]},{"name":"playerProfile","type":"address","internalType":"address"}],"outputs":[],"stateMutability":"nonpayable"},{"type":"function","name":"updateQuestStatus","inputs":[{"name":"questId","type":"uint256","internalType":"uint256"}],"outputs":[],"stateMutability":"nonpayable"},{"type":"event","name":"Initialized","inputs":[{"name":"version","type":"uint64","indexed":false,"internalType":"uint64"}],"anonymous":false},{"type":"event","name":"MilestoneCompleted","inputs":[{"name":"playerProfile","type":"address","indexed":false,"internalType":"address"},{"name":"questId","type":"uint256","indexed":false,"internalType":"uint256"},{"name":"milestone","type":"uint256","indexed":false,"internalType":"uint256"}],"anonymous":false},{"type":"event","name":"PlayerEligibleToClaimMilestone","inputs":[{"name":"playerProfile","type":"address","indexed":false,"internalType":"address"},{"name":"questId","type":"uint256","indexed":false,"internalType":"uint256"},{"name":"milestone","type":"uint256","indexed":false,"internalType":"uint256"},{"name":"eligibility","type":"bool","indexed":false,"internalType":"bool"}],"anonymous":false},{"type":"event","name":"PlayerJoinedQuest","inputs":[{"name":"playerProfile","type":"address","indexed":false,"internalType":"address"},{"name":"questId","type":"uint256","indexed":false,"internalType":"uint256"}],"anonymous":false},{"type":"event","name":"PlayerMetricsUpdated","inputs":[{"name":"playerProfile","type":"address","indexed":false,"internalType":"address"},{"name":"videoPostId","type":"uint256","indexed":false,"internalType":"uint256"}],"anonymous":false},{"type":"event","name":"QuestCompleted","inputs":[{"name":"playerProfile","type":"address","indexed":false,"internalType":"address"},{"name":"questId","type":"uint256","indexed":false,"internalType":"uint256"}],"anonymous":false},{"type":"event","name":"QuestDeleted","inputs":[{"name":"questId","type":"uint256","indexed":false,"internalType":"uint256"}],"anonymous":false},{"type":"event","name":"QuestInstantiated","inputs":[{"name":"questId","type":"uint256","indexed":false,"internalType":"uint256"},{"name":"milestoneCount","type":"uint256","indexed":false,"internalType":"uint256"}],"anonymous":false},{"type":"event","name":"QuestStatusUpdated","inputs":[{"name":"questId","type":"uint256","indexed":false,"internalType":"uint256"},{"name":"status","type":"uint8","indexed":false,"internalType":"enum KinoraLibrary.Status"}],"anonymous":false},{"type":"error","name":"AlreadyInitialized","inputs":[]},{"type":"error","name":"InvalidAddress","inputs":[]},{"type":"error","name":"InvalidContract","inputs":[]},{"type":"error","name":"InvalidInitialization","inputs":[]},{"type":"error","name":"NotInitializing","inputs":[]},{"type":"error","name":"PlayerNotEligible","inputs":[]}],"bytecode":{"object":"0x6080604052348015600e575f5ffd5b50614eb38061001c5f395ff3fe608060405234801561000f575f5ffd5b506004361061056d575f3560e01c80638fa33a1c116102d9578063c2010e5011610186578063e1214d2f116100ef578063eb1dff86116100a9578063f443043011610084578063f443043014611102578063f5425a3614611115578063f9cc469614611151578063fd9d3c2114611164575f5ffd5b8063eb1dff86146110c9578063ec35602e146110dc578063ec746ff5146110ef575f5ffd5b8063e1214d2f14611014578063e2839eb314611027578063e6106fda14611039578063e784c51714611075578063e9e0c04e14611088578063ead863b7146110aa575f5ffd5b8063d620535411610140578063d620535414610f79578063d85c671a14610f8c578063d8e0ceaf14610f9f578063de872aee14610fb2578063df2c2d2614610fee578063e016cea614611001575f5ffd5b8063c2010e5014610ecf578063c2f8c99914610ef1578063ca223ba514610f2d578063ce1982d914610f40578063cf405da914610f53578063cfdf9f6b14610f66575f5ffd5b8063a747504c11610242578063af74f685116101fc578063baa62ca3116101d7578063baa62ca314610e31578063bf7be75c14610e6d578063c0f55b7c14610ea9578063c17b608314610ebc575f5ffd5b8063af74f68514610dcf578063b4e697f814610de2578063b8519c2c14610e1e575f5ffd5b8063a747504c14610cfe578063a899af2914610d3a578063aac1417c14610d4d578063aaea9a8614610d60578063ad721ed814610a92578063aef2d4fc14610d8b575f5ffd5b806397fcd0781161029357806397fcd07814610c3d5780639a07e00814610c84578063a15b30ba14610c97578063a1d2f56814610caa578063a2d616fa14610cbd578063a67599a914610ceb575f5ffd5b80638fa33a1c14610b955780639129f43714610ba857806391316de314610bbb57806391719e7814610bce57806393247b4314610bf357806395d89b4114610c1e575f5ffd5b80634a4360151161043757806363840ac7116103a0578063756d10441161035a5780637cab89a4116103355780637cab89a414610b3c5780638916825014610b4f5780638ac83eb914610b6f5780638e073cfc14610b82575f5ffd5b8063756d104414610b035780637769dcd914610b165780637ac3c53c14610b29575f5ffd5b806363840ac714610a305780636a1a4f5b14610a6c5780636f552a7c14610a7f5780637182ecd114610a9257806371fc7d8b14610ab457806374a7989c14610af0575f5ffd5b806358b0b792116103f157806358b0b792146109325780635bd6e323146109455780635dc9bbcd146109705780635fb6a333146109ac57806361abe20a146109e15780636222b57914610a1d575f5ffd5b80634a436015146108805780634b7d93f2146108935780634dcbf777146108b35780634de64344146108f95780634fd790101461090c578063579910cf1461091f575f5ffd5b80632c71b749116104d95780633cb04490116104935780633cb04490146107cc5780633cb7e7da146108085780634277b90414610834578063479edbc01461084757806347c200c61461085a578063485cc9551461086d575f5ffd5b80632c71b7491461072c5780632e056c4f1461073f5780632e78e46f1461075257806334b2201b146107725780633707bca8146107855780633aebaeaa146107c4575f5ffd5b8063180fc74c1161052a578063180fc74c1461065557806318969315146106755780631c5a65c8146106ba57806325857903146106e5578063279f7ac9146107065780632af508ab14610719575f5ffd5b806306fdde03146105715780630d05962d146105ae578063103d36b8146105ce57806310838f59146105e357806311253c6314610606578063162da2b814610619575b5f5ffd5b60408051808201909152600f81526e4b696e6f726151756573744461746160881b60208201525b6040516105a59190613d64565b60405180910390f35b6105c16105bc366004613d7d565b61116c565b6040516105a59190613dd6565b6105e16105dc366004613de9565b6111cf565b005b6105f66105f1366004613e1b565b6112e1565b60405190151581526020016105a5565b610598610614366004613e4b565b61132d565b6105f6610627366004613e4b565b6001600160a01b03919091165f90815260066020908152604080832093835260019093019052205460ff1690565b610668610663366004613d7d565b6113e6565b6040516105a59190613e73565b6105f6610683366004613e4b565b6001600160a01b03919091165f9081526006602090815260408083209383526002909301905220600f015462010000900460ff1690565b6106cd6106c8366004613d7d565b61147b565b6040516001600160a01b0390911681526020016105a5565b6106f86106f3366004613d7d565b6114e7565b6040519081526020016105a5565b6105e1610714366004613eb5565b611536565b6106f8610727366004613d7d565b6115dd565b61066861073a366004613de9565b61162c565b6105e161074d3660046147d6565b61168e565b610765610760366004613de9565b611850565b6040516105a591906148bb565b6001546106cd906001600160a01b031681565b6105f6610793366004613e4b565b6001600160a01b03919091165f9081526006602090815260408083209383526002909301905220600f015460ff1690565b6004546106f8565b6106f86107da366004613e4b565b6001600160a01b03919091165f9081526006602090815260408083209383526002909301905220600e015490565b6105c1610816366004613de9565b5f90815260076020526040902060090154600160a01b900460ff1690565b6105f6610842366004614964565b611977565b6106f8610855366004613d7d565b6119bc565b6106f8610868366004613d7d565b611a0b565b6105e161087b366004614984565b611a5a565b6105e161088e3660046149b5565b611baa565b6108a66108a1366004613de9565b611c7e565b6040516105a591906149fa565b6105f66108c1366004613e4b565b6001600160a01b03919091165f9081526006602090815260408083209383526002909301905220600f01546301000000900460ff1690565b6105f6610907366004613d7d565b611ce9565b6105f661091a366004613d7d565b611d3b565b6106f861092d366004613d7d565b611d94565b6105f6610940366004613d7d565b611de3565b6106f8610953366004613eb5565b6001600160a01b03165f9081526006602052604090206008015490565b6106f861097e366004613e4b565b6001600160a01b03919091165f90815260066020908152604080832093835260029093019052206008015490565b6106f86109ba366004613e4b565b6001600160a01b03919091165f908152600660209081526040808320938352929052205490565b6106f86109ef366004613e4b565b6001600160a01b03919091165f90815260066020908152604080832093835260029384019091529020015490565b610598610a2b366004614964565b611e3d565b6106f8610a3e366004613e4b565b6001600160a01b0382165f908152600660208181526040808420858552600201909152909120015492915050565b6108a6610a7a366004613de9565b611e82565b6002546106cd906001600160a01b031681565b6106f8610aa0366004613de9565b5f908152600760205260409020600b015490565b6106f8610ac2366004613e4b565b6001600160a01b03919091165f9081526006602090815260408083209383526002909301905220600a015490565b6106f8610afe366004613d7d565b611eec565b610765610b11366004614964565b611f3b565b6106f8610b24366004613d7d565b61208e565b6106f8610b37366004613d7d565b6120ef565b610668610b4a366004613eb5565b61213e565b610b62610b5d366004614964565b6121a8565b6040516105a59190614a3a565b6105e1610b7d366004614aba565b61226d565b6105e1610b90366004613eb5565b612594565b610598610ba3366004613d7d565b612654565b6105f6610bb6366004613d7d565b612734565b6106f8610bc9366004614c20565b61278b565b6105f6610bdc366004613de9565b5f9081526007602052604090206006015460ff1690565b6106cd610c01366004613eb5565b6001600160a01b039081165f908152600c60205260409020541690565b60408051808201909152600381526212d45160ea1b6020820152610598565b6105f6610c4b366004613e4b565b6001600160a01b03919091165f9081526006602090815260408083209383526002909301905220600f0154640100000000900460ff1690565b6105e1610c92366004613eb5565b6127b2565b6106f8610ca5366004614964565b612872565b6003546106cd906001600160a01b031681565b6106cd610ccb366004613eb5565b6001600160a01b039081165f908152600660205260409020600701541690565b610668610cf9366004614c20565b6128b2565b6106f8610d0c366004613e4b565b6001600160a01b03919091165f90815260066020908152604080832093835260029093019052206005015490565b6106f8610d48366004613d7d565b61291e565b6106f8610d5b366004613d7d565b61296d565b6106cd610d6e366004613de9565b5f908152600760205260409020600901546001600160a01b031690565b6105f6610d99366004613e4b565b6001600160a01b03919091165f9081526006602090815260408083209383526002909301905220600f0154610100900460ff1690565b6106f8610ddd366004613d7d565b6129bc565b6106f8610df0366004613e4b565b6001600160a01b03919091165f90815260066020908152604080832093835260029093019052206003015490565b610668610e2c366004613eb5565b612a08565b6106f8610e3f366004613e4b565b6001600160a01b03919091165f9081526006602090815260408083209383526002909301905220600c015490565b6106f8610e7b366004613e4b565b6001600160a01b03919091165f90815260066020908152604080832093835260029093019052206004015490565b6108a6610eb7366004614964565b612a72565b6108a6610eca366004613de9565b612b07565b6106f8610edd366004613de9565b5f908152600760205260409020600c015490565b6106f8610eff366004613e4b565b6001600160a01b03919091165f90815260066020908152604080832093835260029093019052206007015490565b6105e1610f3b366004613de9565b612b71565b610598610f4e366004613de9565b612bf9565b610668610f61366004614964565b612c91565b6108a6610f74366004614964565b612d1c565b6105f6610f87366004613d7d565b612db0565b610b62610f9a366004613de9565b612e08565b6105e1610fad366004613e4b565b612ea1565b6106f8610fc0366004613e4b565b6001600160a01b03919091165f90815260066020908152604080832093835260029093019052206009015490565b6106f8610ffc366004613d7d565b612fe4565b61066861100f366004614964565b613033565b610668611022366004613eb5565b6130c0565b5f546106cd906001600160a01b031681565b6106f8611047366004613e4b565b6001600160a01b03919091165f9081526006602090815260408083209383526002909301905220600b015490565b6105e1611083366004613eb5565b61312a565b6106f8611096366004613de9565b5f908152600760205260409020600d015490565b6106f86110b8366004613de9565b5f908152600b602052604090205490565b6106f86110d7366004613d7d565b6131d0565b6105e16110ea366004614c59565b61321f565b6106f86110fd366004613d7d565b613371565b610598611110366004613de9565b6133c0565b6106f8611123366004613e4b565b6001600160a01b03919091165f9081526006602090815260408083209383526002909301905220600d015490565b6106f861115f366004614964565b6133dc565b6005546106f8565b5f838152600760205260408120611184600184614ca7565b8154811061119457611194614cba565b905f5260205f2090600d020160070183815481106111b4576111b4614cba565b5f91825260209091206004909102015460ff16949350505050565b6002546001600160a01b031633146111fa576040516303777f6960e51b815260040160405180910390fd5b5f81815260076020526040812090611212828261397b565b600182015f611221828261399c565b61122e600183015f6139b7565b61123b600283015f6139d2565b611248600383015f6139d2565b611255600483015f6139d2565b50600501805460ff1916905561126e600783015f6139d2565b61127b600883015f6139ed565b506009810180546001600160a81b03191690555f600a8201819055600b8201819055600c8201819055600d909101556040518181527fcbe2e2b576d488acbd141580ea0928b24300831852f56c7eb39330a9a35e1e6d906020015b60405180910390a150565b6001600160a01b0383165f908152600660209081526040808320858452600301909152812081611312600185614ca7565b815260208101919091526040015f205460ff16949350505050565b6001600160a01b0382165f908152600660209081526040808320848452600201909152902080546060919061136190614cce565b80601f016020809104026020016040519081016040528092919081815260200182805461138d90614cce565b80156113d85780601f106113af576101008083540402835291602001916113d8565b820191905f5260205f20905b8154815290600101906020018083116113bb57829003601f168201915b505050505090505b92915050565b5f838152600760205260409020606090611401600185614ca7565b8154811061141157611411614cba565b5f9182526020808320858452600d90920290910181526040918290208054835181840281018401909452808452909183018282801561146d57602002820191905f5260205f20905b815481526020019060010190808311611459575b505050505090509392505050565b5f838152600760205260408120611493600184614ca7565b815481106114a3576114a3614cba565b905f5260205f2090600d020160070183815481106114c3576114c3614cba565b5f9182526020909120600490910201600201546001600160a01b0316949350505050565b5f8381526007602052604081206114ff600185614ca7565b8154811061150f5761150f614cba565b5f9182526020808320858452600d9092029091019052604090206008015490509392505050565b5f5460405162a08cef60e31b81523360048201526001600160a01b0390911690630504677890602401602060405180830381865afa15801561157a573d5f5f3e3d5ffd5b505050506040513d601f19601f8201168201806040525081019061159e9190614d06565b6115bb5760405163e6c4247b60e01b815260040160405180910390fd5b600380546001600160a01b0319166001600160a01b0392909216919091179055565b5f8381526007602052604081206115f5600185614ca7565b8154811061160557611605614cba565b5f9182526020808320858452600d9092029091019052604090206007015490509392505050565b5f8181526007602090815260409182902060050180548351818402810184019094528084526060939283018282801561168257602002820191905f5260205f20905b81548152602001906001019080831161166e575b50505050509050919050565b6003546001600160a01b031633146116b9576040516303777f6960e51b815260040160405180910390fd5b60048054905f6116c883614d21565b90915550506004545f818152600760209081526040909120600a8101929092556080830151600b830155606083015160098301805460a0860151600d8601556001600160a81b0319166001600160a01b039092169190911790558251805180519192600185019261173c9284920190613a24565b5060208281015180516117559260018501920190613a7f565b5060408201518051611771916002840191602090910190613ad6565b506060820151805161178d916003840191602090910190613ad6565b50608082015180516117a9916004840191602090910190613b35565b5060a091909101516005909101805460ff1916911515919091179055602082015151600c820155604082015160088201906117e49082614d7d565b506117f682602001518260045461341c565b60045460808301515f908152600b602090815260409182902083905580850151518251938452908301527f5fc06d224c9af68add198a86b9edf62077458edade4534748f0ee3e3a4ff965a91015b60405180910390a15050565b5f818152600760209081526040808320600101805482518185028101850190935280835260609492939192909184015b8282101561196c578382905f5260205f2001805480602002602001604051908101604052809291908181526020015f905b82821015611959578382905f5260205f200180546118ce90614cce565b80601f01602080910402602001604051908101604052809291908181526020018280546118fa90614cce565b80156119455780601f1061191c57610100808354040283529160200191611945565b820191905f5260205f20905b81548152906001019060200180831161192857829003601f168201915b5050505050815260200190600101906118b1565b5050505081526020019060010190611880565b505050509050919050565b5f82815260076020526040812061198f600184614ca7565b8154811061199f5761199f614cba565b5f9182526020909120600d909102016006015460ff169392505050565b5f8381526007602052604081206119d4600185614ca7565b815481106119e4576119e4614cba565b5f9182526020808320858452600d9092029091019052604090206006015490509392505050565b5f838152600760205260408120611a23600185614ca7565b81548110611a3357611a33614cba565b5f9182526020808320858452600d909202909101905260409020600f015490509392505050565b5f611a636135e8565b805490915060ff600160401b82041615906001600160401b03165f81158015611a895750825b90505f826001600160401b03166001148015611aa45750303b155b905081158015611ab2575080155b15611ad05760405163f92ee8a960e01b815260040160405180910390fd5b845467ffffffffffffffff191660011785558315611afa57845460ff60401b1916600160401b1785555b5f546001600160a01b031615611b225760405162dc149f60e41b815260040160405180910390fd5b5f6004819055600581905580546001600160a01b03808a166001600160a01b03199283161790925560038054928916929091169190911790558315611ba157845460ff60401b19168555604051600181527fc7f505b2f371ae2175ee4913f4499e1f2633a7b5936321eed1cdaeb6115181d29060200160405180910390a15b50505050505050565b6001546001600160a01b03163314611bd5576040516303777f6960e51b815260040160405180910390fd5b6001600160a01b0384165f90815260066020908152604080832086845260030190915281208291611c07600186614ca7565b815260208082019290925260409081015f20805460ff19169315159390931790925581516001600160a01b038716815290810185905290810183905281151560608201527ff8ceb2db347480b2d8097e618f2b594d9a6389396b4a492f15cebf4942771daa9060800160405180910390a150505050565b5f8181526007602081815260409283902090910180548351818402810184019094528084526060939283018282801561168257602002820191905f5260205f20905b81546001600160a01b03168152600190910190602001808311611cc05750505050509050919050565b5f838152600760205260408120611d01600185614ca7565b81548110611d1157611d11614cba565b5f9182526020808320858452600d9092029091019052604090206010015460ff1690509392505050565b5f838152600760205260408120611d53600185614ca7565b81548110611d6357611d63614cba565b5f9182526020808320948352600d919091029093019092525060409020601001546301000000900460ff1692915050565b5f838152600760205260408120611dac600185614ca7565b81548110611dbc57611dbc614cba565b5f9182526020808320858452600d9092029091019052604090206009015490509392505050565b5f838152600760205260408120611dfb600185614ca7565b81548110611e0b57611e0b614cba565b5f9182526020808320948352600d91909102909301909252506040902060100154640100000000900460ff1692915050565b5f828152600760205260409020606090611e58600184614ca7565b81548110611e6857611e68614cba565b905f5260205f2090600d0201600901805461136190614cce565b5f8181526007602090815260409182902060040180548351818402810184019094528084526060939283018282801561168257602002820191905f5260205f209081546001600160a01b03168152600190910190602001808311611cc05750505050509050919050565b5f838152600760205260408120611f04600185614ca7565b81548110611f1457611f14614cba565b5f9182526020808320858452600d909202909101905260409020600c015490509392505050565b5f828152600760205260409020606090611f56600184614ca7565b81548110611f6657611f66614cba565b905f5260205f2090600d02016001015f01805480602002602001604051908101604052809291908181526020015f905b82821015612082578382905f5260205f2001805480602002602001604051908101604052809291908181526020015f905b8282101561206f578382905f5260205f20018054611fe490614cce565b80601f016020809104026020016040519081016040528092919081815260200182805461201090614cce565b801561205b5780601f106120325761010080835404028352916020019161205b565b820191905f5260205f20905b81548152906001019060200180831161203e57829003601f168201915b505050505081526020019060010190611fc7565b5050505081526020019060010190611f96565b50505050905092915050565b5f8381526007602052604081206120a6600184614ca7565b815481106120b6576120b6614cba565b905f5260205f2090600d020160070183815481106120d6576120d6614cba565b905f5260205f2090600402016003015490509392505050565b5f838152600760205260408120612107600185614ca7565b8154811061211757612117614cba565b5f9182526020808320858452600d909202909101905260409020600b015490509392505050565b6001600160a01b0381165f9081526006602090815260409182902060050180548351818402810184019094528084526060939283018282801561168257602002820191905f5260205f209081548152602001906001019080831161166e5750505050509050919050565b5f8281526007602052604090206060906121c3600184614ca7565b815481106121d3576121d3614cba565b905f5260205f2090600d0201600101600101805480602002602001604051908101604052809291908181526020015f905b82821015612082575f8481526020908190208301805460408051828502810185019091528181529283018282801561225957602002820191905f5260205f20905b815481526020019060010190808311612245575b505050505081526020019060010190612204565b6001546001600160a01b03163314612298576040516303777f6960e51b815260040160405180910390fd5b6001600160a01b0381165f9081526006602052604081206008015490036122d2576040516313fee0df60e21b815260040160405180910390fd5b6001600160a01b0381165f90815260066020908152604080832085830151845260020190915281206001015490036123fb576020808301515f908152600a90915260408120805461232290614cce565b80601f016020809104026020016040519081016040528092919081815260200182805461234e90614cce565b80156123995780601f1061237057610100808354040283529160200191612399565b820191905f5260205f20905b81548152906001019060200180831161237c57829003601f168201915b5050505050905060065f836001600160a01b03166001600160a01b031681526020019081526020015f206006016009826040516123d69190614e37565b908152604051602091819003820190205482546001810184555f938452919092200155505b6001600160a01b0381165f9081526006602090815260408083208286015184526002019091529020825183919081906124349082614d7d565b5060208281015160018301556040808401516002840155606084015160038401556080840151600484015560a0840151600584015560c0840151600684015560e084015160078401556101008085015160088501556101208501516009850155610140850151600a850155610160850151600b850155610180850151600c8501556101a0850151600d8501556101c0850151600e8501556101e0850151600f90940180546102008701516102208801516102408901516102609099015115156401000000000264ff000000001999151563010000000263ff0000001992151562010000029290921663ffff00001993151590960261ff00199915159990991661ffff19909416939093179790971716929092179490941794909416939093179091558381015182516001600160a01b0385168152918201527f615fcb39c5739585ae7a98b195a7eba14f52561bb0ae40bce8c63efb5e1343f69101611844565b5f5460405162a08cef60e31b81523360048201526001600160a01b0390911690630504677890602401602060405180830381865afa1580156125d8573d5f5f3e3d5ffd5b505050506040513d601f19601f820116820180604052508101906125fc9190614d06565b15801561261457506003546001600160a01b03163314155b156126325760405163e6c4247b60e01b815260040160405180910390fd5b600180546001600160a01b0319166001600160a01b0392909216919091179055565b5f83815260076020526040902060609061266f600184614ca7565b8154811061267f5761267f614cba565b905f5260205f2090600d0201600701838154811061269f5761269f614cba565b905f5260205f20906004020160010180546126b990614cce565b80601f01602080910402602001604051908101604052809291908181526020018280546126e590614cce565b801561146d5780601f106127075761010080835404028352916020019161146d565b820191905f5260205f20905b81548152906001019060200180831161271357509398975050505050505050565b5f83815260076020526040812061274c600185614ca7565b8154811061275c5761275c614cba565b5f9182526020808320948352600d91909102909301909252506040902060100154610100900460ff1692915050565b5f60098260405161279c9190614e37565b9081526020016040518091039020549050919050565b5f5460405162a08cef60e31b81523360048201526001600160a01b0390911690630504677890602401602060405180830381865afa1580156127f6573d5f5f3e3d5ffd5b505050506040513d601f19601f8201168201806040525081019061281a9190614d06565b15801561283257506003546001600160a01b03163314155b156128505760405163e6c4247b60e01b815260040160405180910390fd5b600280546001600160a01b0319166001600160a01b0392909216919091179055565b5f82815260076020526040812061288a600184614ca7565b8154811061289a5761289a614cba565b905f5260205f2090600d0201600c0154905092915050565b60606008826040516128c49190614e37565b908152604080519182900360209081018320805480830285018301909352828452919083018282801561168257602002820191905f5260205f209081548152602001906001019080831161166e5750505050509050919050565b5f838152600760205260408120612936600185614ca7565b8154811061294657612946614cba565b5f9182526020808320858452600d9092029091019052604090206004015490509392505050565b5f838152600760205260408120612985600185614ca7565b8154811061299557612995614cba565b5f9182526020808320858452600d9092029091019052604090206003015490509392505050565b5f8381526007602052604081206129d4600185614ca7565b815481106129e4576129e4614cba565b5f9182526020808320858452600d9283020190526040909120015490509392505050565b6001600160a01b0381165f9081526006602081815260409283902090910180548351818402810184019094528084526060939283018282801561168257602002820191905f5260205f209081548152602001906001019080831161166e5750505050509050919050565b5f828152600760205260409020606090612a8d600184614ca7565b81548110612a9d57612a9d614cba565b5f9182526020918290206004600d909202010180546040805182850281018501909152818152928301828280156113d857602002820191905f5260205f20905b81546001600160a01b03168152600190910190602001808311612add575050505050905092915050565b5f8181526007602090815260409182902060030180548351818402810184019094528084526060939283018282801561168257602002820191905f5260205f209081546001600160a01b03168152600190910190602001808311611cc05750505050509050919050565b6002546001600160a01b03163314612b9c576040516303777f6960e51b815260040160405180910390fd5b5f8181526007602052604090819020600901805460ff60a01b1916600160a01b9081179182905591517f69ece81755488aa3937ce59552d302d53cf2f9e4740f8617bf7b2d6c91643cdc926112d692859291900460ff1690614e4d565b5f818152600760205260409020600801805460609190612c1890614cce565b80601f0160208091040260200160405190810160405280929190818152602001828054612c4490614cce565b80156116825780601f10612c6657610100808354040283529160200191611682565b820191905f5260205f20905b815481529060010190602001808311612c725750939695505050505050565b5f828152600760205260409020606090612cac600184614ca7565b81548110612cbc57612cbc614cba565b5f9182526020918290206005600d909202010180546040805182850281018501909152818152928301828280156113d857602002820191905f5260205f20905b815481526020019060010190808311612cfc575050505050905092915050565b5f828152600760205260409020606090612d37600184614ca7565b81548110612d4757612d47614cba565b5f9182526020918290206003600d909202010180546040805182850281018501909152818152928301828280156113d857602002820191905f5260205f209081546001600160a01b03168152600190910190602001808311612add575050505050905092915050565b5f838152600760205260408120612dc8600185614ca7565b81548110612dd857612dd8614cba565b5f9182526020808320948352600d9190910290930190925250604090206010015462010000900460ff1692915050565b5f818152600760209081526040808320600201805482518185028101850190935280835260609492939192909184015b8282101561196c575f84815260209081902083018054604080518285028101850190915281815292830182828015612e8d57602002820191905f5260205f20905b815481526020019060010190808311612e79575b505050505081526020019060010190612e38565b6003546001600160a01b03163314612ecc576040516303777f6960e51b815260040160405180910390fd5b6001600160a01b0382165f908152600660209081526040808320848452909152812054612efa906001614e6a565b6001600160a01b0384165f8181526006602090815260408083208784528252918290208490558151928352820185905281018290529091507ff43bfc498688ec8f5ca2efe35ba87cb7b4f33c139cb2dc8e3f795527e3f08ccc9060600160405180910390a15f828152600760205260409020600c01548103612fdf576001600160a01b0383165f818152600660209081526040808320600501805460018101825590845292829020909201859055815192835282018490527f6618f11353f68847dc28cc4b36a04270fab5e356fa35386e6315ba7ff205a63391015b60405180910390a15b505050565b5f838152600760205260408120612ffc600185614ca7565b8154811061300c5761300c614cba565b5f9182526020808320858452600d9092029091019052604090206005015490509392505050565b5f82815260076020526040902060609061304e600184614ca7565b8154811061305e5761305e614cba565b905f5260205f2090600d02016008018054806020026020016040519081016040528092919081815260200182805480156113d857602002820191905f5260205f2090815481526020019060010190808311612cfc575050505050905092915050565b6001600160a01b0381165f9081526006602090815260409182902060040180548351818402810184019094528084526060939283018282801561168257602002820191905f5260205f209081548152602001906001019080831161166e5750505050509050919050565b5f5460405162a08cef60e31b81523360048201526001600160a01b0390911690630504677890602401602060405180830381865afa15801561316e573d5f5f3e3d5ffd5b505050506040513d601f19601f820116820180604052508101906131929190614d06565b6131af5760405163e6c4247b60e01b815260040160405180910390fd5b5f80546001600160a01b0319166001600160a01b0392909216919091179055565b5f8381526007602052604081206131e8600185614ca7565b815481106131f8576131f8614cba565b5f9182526020808320858452600d909202909101905260409020600e015490509392505050565b6003546001600160a01b0316331461324a576040516303777f6960e51b815260040160405180910390fd5b6001600160a01b0383165f9081526006602052604081206008015490036132d05760058054905f61327a83614d21565b90915550506001600160a01b038084165f8181526006602090815260408083206007810180549689166001600160a01b03199788168117909155426008909201919091558352600c909152902080549092161790555b6001600160a01b0383165f81815260066020908152604080832060048101805460018082018355918652848620018790558685529081018352818420805460ff1916821790556007808452828520018054918201815584529282902090920180546001600160a01b03191684179055815192835282018390527ff90d35c996daadd234b4ea3eed4cd3d05f76c60da38ee1d70439e61a3326c03b9101612fd6565b5f838152600760205260408120613389600185614ca7565b8154811061339957613399614cba565b5f9182526020808320858452600d909202909101905260409020600a015490509392505050565b5f818152600a60205260409020805460609190612c1890614cce565b5f8281526007602052604081206133f4600184614ca7565b8154811061340457613404614cba565b905f5260205f2090600d0201600b0154905092915050565b5f5b83518110156135e2578254600181810185555f85815260209020600d9092029091019061344c908390614e6a565b600a820155845185908390811061346557613465614cba565b60209081029190910181015151805180519192600185019261348a9284920190613a24565b5060208281015180516134a39260018501920190613a7f565b50604082015180516134bf916002840191602090910190613ad6565b50606082015180516134db916003840191602090910190613ad6565b50608082015180516134f7916004840191602090910190613b35565b5060a091909101516005909101805460ff1916911515919091179055845185908390811061352757613527614cba565b6020026020010151604001515181600b018190555084828151811061354e5761354e614cba565b6020026020010151602001515181600c018190555084828151811061357557613575614cba565b6020026020010151606001518160090190816135919190614d7d565b506135b5818684815181106135a8576135a8614cba565b6020026020010151613610565b6135d9818684815181106135cb576135cb614cba565b6020026020010151856136d5565b5060010161341e565b50505050565b5f807ff0c57e16840df040f15088dc2f81fe391c3923bec73e23a9662efc9c229c6a006113e0565b5f5b816020015151811015612fdf575f8260200151828151811061363657613636614cba565b602090810291909101810151600786018054600181810183555f9283529390912082516004909202018054929450929091839160ff1990911690838181111561368157613681613da6565b02179055506020820151600182019061369a9082614d7d565b5060408201516002820180546001600160a01b0319166001600160a01b03909216919091179055606090910151600390910155600101613612565b5f8260400151516001600160401b038111156136f3576136f3613ece565b60405190808252806020026020018201604052801561371c578160200160208202803683370190505b5090505f5b83604001515181101561395e575f8460400151828151811061374557613745614cba565b6020908102919091018101516040808201515f9081528984522081518051929450849391926137779284920190613b35565b506020820151600182019061378c9082614d7d565b506040828101516002830155606083015160038301556080830151600483015560a0830151600583015560c0830151600683015560e08301516007830155610100808401516008808501919091556101208501516009850155610140850151600a850155610160850151600b850155610180850151600c8501556101a0850151600d8501556101c0850151600e8501556101e0850151600f850155610200850151601090940180546102208701516102408801516102608901516102809099015115156401000000000264ff000000001999151563010000000263ff0000001992151562010000029290921663ffff00001993151590970261ff00199915159990991661ffff1990941693909317979097171693909317949094179490941617909155602083015190516138c09190614e37565b908152604080516020928190038301812080546001810182555f918252908490200187905590830151918301516009916138fa9190614e37565b9081526020016040518091039020819055508060200151600a5f836040015181526020019081526020015f2090816139329190614d7d565b50806040015183838151811061394a5761394a614cba565b602090810291909101015250600101613721565b5080516139749060088601906020840190613b35565b5050505050565b5080545f8255600d02905f5260205f20908101906139999190613b6e565b50565b5080545f8255905f5260205f20908101906139999190613c0a565b5080545f8255905f5260205f20908101906139999190613c26565b5080545f8255905f5260205f20908101906139999190613c42565b5080546139f990614cce565b5f825580601f10613a08575050565b601f0160209004905f5260205f20908101906139999190613c42565b828054828255905f5260205f20908101928215613a6f579160200282015b82811115613a6f5782518051613a5f918491602090910190613c56565b5091602001919060010190613a42565b50613a7b929150613c0a565b5090565b828054828255905f5260205f20908101928215613aca579160200282015b82811115613aca5782518051613aba918491602090910190613b35565b5091602001919060010190613a9d565b50613a7b929150613c26565b828054828255905f5260205f20908101928215613b29579160200282015b82811115613b2957825182546001600160a01b0319166001600160a01b03909116178255602090920191600190910190613af4565b50613a7b929150613c42565b828054828255905f5260205f20908101928215613b29579160200282015b82811115613b29578251825591602001919060010190613b53565b80821115613a7b575f6001820181613b86828261399c565b613b93600183015f6139b7565b613ba0600283015f6139d2565b613bad600383015f6139d2565b613bba600483015f6139d2565b50600501805460ff19169055613bd3600783015f613ca6565b613be0600883015f6139d2565b613bed600983015f6139ed565b505f600a8201819055600b8201819055600c820155600d01613b6e565b80821115613a7b575f613c1d8282613cc4565b50600101613c0a565b80821115613a7b575f613c3982826139d2565b50600101613c26565b5b80821115613a7b575f8155600101613c43565b828054828255905f5260205f20908101928215613c9a579160200282015b82811115613c9a5782518290613c8a9082614d7d565b5091602001919060010190613c74565b50613a7b929150613cdb565b5080545f8255600402905f5260205f20908101906139999190613cf7565b5080545f8255905f5260205f209081019061399991905b80821115613a7b575f613cee82826139ed565b50600101613cdb565b80821115613a7b57805460ff191681555f613d1560018301826139ed565b506002810180546001600160a01b03191690555f6003820155600401613cf7565b5f81518084528060208401602086015e5f602082860101526020601f19601f83011685010191505092915050565b602081525f613d766020830184613d36565b9392505050565b5f5f5f60608486031215613d8f575f5ffd5b505081359360208301359350604090920135919050565b634e487b7160e01b5f52602160045260245ffd5b6002811061399957634e487b7160e01b5f52602160045260245ffd5b60208101613de383613dba565b91905290565b5f60208284031215613df9575f5ffd5b5035919050565b80356001600160a01b0381168114613e16575f5ffd5b919050565b5f5f5f60608486031215613e2d575f5ffd5b613e3684613e00565b95602085013595506040909401359392505050565b5f5f60408385031215613e5c575f5ffd5b613e6583613e00565b946020939093013593505050565b602080825282518282018190525f918401906040840190835b81811015613eaa578351835260209384019390920191600101613e8c565b509095945050505050565b5f60208284031215613ec5575f5ffd5b613d7682613e00565b634e487b7160e01b5f52604160045260245ffd5b60405160c081016001600160401b0381118282101715613f0457613f04613ece565b60405290565b604051608081016001600160401b0381118282101715613f0457613f04613ece565b6040516102a081016001600160401b0381118282101715613f0457613f04613ece565b60405160a081016001600160401b0381118282101715613f0457613f04613ece565b60405161028081016001600160401b0381118282101715613f0457613f04613ece565b604051601f8201601f191681016001600160401b0381118282101715613fbc57613fbc613ece565b604052919050565b5f6001600160401b03821115613fdc57613fdc613ece565b5060051b60200190565b5f82601f830112613ff5575f5ffd5b81356001600160401b0381111561400e5761400e613ece565b614021601f8201601f1916602001613f94565b818152846020838601011115614035575f5ffd5b816020850160208301375f918101602001919091529392505050565b5f82601f830112614060575f5ffd5b813561407361406e82613fc4565b613f94565b8082825260208201915060208360051b860101925085831115614094575f5ffd5b602085015b838110156141505780356001600160401b038111156140b6575f5ffd5b8601603f810188136140c6575f5ffd5b60208101356140d761406e82613fc4565b808282526020820191506020808460051b8601010192508a8311156140fa575f5ffd5b604084015b8381101561413a5780356001600160401b0381111561411c575f5ffd5b61412b8d604088840101613fe6565b845250602092830192016140ff565b5086525050602093840193919091019050614099565b5095945050505050565b5f82601f830112614169575f5ffd5b813561417761406e82613fc4565b8082825260208201915060208360051b860101925085831115614198575f5ffd5b602085015b8381101561415057803583526020928301920161419d565b5f82601f8301126141c4575f5ffd5b81356141d261406e82613fc4565b8082825260208201915060208360051b8601019250858311156141f3575f5ffd5b602085015b838110156141505780356001600160401b03811115614215575f5ffd5b614224886020838a010161415a565b845250602092830192016141f8565b5f82601f830112614242575f5ffd5b813561425061406e82613fc4565b8082825260208201915060208360051b860101925085831115614271575f5ffd5b602085015b838110156141505761428781613e00565b835260209283019201614276565b8015158114613999575f5ffd5b8035613e1681614295565b5f60c082840312156142bd575f5ffd5b6142c5613ee2565b905081356001600160401b038111156142dc575f5ffd5b6142e884828501614051565b82525060208201356001600160401b03811115614303575f5ffd5b61430f848285016141b5565b60208301525060408201356001600160401b0381111561432d575f5ffd5b61433984828501614233565b60408301525060608201356001600160401b03811115614357575f5ffd5b61436384828501614233565b60608301525060808201356001600160401b03811115614381575f5ffd5b61438d8482850161415a565b60808301525061439f60a083016142a2565b60a082015292915050565b5f82601f8301126143b9575f5ffd5b81356143c761406e82613fc4565b8082825260208201915060208360051b8601019250858311156143e8575f5ffd5b602085015b838110156141505780356001600160401b0381111561440a575f5ffd5b86016080818903601f1901121561441f575f5ffd5b614427613f0a565b602082013560028110614438575f5ffd5b815260408201356001600160401b03811115614452575f5ffd5b6144618a602083860101613fe6565b60208301525061447360608301613e00565b60408201526080919091013560608201528352602092830192016143ed565b5f82601f8301126144a1575f5ffd5b81356144af61406e82613fc4565b8082825260208201915060208360051b8601019250858311156144d0575f5ffd5b602085015b838110156141505780356001600160401b038111156144f2575f5ffd5b86016102a0818903601f19011215614508575f5ffd5b614510613f2c565b60208201356001600160401b03811115614528575f5ffd5b6145378a60208386010161415a565b82525060408201356001600160401b03811115614552575f5ffd5b6145618a602083860101613fe6565b60208301525060608281013560408301526080808401359183019190915260a0808401359183019190915260c0808401359183019190915260e08084013591830191909152610100808401359183019190915261012080840135918301919091526101408084013591830191909152610160808401359183019190915261018080840135918301919091526101a080840135918301919091526101c080840135918301919091526101e080840135918301919091526102008301359082015261462d61022083016142a2565b61020082015261464061024083016142a2565b61022082015261465361026083016142a2565b61024082015261466661028083016142a2565b6102608201526146796102a083016142a2565b610280820152845250602092830192016144d5565b5f82601f83011261469d575f5ffd5b81356146ab61406e82613fc4565b8082825260208201915060208360051b8601019250858311156146cc575f5ffd5b602085015b838110156141505780356001600160401b038111156146ee575f5ffd5b860160a0818903601f19011215614703575f5ffd5b61470b613f4f565b60208201356001600160401b03811115614723575f5ffd5b6147328a6020838601016142ad565b82525060408201356001600160401b0381111561474d575f5ffd5b61475c8a6020838601016143aa565b60208301525060608201356001600160401b0381111561477a575f5ffd5b6147898a602083860101614492565b60408301525060808201356001600160401b038111156147a7575f5ffd5b6147b68a602083860101613fe6565b60608301525060a0919091013560808201528352602092830192016146d1565b5f602082840312156147e6575f5ffd5b81356001600160401b038111156147fb575f5ffd5b820160c0818503121561480c575f5ffd5b614814613ee2565b81356001600160401b03811115614829575f5ffd5b614835868285016142ad565b82525060208201356001600160401b03811115614850575f5ffd5b61485c8682850161468e565b60208301525060408201356001600160401b0381111561487a575f5ffd5b61488686828501613fe6565b60408301525061489860608301613e00565b60608201526080828101359082015260a091820135918101919091529392505050565b5f602082016020835280845180835260408501915060408160051b8601019250602086015f5b8281101561495857868503603f19018452815180518087526020918201918088019190600582901b8901015f5b8281101561493f57601f198a830301845261492a828651613d36565b6020958601959490940193915060010161490e565b50975050506020948501949290920191506001016148e1565b50929695505050505050565b5f5f60408385031215614975575f5ffd5b50508035926020909101359150565b5f5f60408385031215614995575f5ffd5b61499e83613e00565b91506149ac60208401613e00565b90509250929050565b5f5f5f5f608085870312156149c8575f5ffd5b6149d185613e00565b9350602085013592506040850135915060608501356149ef81614295565b939692955090935050565b602080825282518282018190525f918401906040840190835b81811015613eaa5783516001600160a01b0316835260209384019390920191600101614a13565b5f602082016020835280845180835260408501915060408160051b8601019250602086015f5b8281101561495857868503603f19018452815180518087526020918201918701905f5b81811015614aa1578351835260209384019390920191600101614a83565b5090965050506020938401939190910190600101614a60565b5f5f60408385031215614acb575f5ffd5b82356001600160401b03811115614ae0575f5ffd5b83016102808186031215614af2575f5ffd5b614afa613f71565b81356001600160401b03811115614b0f575f5ffd5b614b1b87828501613fe6565b8252506020828101359082015260408083013590820152606080830135908201526080808301359082015260a0808301359082015260c0808301359082015260e08083013590820152610100808301359082015261012080830135908201526101408083013590820152610160808301359082015261018080830135908201526101a080830135908201526101c08083013590820152614bbe6101e083016142a2565b6101e0820152614bd161020083016142a2565b610200820152614be461022083016142a2565b610220820152614bf761024083016142a2565b610240820152614c0a61026083016142a2565b61026082015292506149ac905060208401613e00565b5f60208284031215614c30575f5ffd5b81356001600160401b03811115614c45575f5ffd5b614c5184828501613fe6565b949350505050565b5f5f5f60608486031215614c6b575f5ffd5b614c7484613e00565b9250614c8260208501613e00565b929592945050506040919091013590565b634e487b7160e01b5f52601160045260245ffd5b818103818111156113e0576113e0614c93565b634e487b7160e01b5f52603260045260245ffd5b600181811c90821680614ce257607f821691505b602082108103614d0057634e487b7160e01b5f52602260045260245ffd5b50919050565b5f60208284031215614d16575f5ffd5b8151613d7681614295565b5f60018201614d3257614d32614c93565b5060010190565b601f821115612fdf57805f5260205f20601f840160051c81016020851015614d5e5750805b601f840160051c820191505b81811015613974575f8155600101614d6a565b81516001600160401b03811115614d9657614d96613ece565b614daa81614da48454614cce565b84614d39565b6020601f821160018114614ddc575f8315614dc55750848201515b5f19600385901b1c1916600184901b178455613974565b5f84815260208120601f198516915b82811015614e0b5787850151825560209485019460019092019101614deb565b5084821015614e2857868401515f19600387901b60f8161c191681555b50505050600190811b01905550565b5f82518060208501845e5f920191825250919050565b82815260408101614e5d83613dba565b8260208301529392505050565b808201808211156113e0576113e0614c9356fea2646970667358221220a85c7bfc1e8a069549c24da4a2857a7d2b16212c41f620403e05938899156ded64736f6c634300081c0033","linkReferences":{}},"methodIdentifiers":{"completeMilestone(address,uint256)":"d8e0ceaf","configureNewQuest(((string[][],uint256[][],address[],address[],uint256[],bool),((string[][],uint256[][],address[],address[],uint256[],bool),(uint8,string,address,uint256)[],(uint256[],string,uint256,uint256,uint256,uint256,uint256,uint256,uint256,uint256,uint256,uint256,uint256,uint256,uint256,uint256,bool,bool,bool,bool,bool)[],string,uint256)[],string,address,uint256,uint256))":"2e056c4f","deleteQuest(uint256)":"103d36b8","getAddressToProfile(address)":"93247b43","getLensDataFromQuestId(uint256)":"7182ecd1","getMilestoneCount(uint256)":"c2010e50","getMilestoneGatedERC20Addresses(uint256,uint256)":"c0f55b7c","getMilestoneGatedERC20Thresholds(uint256,uint256)":"cf405da9","getMilestoneGatedERC721Addresses(uint256,uint256)":"cfdf9f6b","getMilestoneGatedERC721TokenIds(uint256,uint256)":"89168250","getMilestoneGatedERC721TokenURIs(uint256,uint256)":"756d1044","getMilestoneGatedOneOf(uint256,uint256)":"4277b904","getMilestoneRewardTokenAddress(uint256,uint256,uint256)":"1c5a65c8","getMilestoneRewardTokenAmount(uint256,uint256,uint256)":"7769dcd9","getMilestoneRewardType(uint256,uint256,uint256)":"0d05962d","getMilestoneRewardURI(uint256,uint256,uint256)":"8fa33a1c","getMilestoneRewardsLength(uint256,uint256)":"a15b30ba","getMilestoneURI(uint256,uint256)":"6222b579","getMilestoneVideoBookmark(uint256,uint256,uint256)":"4fd79010","getMilestoneVideoComment(uint256,uint256,uint256)":"d6205354","getMilestoneVideoFactoryIds(uint256,uint256,uint256)":"180fc74c","getMilestoneVideoLength(uint256,uint256)":"f9cc4696","getMilestoneVideoMinAVD(uint256,uint256,uint256)":"a899af29","getMilestoneVideoMinDuration(uint256,uint256,uint256)":"df2c2d26","getMilestoneVideoMinPlayCount(uint256,uint256,uint256)":"aac1417c","getMilestoneVideoMinSecondaryCollectOnComment(uint256,uint256,uint256)":"47c200c6","getMilestoneVideoMinSecondaryCollectOnQuote(uint256,uint256,uint256)":"ec746ff5","getMilestoneVideoMinSecondaryCommentOnComment(uint256,uint256,uint256)":"eb1dff86","getMilestoneVideoMinSecondaryCommentOnQuote(uint256,uint256,uint256)":"579910cf","getMilestoneVideoMinSecondaryMirrorOnComment(uint256,uint256,uint256)":"74a7989c","getMilestoneVideoMinSecondaryMirrorOnQuote(uint256,uint256,uint256)":"2af508ab","getMilestoneVideoMinSecondaryQuoteOnComment(uint256,uint256,uint256)":"7ac3c53c","getMilestoneVideoMinSecondaryQuoteOnQuote(uint256,uint256,uint256)":"479edbc0","getMilestoneVideoMinSecondaryReactOnComment(uint256,uint256,uint256)":"af74f685","getMilestoneVideoMinSecondaryReactOnQuote(uint256,uint256,uint256)":"25857903","getMilestoneVideoMirror(uint256,uint256,uint256)":"9129f437","getMilestoneVideoQuote(uint256,uint256,uint256)":"4de64344","getMilestoneVideoReact(uint256,uint256,uint256)":"58b0b792","getMilestoneVideos(uint256,uint256)":"e016cea6","getPlayerActiveSince(address)":"5bd6e323","getPlayerAddress(address)":"a2d616fa","getPlayerEligibleToClaimMilestone(address,uint256,uint256)":"10838f59","getPlayerHasJoinedQuest(address,uint256)":"162da2b8","getPlayerMilestonesCompletedPerQuest(address,uint256)":"5fb6a333","getPlayerQuestsCompleted(address)":"7cab89a4","getPlayerQuestsJoined(address)":"e1214d2f","getPlayerVideoAVD(address,uint256)":"f5425a36","getPlayerVideoBookmark(address,uint256)":"4dcbf777","getPlayerVideoComment(address,uint256)":"18969315","getPlayerVideoDuration(address,uint256)":"3cb04490","getPlayerVideoIds(address)":"b8519c2c","getPlayerVideoMirror(address,uint256)":"aef2d4fc","getPlayerVideoMostReplayedArea(address,uint256)":"11253c63","getPlayerVideoPlayCount(address,uint256)":"61abe20a","getPlayerVideoQuote(address,uint256)":"3707bca8","getPlayerVideoReact(address,uint256)":"97fcd078","getPlayerVideoSecondaryCollectOnComment(address,uint256)":"baa62ca3","getPlayerVideoSecondaryCollectOnQuote(address,uint256)":"c2f8c999","getPlayerVideoSecondaryCommentOnComment(address,uint256)":"e6106fda","getPlayerVideoSecondaryCommentOnQuote(address,uint256)":"63840ac7","getPlayerVideoSecondaryMirrorOnComment(address,uint256)":"de872aee","getPlayerVideoSecondaryMirrorOnQuote(address,uint256)":"bf7be75c","getPlayerVideoSecondaryQuoteOnComment(address,uint256)":"5dc9bbcd","getPlayerVideoSecondaryQuoteOnQuote(address,uint256)":"b4e697f8","getPlayerVideoSecondaryReactOnComment(address,uint256)":"71fc7d8b","getPlayerVideoSecondaryReactOnQuote(address,uint256)":"a747504c","getQuestEnvoker(uint256)":"aaea9a86","getQuestGatedERC20Addresses(uint256)":"6a1a4f5b","getQuestGatedERC20Thresholds(uint256)":"2c71b749","getQuestGatedERC721Addresses(uint256)":"c17b6083","getQuestGatedERC721TokenIds(uint256)":"d85c671a","getQuestGatedERC721TokenURIs(uint256)":"2e78e46f","getQuestGatedOneOf(uint256)":"91719e78","getQuestIdFromLensData(uint256)":"ead863b7","getQuestIdsToVideoPlaybackId(string)":"a67599a9","getQuestMaxPlayerCount(uint256)":"e9e0c04e","getQuestPlayers(uint256)":"4b7d93f2","getQuestPostId(uint256)":"ad721ed8","getQuestStatus(uint256)":"3cb7e7da","getQuestURI(uint256)":"ce1982d9","getTotalPlayerCount()":"fd9d3c21","getTotalQuestCount()":"3aebaeaa","getVideoPlaybackId(uint256)":"f4430430","getVideoPostIdFromPlaybackId(string)":"91316de3","initialize(address,address)":"485cc955","joinQuest(address,address,uint256)":"ec35602e","kinoraAccess()":"e2839eb3","kinoraEscrow()":"6f552a7c","kinoraMetrics()":"34b2201b","kinoraOpenAction()":"a1d2f568","name()":"06fdde03","playerEligibleToClaim(address,uint256,uint256,bool)":"4a436015","setKinoraAccessContract(address)":"e784c517","setKinoraEscrowContract(address)":"9a07e008","setKinoraMetricsContract(address)":"8e073cfc","setKinoraOpenActionContract(address)":"279f7ac9","symbol()":"95d89b41","updatePlayerMetrics((string,uint256,uint256,uint256,uint256,uint256,uint256,uint256,uint256,uint256,uint256,uint256,uint256,uint256,uint256,bool,bool,bool,bool,bool),address)":"8ac83eb9","updateQuestStatus(uint256)":"ca223ba5"},"id":47}