{"abi":[{"type":"constructor","inputs":[],"stateMutability":"nonpayable"},{"type":"function","name":"configure","inputs":[{"name":"configSalt","type":"bytes32","internalType":"bytes32"},{"name":"ruleParams","type":"tuple[]","internalType":"struct KeyValue[]","components":[{"name":"key","type":"bytes32","internalType":"bytes32"},{"name":"value","type":"bytes","internalType":"bytes"}]}],"outputs":[],"stateMutability":"nonpayable"},{"type":"function","name":"processCreatePost","inputs":[{"name":"configSalt","type":"bytes32","internalType":"bytes32"},{"name":"postId","type":"uint256","internalType":"uint256"},{"name":"postParams","type":"tuple","internalType":"struct CreatePostParams","components":[{"name":"author","type":"address","internalType":"address"},{"name":"contentURI","type":"string","internalType":"string"},{"name":"repostedPostId","type":"uint256","internalType":"uint256"},{"name":"quotedPostId","type":"uint256","internalType":"uint256"},{"name":"repliedPostId","type":"uint256","internalType":"uint256"},{"name":"ruleChanges","type":"tuple[]","internalType":"struct RuleChange[]","components":[{"name":"ruleAddress","type":"address","internalType":"address"},{"name":"configSalt","type":"bytes32","internalType":"bytes32"},{"name":"configurationChanges","type":"tuple","internalType":"struct RuleConfigurationChange","components":[{"name":"configure","type":"bool","internalType":"bool"},{"name":"ruleParams","type":"tuple[]","internalType":"struct KeyValue[]","components":[{"name":"key","type":"bytes32","internalType":"bytes32"},{"name":"value","type":"bytes","internalType":"bytes"}]}]},{"name":"selectorChanges","type":"tuple[]","internalType":"struct RuleSelectorChange[]","components":[{"name":"ruleSelector","type":"bytes4","internalType":"bytes4"},{"name":"isRequired","type":"bool","internalType":"bool"},{"name":"enabled","type":"bool","internalType":"bool"}]}]},{"name":"extraData","type":"tuple[]","internalType":"struct KeyValue[]","components":[{"name":"key","type":"bytes32","internalType":"bytes32"},{"name":"value","type":"bytes","internalType":"bytes"}]}]},{"name":"primitiveParams","type":"tuple[]","internalType":"struct KeyValue[]","components":[{"name":"key","type":"bytes32","internalType":"bytes32"},{"name":"value","type":"bytes","internalType":"bytes"}]},{"name":"ruleParams","type":"tuple[]","internalType":"struct KeyValue[]","components":[{"name":"key","type":"bytes32","internalType":"bytes32"},{"name":"value","type":"bytes","internalType":"bytes"}]}],"outputs":[],"stateMutability":"nonpayable"},{"type":"function","name":"processDeletePost","inputs":[{"name":"configSalt","type":"bytes32","internalType":"bytes32"},{"name":"postId","type":"uint256","internalType":"uint256"},{"name":"primitiveParams","type":"tuple[]","internalType":"struct KeyValue[]","components":[{"name":"key","type":"bytes32","internalType":"bytes32"},{"name":"value","type":"bytes","internalType":"bytes"}]},{"name":"ruleParams","type":"tuple[]","internalType":"struct KeyValue[]","components":[{"name":"key","type":"bytes32","internalType":"bytes32"},{"name":"value","type":"bytes","internalType":"bytes"}]}],"outputs":[],"stateMutability":"nonpayable"},{"type":"function","name":"processEditPost","inputs":[{"name":"configSalt","type":"bytes32","internalType":"bytes32"},{"name":"postId","type":"uint256","internalType":"uint256"},{"name":"postParams","type":"tuple","internalType":"struct EditPostParams","components":[{"name":"contentURI","type":"string","internalType":"string"},{"name":"extraData","type":"tuple[]","internalType":"struct KeyValue[]","components":[{"name":"key","type":"bytes32","internalType":"bytes32"},{"name":"value","type":"bytes","internalType":"bytes"}]}]},{"name":"primitiveParams","type":"tuple[]","internalType":"struct KeyValue[]","components":[{"name":"key","type":"bytes32","internalType":"bytes32"},{"name":"value","type":"bytes","internalType":"bytes"}]},{"name":"ruleParams","type":"tuple[]","internalType":"struct KeyValue[]","components":[{"name":"key","type":"bytes32","internalType":"bytes32"},{"name":"value","type":"bytes","internalType":"bytes"}]}],"outputs":[],"stateMutability":"nonpayable"},{"type":"function","name":"processPostRuleChanges","inputs":[{"name":"configSalt","type":"bytes32","internalType":"bytes32"},{"name":"postId","type":"uint256","internalType":"uint256"},{"name":"ruleChanges","type":"tuple[]","internalType":"struct RuleChange[]","components":[{"name":"ruleAddress","type":"address","internalType":"address"},{"name":"configSalt","type":"bytes32","internalType":"bytes32"},{"name":"configurationChanges","type":"tuple","internalType":"struct RuleConfigurationChange","components":[{"name":"configure","type":"bool","internalType":"bool"},{"name":"ruleParams","type":"tuple[]","internalType":"struct KeyValue[]","components":[{"name":"key","type":"bytes32","internalType":"bytes32"},{"name":"value","type":"bytes","internalType":"bytes"}]}]},{"name":"selectorChanges","type":"tuple[]","internalType":"struct RuleSelectorChange[]","components":[{"name":"ruleSelector","type":"bytes4","internalType":"bytes4"},{"name":"isRequired","type":"bool","internalType":"bool"},{"name":"enabled","type":"bool","internalType":"bool"}]}]},{"name":"ruleParams","type":"tuple[]","internalType":"struct KeyValue[]","components":[{"name":"key","type":"bytes32","internalType":"bytes32"},{"name":"value","type":"bytes","internalType":"bytes"}]}],"outputs":[],"stateMutability":"nonpayable"},{"type":"function","name":"setAdmin","inputs":[{"name":"admin","type":"address","internalType":"address"}],"outputs":[],"stateMutability":"nonpayable"},{"type":"error","name":"NotAdmin","inputs":[]},{"type":"error","name":"NotImplemented","inputs":[]}],"bytecode":{"object":"0x6080604052348015600e575f5ffd5b505f80546001600160a01b031916331790556104628061002d5f395ff3fe608060405234801561000f575f5ffd5b5060043610610060575f3560e01c80633bec06c614610064578063704b6c0214610079578063bfc1adfb1461008c578063c585084c1461009a578063f5579efd1461008c578063f8748c20146100ad575b5f5ffd5b610077610072366004610213565b6100c0565b005b6100776100873660046102da565b6100d9565b6100776100723660046102fc565b6100776100a836600461037e565b505050565b6100776100bb3660046103c6565b610124565b60405163d623472560e01b815260040160405180910390fd5b5f546001600160a01b0316331461010357604051637bfa4b9f60e01b815260040160405180910390fd5b5f80546001600160a01b0319166001600160a01b0392909216919091179055565b5f546001600160a01b031661013c60208701876102da565b6001600160a01b0316638da5cb5b6040518163ffffffff1660e01b8152600401602060405180830381865afa158015610177573d5f5f3e3d5ffd5b505050506040513d601f19601f8201168201806040525081019061019b9190610411565b6001600160a01b0316146101c257604051637bfa4b9f60e01b815260040160405180910390fd5b50505050505050565b5f5f83601f8401126101db575f5ffd5b50813567ffffffffffffffff8111156101f2575f5ffd5b6020830191508360208260051b850101111561020c575f5ffd5b9250929050565b5f5f5f5f5f5f5f60a0888a031215610229575f5ffd5b8735965060208801359550604088013567ffffffffffffffff81111561024d575f5ffd5b88016040818b03121561025e575f5ffd5b9450606088013567ffffffffffffffff811115610279575f5ffd5b6102858a828b016101cb565b909550935050608088013567ffffffffffffffff8111156102a4575f5ffd5b6102b08a828b016101cb565b989b979a50959850939692959293505050565b6001600160a01b03811681146102d7575f5ffd5b50565b5f602082840312156102ea575f5ffd5b81356102f5816102c3565b9392505050565b5f5f5f5f5f5f60808789031215610311575f5ffd5b8635955060208701359450604087013567ffffffffffffffff811115610335575f5ffd5b61034189828a016101cb565b909550935050606087013567ffffffffffffffff811115610360575f5ffd5b61036c89828a016101cb565b979a9699509497509295939492505050565b5f5f5f60408486031215610390575f5ffd5b83359250602084013567ffffffffffffffff8111156103ad575f5ffd5b6103b9868287016101cb565b9497909650939450505050565b5f5f5f5f5f5f5f60a0888a0312156103dc575f5ffd5b8735965060208801359550604088013567ffffffffffffffff811115610400575f5ffd5b880160e0818b03121561025e575f5ffd5b5f60208284031215610421575f5ffd5b81516102f5816102c356fea264697066735822122048a117e6245c0080885400a4df07740f9a9fc6c1e4176751a833f01605ba9a2564736f6c634300081c0033","linkReferences":{}},"methodIdentifiers":{"configure(bytes32,(bytes32,bytes)[])":"c585084c","processCreatePost(bytes32,uint256,(address,string,uint256,uint256,uint256,(address,bytes32,(bool,(bytes32,bytes)[]),(bytes4,bool,bool)[])[],(bytes32,bytes)[]),(bytes32,bytes)[],(bytes32,bytes)[])":"f8748c20","processDeletePost(bytes32,uint256,(bytes32,bytes)[],(bytes32,bytes)[])":"f5579efd","processEditPost(bytes32,uint256,(string,(bytes32,bytes)[]),(bytes32,bytes)[],(bytes32,bytes)[])":"3bec06c6","processPostRuleChanges(bytes32,uint256,(address,bytes32,(bool,(bytes32,bytes)[]),(bytes4,bool,bool)[])[],(bytes32,bytes)[])":"bfc1adfb","setAdmin(address)":"704b6c02"},"id":52}