{"abi":[{"type":"constructor","inputs":[],"stateMutability":"nonpayable"},{"type":"function","name":"approve","inputs":[{"name":"to","type":"address","internalType":"address"},{"name":"tokenId","type":"uint256","internalType":"uint256"}],"outputs":[],"stateMutability":"nonpayable"},{"type":"function","name":"balanceOf","inputs":[{"name":"owner","type":"address","internalType":"address"}],"outputs":[{"name":"","type":"uint256","internalType":"uint256"}],"stateMutability":"view"},{"type":"function","name":"getApproved","inputs":[{"name":"tokenId","type":"uint256","internalType":"uint256"}],"outputs":[{"name":"","type":"address","internalType":"address"}],"stateMutability":"view"},{"type":"function","name":"isApprovedForAll","inputs":[{"name":"owner","type":"address","internalType":"address"},{"name":"operator","type":"address","internalType":"address"}],"outputs":[{"name":"","type":"bool","internalType":"bool"}],"stateMutability":"view"},{"type":"function","name":"mint","inputs":[{"name":"to","type":"address","internalType":"address"},{"name":"amount","type":"uint256","internalType":"uint256"}],"outputs":[],"stateMutability":"nonpayable"},{"type":"function","name":"name","inputs":[],"outputs":[{"name":"","type":"string","internalType":"string"}],"stateMutability":"view"},{"type":"function","name":"ownerOf","inputs":[{"name":"tokenId","type":"uint256","internalType":"uint256"}],"outputs":[{"name":"","type":"address","internalType":"address"}],"stateMutability":"view"},{"type":"function","name":"safeTransferFrom","inputs":[{"name":"from","type":"address","internalType":"address"},{"name":"to","type":"address","internalType":"address"},{"name":"tokenId","type":"uint256","internalType":"uint256"}],"outputs":[],"stateMutability":"nonpayable"},{"type":"function","name":"safeTransferFrom","inputs":[{"name":"from","type":"address","internalType":"address"},{"name":"to","type":"address","internalType":"address"},{"name":"tokenId","type":"uint256","internalType":"uint256"},{"name":"data","type":"bytes","internalType":"bytes"}],"outputs":[],"stateMutability":"nonpayable"},{"type":"function","name":"setApprovalForAll","inputs":[{"name":"operator","type":"address","internalType":"address"},{"name":"approved","type":"bool","internalType":"bool"}],"outputs":[],"stateMutability":"nonpayable"},{"type":"function","name":"supportsInterface","inputs":[{"name":"interfaceId","type":"bytes4","internalType":"bytes4"}],"outputs":[{"name":"","type":"bool","internalType":"bool"}],"stateMutability":"view"},{"type":"function","name":"symbol","inputs":[],"outputs":[{"name":"","type":"string","internalType":"string"}],"stateMutability":"view"},{"type":"function","name":"tokenByIndex","inputs":[{"name":"index","type":"uint256","internalType":"uint256"}],"outputs":[{"name":"","type":"uint256","internalType":"uint256"}],"stateMutability":"view"},{"type":"function","name":"tokenOfOwnerByIndex","inputs":[{"name":"owner","type":"address","internalType":"address"},{"name":"index","type":"uint256","internalType":"uint256"}],"outputs":[{"name":"","type":"uint256","internalType":"uint256"}],"stateMutability":"view"},{"type":"function","name":"tokenURI","inputs":[{"name":"tokenId","type":"uint256","internalType":"uint256"}],"outputs":[{"name":"","type":"string","internalType":"string"}],"stateMutability":"view"},{"type":"function","name":"tokenURIs","inputs":[{"name":"","type":"uint256","internalType":"uint256"}],"outputs":[{"name":"","type":"string","internalType":"string"}],"stateMutability":"view"},{"type":"function","name":"totalSupply","inputs":[],"outputs":[{"name":"","type":"uint256","internalType":"uint256"}],"stateMutability":"view"},{"type":"function","name":"transferFrom","inputs":[{"name":"from","type":"address","internalType":"address"},{"name":"to","type":"address","internalType":"address"},{"name":"tokenId","type":"uint256","internalType":"uint256"}],"outputs":[],"stateMutability":"nonpayable"},{"type":"event","name":"Approval","inputs":[{"name":"owner","type":"address","indexed":true,"internalType":"address"},{"name":"approved","type":"address","indexed":true,"internalType":"address"},{"name":"tokenId","type":"uint256","indexed":true,"internalType":"uint256"}],"anonymous":false},{"type":"event","name":"ApprovalForAll","inputs":[{"name":"owner","type":"address","indexed":true,"internalType":"address"},{"name":"operator","type":"address","indexed":true,"internalType":"address"},{"name":"approved","type":"bool","indexed":false,"internalType":"bool"}],"anonymous":false},{"type":"event","name":"Transfer","inputs":[{"name":"from","type":"address","indexed":true,"internalType":"address"},{"name":"to","type":"address","indexed":true,"internalType":"address"},{"name":"tokenId","type":"uint256","indexed":true,"internalType":"uint256"}],"anonymous":false},{"type":"error","name":"ERC721EnumerableForbiddenBatchMint","inputs":[]},{"type":"error","name":"ERC721IncorrectOwner","inputs":[{"name":"sender","type":"address","internalType":"address"},{"name":"tokenId","type":"uint256","internalType":"uint256"},{"name":"owner","type":"address","internalType":"address"}]},{"type":"error","name":"ERC721InsufficientApproval","inputs":[{"name":"operator","type":"address","internalType":"address"},{"name":"tokenId","type":"uint256","internalType":"uint256"}]},{"type":"error","name":"ERC721InvalidApprover","inputs":[{"name":"approver","type":"address","internalType":"address"}]},{"type":"error","name":"ERC721InvalidOperator","inputs":[{"name":"operator","type":"address","internalType":"address"}]},{"type":"error","name":"ERC721InvalidOwner","inputs":[{"name":"owner","type":"address","internalType":"address"}]},{"type":"error","name":"ERC721InvalidReceiver","inputs":[{"name":"receiver","type":"address","internalType":"address"}]},{"type":"error","name":"ERC721InvalidSender","inputs":[{"name":"sender","type":"address","internalType":"address"}]},{"type":"error","name":"ERC721NonexistentToken","inputs":[{"name":"tokenId","type":"uint256","internalType":"uint256"}]},{"type":"error","name":"ERC721OutOfBoundsIndex","inputs":[{"name":"owner","type":"address","internalType":"address"},{"name":"index","type":"uint256","internalType":"uint256"}]}],"bytecode":{"object":"0x608060405234801561000f575f5ffd5b506040518060400160405280600a8152602001695465737445524337323160b01b81525060405180604001604052806004815260200163151154d560e21b815250815f908161005e9190610a08565b50600161006b8282610a08565b50505061007f3360016101eb60201b60201c565b61008a3360026101eb565b6100953360036101eb565b6100a03360046101eb565b604051806060016040528060358152602001611db96035913960015f52600a6020527fbbc70db1b6c7afd11e79c0fb0051300458f1a3acb8ee9789d9b6b26c61ad9bc7906100ee9082610a08565b50604051806060016040528060358152602001611dee6035913960025f52600a6020527fbff4442b8ed600beeb8e26b1279a0f0d14c6edfaec26d968ee13c86f7d4c2ba89061013d9082610a08565b50604051806060016040528060358152602001611db96035913960035f52600a6020527fa856840544dc26124927add067d799967eac11be13e14d82cc281ea46fa397599061018c9082610a08565b50604080518082019091526009815268191a5999995c995b9d60ba1b60208083019190915260045f52600a90527fe1eb2b2161a492c07c5a334e48012567cba93ec021043f53c1955516a3c5a841906101e59082610a08565b50610b91565b61020a828260405180602001604052805f81525061020e60201b60201c565b5050565b610218838361022a565b610225335f858585610290565b505050565b6001600160a01b03821661025857604051633250574960e11b81525f60048201526024015b60405180910390fd5b5f6102648383836103b8565b90506001600160a01b03811615610225576040516339e3563760e11b81525f600482015260240161024f565b6001600160a01b0383163b156103b157604051630a85bd0160e11b81526001600160a01b0384169063150b7a02906102d2908890889087908790600401610ac2565b6020604051808303815f875af192505050801561030c575060408051601f3d908101601f1916820190925261030991810190610b1c565b60015b610373573d808015610339576040519150601f19603f3d011682016040523d82523d5f602084013e61033e565b606091505b5080515f0361036b57604051633250574960e11b81526001600160a01b038516600482015260240161024f565b805181602001fd5b6001600160e01b03198116630a85bd0160e11b146103af57604051633250574960e11b81526001600160a01b038516600482015260240161024f565b505b5050505050565b5f806103c585858561048b565b90506001600160a01b0381166104215761041c84600880545f838152600960205260408120829055600182018355919091527ff3f7a9fe364faab93b216da50a3214154f22a0a2b415b23a84c8169e8b636ee30155565b610444565b846001600160a01b0316816001600160a01b03161461044457610444818561057d565b6001600160a01b0385166104605761045b846105fa565b610483565b846001600160a01b0316816001600160a01b0316146104835761048385856106a1565b949350505050565b5f828152600260205260408120546001600160a01b03908116908316156104b7576104b78184866106ef565b6001600160a01b038116156104f1576104d25f858180610753565b6001600160a01b0381165f90815260036020526040902080545f190190555b6001600160a01b0385161561051f576001600160a01b0385165f908152600360205260409020805460010190555b5f8481526002602052604080822080546001600160a01b0319166001600160a01b0389811691821790925591518793918516917fddf252ad1be2c89b69c2b068fc378daa952ba7f163c4a11628f55a4df523b3ef91a4949350505050565b5f61058783610875565b5f838152600760209081526040808320546001600160a01b03881684526006909252909120919250908183146105dc575f83815260208281526040808320548584528184208190558352600790915290208290555b5f938452600760209081526040808620869055938552525081205550565b6008545f9061060b90600190610b4a565b5f838152600960205260408120546008805493945090928490811061063257610632610b69565b905f5260205f2001549050806008838154811061065157610651610b69565b5f91825260208083209091019290925582815260099091526040808220849055858252812055600880548061068857610688610b7d565b600190038181905f5260205f20015f9055905550505050565b5f60016106ad84610875565b6106b79190610b4a565b6001600160a01b039093165f908152600660209081526040808320868452825280832085905593825260079052919091209190915550565b6106fa8383836108ba565b610225576001600160a01b03831661072857604051637e27328960e01b81526004810182905260240161024f565b60405163177e802f60e01b81526001600160a01b03831660048201526024810182905260440161024f565b808061076757506001600160a01b03821615155b15610846575f6107768461093a565b90506001600160a01b038316158015906107a25750826001600160a01b0316816001600160a01b031614155b80156107d357506001600160a01b038082165f9081526005602090815260408083209387168352929052205460ff16155b156107fc5760405163a9fbf51f60e01b81526001600160a01b038416600482015260240161024f565b81156108445783856001600160a01b0316826001600160a01b03167f8c5be1e5ebec7d5bd14f71427d1e84f3dd0314c0f7b2291e5b200ac8c7c3b92560405160405180910390a45b505b50505f90815260046020526040902080546001600160a01b0319166001600160a01b0392909216919091179055565b5f6001600160a01b03821661089f576040516322718ad960e21b81525f600482015260240161024f565b506001600160a01b03165f9081526003602052604090205490565b5f6001600160a01b038316158015906104835750826001600160a01b0316846001600160a01b0316148061091257506001600160a01b038085165f9081526005602090815260408083209387168352929052205460ff165b806104835750505f908152600460205260409020546001600160a01b03908116911614919050565b5f818152600260205260408120546001600160a01b03168061097257604051637e27328960e01b81526004810184905260240161024f565b92915050565b634e487b7160e01b5f52604160045260245ffd5b600181811c908216806109a057607f821691505b6020821081036109be57634e487b7160e01b5f52602260045260245ffd5b50919050565b601f82111561022557805f5260205f20601f840160051c810160208510156109e95750805b601f840160051c820191505b818110156103b1575f81556001016109f5565b81516001600160401b03811115610a2157610a21610978565b610a3581610a2f845461098c565b846109c4565b6020601f821160018114610a67575f8315610a505750848201515b5f19600385901b1c1916600184901b1784556103b1565b5f84815260208120601f198516915b82811015610a965787850151825560209485019460019092019101610a76565b5084821015610ab357868401515f19600387901b60f8161c191681555b50505050600190811b01905550565b60018060a01b038516815260018060a01b0384166020820152826040820152608060608201525f8251806080840152806020850160a085015e5f60a0828501015260a0601f19601f83011684010191505095945050505050565b5f60208284031215610b2c575f5ffd5b81516001600160e01b031981168114610b43575f5ffd5b9392505050565b8181038181111561097257634e487b7160e01b5f52601160045260245ffd5b634e487b7160e01b5f52603260045260245ffd5b634e487b7160e01b5f52603160045260245ffd5b61121b80610b9e5f395ff3fe608060405234801561000f575f5ffd5b5060043610610111575f3560e01c80634f6ccce71161009e57806395d89b411161006e57806395d89b411461023c578063a22cb46514610244578063b88d4fde14610257578063c87b56dd1461026a578063e985e9c51461027d575f5ffd5b80634f6ccce7146101f05780636352211e146102035780636c8b703f1461021657806370a0823114610229575f5ffd5b806318160ddd116100e457806318160ddd1461019257806323b872dd146101a45780632f745c59146101b757806340c10f19146101ca57806342842e0e146101dd575f5ffd5b806301ffc9a71461011557806306fdde031461013d578063081812fc14610152578063095ea7b31461017d575b5f5ffd5b610128610123366004610ea5565b610290565b60405190151581526020015b60405180910390f35b6101456102ba565b6040516101349190610ef5565b610165610160366004610f07565b610349565b6040516001600160a01b039091168152602001610134565b61019061018b366004610f39565b610370565b005b6008545b604051908152602001610134565b6101906101b2366004610f61565b61037f565b6101966101c5366004610f39565b61040d565b6101906101d8366004610f39565b610470565b6101906101eb366004610f61565b61047a565b6101966101fe366004610f07565b610499565b610165610211366004610f07565b6104ee565b610145610224366004610f07565b6104f8565b610196610237366004610f9b565b61058f565b6101456105d4565b610190610252366004610fb4565b6105e3565b610190610265366004611001565b6105ee565b610145610278366004610f07565b610606565b61012861028b3660046110de565b6106a5565b5f6001600160e01b0319821663780e9d6360e01b14806102b457506102b4826106d2565b92915050565b60605f80546102c89061110f565b80601f01602080910402602001604051908101604052809291908181526020018280546102f49061110f565b801561033f5780601f106103165761010080835404028352916020019161033f565b820191905f5260205f20905b81548152906001019060200180831161032257829003601f168201915b5050505050905090565b5f61035382610721565b505f828152600460205260409020546001600160a01b03166102b4565b61037b828233610759565b5050565b6001600160a01b0382166103ad57604051633250574960e11b81525f60048201526024015b60405180910390fd5b5f6103b9838333610766565b9050836001600160a01b0316816001600160a01b031614610407576040516364283d7b60e01b81526001600160a01b03808616600483015260248201849052821660448201526064016103a4565b50505050565b5f6104178361058f565b82106104485760405163295f44f760e21b81526001600160a01b0384166004820152602481018390526044016103a4565b506001600160a01b03919091165f908152600660209081526040808320938352929052205490565b61037b8282610839565b61049483838360405180602001604052805f8152506105ee565b505050565b5f6104a360085490565b82106104cb5760405163295f44f760e21b81525f6004820152602481018390526044016103a4565b600882815481106104de576104de611147565b905f5260205f2001549050919050565b5f6102b482610721565b600a6020525f9081526040902080546105109061110f565b80601f016020809104026020016040519081016040528092919081815260200182805461053c9061110f565b80156105875780601f1061055e57610100808354040283529160200191610587565b820191905f5260205f20905b81548152906001019060200180831161056a57829003601f168201915b505050505081565b5f6001600160a01b0382166105b9576040516322718ad960e21b81525f60048201526024016103a4565b506001600160a01b03165f9081526003602052604090205490565b6060600180546102c89061110f565b61037b33838361089a565b6105f984848461037f565b6104073385858585610938565b5f818152600a602052604090208054606091906106229061110f565b80601f016020809104026020016040519081016040528092919081815260200182805461064e9061110f565b80156106995780601f1061067057610100808354040283529160200191610699565b820191905f5260205f20905b81548152906001019060200180831161067c57829003601f168201915b50505050509050919050565b6001600160a01b039182165f90815260056020908152604080832093909416825291909152205460ff1690565b5f6001600160e01b031982166380ac58cd60e01b148061070257506001600160e01b03198216635b5e139f60e01b145b806102b457506301ffc9a760e01b6001600160e01b03198316146102b4565b5f818152600260205260408120546001600160a01b0316806102b457604051637e27328960e01b8152600481018490526024016103a4565b6104948383836001610a60565b5f5f610773858585610b64565b90506001600160a01b0381166107cf576107ca84600880545f838152600960205260408120829055600182018355919091527ff3f7a9fe364faab93b216da50a3214154f22a0a2b415b23a84c8169e8b636ee30155565b6107f2565b846001600160a01b0316816001600160a01b0316146107f2576107f28185610c56565b6001600160a01b03851661080e5761080984610cd3565b610831565b846001600160a01b0316816001600160a01b031614610831576108318585610d7a565b949350505050565b6001600160a01b03821661086257604051633250574960e11b81525f60048201526024016103a4565b5f61086e83835f610766565b90506001600160a01b03811615610494576040516339e3563760e11b81525f60048201526024016103a4565b6001600160a01b0382166108cc57604051630b61174360e31b81526001600160a01b03831660048201526024016103a4565b6001600160a01b038381165f81815260056020908152604080832094871680845294825291829020805460ff191686151590811790915591519182527f17307eab39ab6107e8899845ad3d59bd9653f200f220920489ca2b5937696c31910160405180910390a3505050565b6001600160a01b0383163b15610a5957604051630a85bd0160e11b81526001600160a01b0384169063150b7a029061097a90889088908790879060040161115b565b6020604051808303815f875af19250505080156109b4575060408051601f3d908101601f191682019092526109b191810190611197565b60015b610a1b573d8080156109e1576040519150601f19603f3d011682016040523d82523d5f602084013e6109e6565b606091505b5080515f03610a1357604051633250574960e11b81526001600160a01b03851660048201526024016103a4565b805181602001fd5b6001600160e01b03198116630a85bd0160e11b14610a5757604051633250574960e11b81526001600160a01b03851660048201526024016103a4565b505b5050505050565b8080610a7457506001600160a01b03821615155b15610b35575f610a8384610721565b90506001600160a01b03831615801590610aaf5750826001600160a01b0316816001600160a01b031614155b8015610ac25750610ac081846106a5565b155b15610aeb5760405163a9fbf51f60e01b81526001600160a01b03841660048201526024016103a4565b8115610b335783856001600160a01b0316826001600160a01b03167f8c5be1e5ebec7d5bd14f71427d1e84f3dd0314c0f7b2291e5b200ac8c7c3b92560405160405180910390a45b505b50505f90815260046020526040902080546001600160a01b0319166001600160a01b0392909216919091179055565b5f828152600260205260408120546001600160a01b0390811690831615610b9057610b90818486610dc8565b6001600160a01b03811615610bca57610bab5f855f5f610a60565b6001600160a01b0381165f90815260036020526040902080545f190190555b6001600160a01b03851615610bf8576001600160a01b0385165f908152600360205260409020805460010190555b5f8481526002602052604080822080546001600160a01b0319166001600160a01b0389811691821790925591518793918516917fddf252ad1be2c89b69c2b068fc378daa952ba7f163c4a11628f55a4df523b3ef91a4949350505050565b5f610c608361058f565b5f838152600760209081526040808320546001600160a01b0388168452600690925290912091925090818314610cb5575f83815260208281526040808320548584528184208190558352600790915290208290555b5f938452600760209081526040808620869055938552525081205550565b6008545f90610ce4906001906111b2565b5f8381526009602052604081205460088054939450909284908110610d0b57610d0b611147565b905f5260205f20015490508060088381548110610d2a57610d2a611147565b5f918252602080832090910192909255828152600990915260408082208490558582528120556008805480610d6157610d616111d1565b600190038181905f5260205f20015f9055905550505050565b5f6001610d868461058f565b610d9091906111b2565b6001600160a01b039093165f908152600660209081526040808320868452825280832085905593825260079052919091209190915550565b610dd3838383610e2c565b610494576001600160a01b038316610e0157604051637e27328960e01b8152600481018290526024016103a4565b60405163177e802f60e01b81526001600160a01b0383166004820152602481018290526044016103a4565b5f6001600160a01b038316158015906108315750826001600160a01b0316846001600160a01b03161480610e655750610e6584846106a5565b806108315750505f908152600460205260409020546001600160a01b03908116911614919050565b6001600160e01b031981168114610ea2575f5ffd5b50565b5f60208284031215610eb5575f5ffd5b8135610ec081610e8d565b9392505050565b5f81518084528060208401602086015e5f602082860101526020601f19601f83011685010191505092915050565b602081525f610ec06020830184610ec7565b5f60208284031215610f17575f5ffd5b5035919050565b80356001600160a01b0381168114610f34575f5ffd5b919050565b5f5f60408385031215610f4a575f5ffd5b610f5383610f1e565b946020939093013593505050565b5f5f5f60608486031215610f73575f5ffd5b610f7c84610f1e565b9250610f8a60208501610f1e565b929592945050506040919091013590565b5f60208284031215610fab575f5ffd5b610ec082610f1e565b5f5f60408385031215610fc5575f5ffd5b610fce83610f1e565b915060208301358015158114610fe2575f5ffd5b809150509250929050565b634e487b7160e01b5f52604160045260245ffd5b5f5f5f5f60808587031215611014575f5ffd5b61101d85610f1e565b935061102b60208601610f1e565b925060408501359150606085013567ffffffffffffffff81111561104d575f5ffd5b8501601f8101871361105d575f5ffd5b803567ffffffffffffffff81111561107757611077610fed565b604051601f8201601f19908116603f0116810167ffffffffffffffff811182821017156110a6576110a6610fed565b6040528181528282016020018910156110bd575f5ffd5b816020840160208301375f6020838301015280935050505092959194509250565b5f5f604083850312156110ef575f5ffd5b6110f883610f1e565b915061110660208401610f1e565b90509250929050565b600181811c9082168061112357607f821691505b60208210810361114157634e487b7160e01b5f52602260045260245ffd5b50919050565b634e487b7160e01b5f52603260045260245ffd5b6001600160a01b03858116825284166020820152604081018390526080606082018190525f9061118d90830184610ec7565b9695505050505050565b5f602082840312156111a7575f5ffd5b8151610ec081610e8d565b818103818111156102b457634e487b7160e01b5f52601160045260245ffd5b634e487b7160e01b5f52603160045260245ffdfea264697066735822122092c8e8f4ca134e4c64330a13141f556b33be202c2962461e9bc994f3cb2b139b64736f6c634300081c0033697066733a2f2f516d50733738657a526e527a587535706e44337a6b65535766464875595332627753377042707537793974533961697066733a2f2f516d636441586670724174776a576e59636a5746663275344e3334475275457a6b6279456666445a4b71356e636a","linkReferences":{}},"methodIdentifiers":{"approve(address,uint256)":"095ea7b3","balanceOf(address)":"70a08231","getApproved(uint256)":"081812fc","isApprovedForAll(address,address)":"e985e9c5","mint(address,uint256)":"40c10f19","name()":"06fdde03","ownerOf(uint256)":"6352211e","safeTransferFrom(address,address,uint256)":"42842e0e","safeTransferFrom(address,address,uint256,bytes)":"b88d4fde","setApprovalForAll(address,bool)":"a22cb465","supportsInterface(bytes4)":"01ffc9a7","symbol()":"95d89b41","tokenByIndex(uint256)":"4f6ccce7","tokenOfOwnerByIndex(address,uint256)":"2f745c59","tokenURI(uint256)":"c87b56dd","tokenURIs(uint256)":"6c8b703f","totalSupply()":"18160ddd","transferFrom(address,address,uint256)":"23b872dd"},"id":54}