{"abi":[{"type":"function","name":"checkMilestoneLogic","inputs":[{"name":"kqd","type":"address","internalType":"address"},{"name":"playerProfile","type":"address","internalType":"address"},{"name":"milestone","type":"uint256","internalType":"uint256"},{"name":"questId","type":"uint256","internalType":"uint256"},{"name":"videoPostId","type":"uint256","internalType":"uint256"}],"outputs":[],"stateMutability":"view"},{"type":"function","name":"freezeSetKinoraOpenAction","inputs":[{"name":"kinoraOpenActionAddress","type":"address","internalType":"address"}],"outputs":[],"stateMutability":"nonpayable"},{"type":"function","name":"kinoraOpenAction","inputs":[],"outputs":[{"name":"","type":"address","internalType":"contract KinoraOpenAction"}],"stateMutability":"view"},{"type":"function","name":"name","inputs":[],"outputs":[{"name":"","type":"string","internalType":"string"}],"stateMutability":"pure"},{"type":"function","name":"symbol","inputs":[],"outputs":[{"name":"","type":"string","internalType":"string"}],"stateMutability":"pure"},{"type":"error","name":"InvalidAddress","inputs":[]},{"type":"error","name":"MilestoneInvalid","inputs":[]}],"bytecode":{"object":"0x6080604052348015600e575f5ffd5b50612f418061001c5f395ff3fe608060405234801561000f575f5ffd5b5060043610610055575f3560e01c806306fdde03146100595780636a9fa5bd146100a457806395d89b41146100b9578063a1d2f568146100d9578063efa058f614610103575b5f5ffd5b60408051808201909152601981527f4b696e6f72614d696c6573746f6e65436865636b4c6f6769630000000000000060208201525b60405161009b9190612cb1565b60405180910390f35b6100b76100b2366004612cfd565b610116565b005b60408051808201909152600481526312d350d360e21b602082015261008e565b5f546100eb906001600160a01b031681565b6040516001600160a01b03909116815260200161009b565b6100b7610111366004612d4a565b6101d3565b604051630603f1d360e21b81526004810183905260248101849052604481018290525f906001600160a01b0387169063180fc74c906064015f60405180830381865afa158015610168573d5f5f3e3d5ffd5b505050506040513d5f823e601f3d908101601f1916820160405261018f9190810190612d80565b90506001815110156101ad576101a8868685878661021d565b6101cb565b5f6101ba828888866115ac565b90506101c98188868887611ff2565b505b505050505050565b5f546001600160a01b0316156101fc5760405163e6c4247b60e01b815260040160405180910390fd5b5f80546001600160a01b0319166001600160a01b0392909216919091179055565b60405163a899af2960e01b81526004810184905260248101839052604481018290526001600160a01b0386169063a899af2990606401602060405180830381865afa15801561026e573d5f5f3e3d5ffd5b505050506040513d601f19601f820116820180604052508101906102929190612e48565b604051637aa12d1b60e11b81526001600160a01b0387169063f5425a36906102c09088908690600401612e5f565b602060405180830381865afa1580156102db573d5f5f3e3d5ffd5b505050506040513d601f19601f820116820180604052508101906102ff9190612e48565b10806103ea5750604051632ab0505f60e21b81526004810184905260248101839052604481018290526001600160a01b0386169063aac1417c90606401602060405180830381865afa158015610357573d5f5f3e3d5ffd5b505050506040513d601f19601f8201168201806040525081019061037b9190612e48565b6040516330d5f10560e11b81526001600160a01b038716906361abe20a906103a99088908690600401612e5f565b602060405180830381865afa1580156103c4573d5f5f3e3d5ffd5b505050506040513d601f19601f820116820180604052508101906103e89190612e48565b105b806104d45750604051636f96169360e11b81526004810184905260248101839052604481018290526001600160a01b0386169063df2c2d2690606401602060405180830381865afa158015610441573d5f5f3e3d5ffd5b505050506040513d601f19601f820116820180604052508101906104659190612e48565b6040516303cb044960e41b81526001600160a01b03871690633cb04490906104939088908690600401612e5f565b602060405180830381865afa1580156104ae573d5f5f3e3d5ffd5b505050506040513d601f19601f820116820180604052508101906104d29190612e48565b105b806105be575060405163011e7b6f60e61b81526004810184905260248101839052604481018290526001600160a01b0386169063479edbc090606401602060405180830381865afa15801561052b573d5f5f3e3d5ffd5b505050506040513d601f19601f8201168201806040525081019061054f9190612e48565b60405163169cd2ff60e31b81526001600160a01b0387169063b4e697f89061057d9088908690600401612e5f565b602060405180830381865afa158015610598573d5f5f3e3d5ffd5b505050506040513d601f19601f820116820180604052508101906105bc9190612e48565b105b806106a85750604051632af508ab60e01b81526004810184905260248101839052604481018290526001600160a01b03861690632af508ab90606401602060405180830381865afa158015610615573d5f5f3e3d5ffd5b505050506040513d601f19601f820116820180604052508101906106399190612e48565b604051632fdef9d760e21b81526001600160a01b0387169063bf7be75c906106679088908690600401612e5f565b602060405180830381865afa158015610682573d5f5f3e3d5ffd5b505050506040513d601f19601f820116820180604052508101906106a69190612e48565b105b806107925750604051632585790360e01b81526004810184905260248101839052604481018290526001600160a01b03861690632585790390606401602060405180830381865afa1580156106ff573d5f5f3e3d5ffd5b505050506040513d601f19601f820116820180604052508101906107239190612e48565b6040516329d1d41360e21b81526001600160a01b0387169063a747504c906107519088908690600401612e5f565b602060405180830381865afa15801561076c573d5f5f3e3d5ffd5b505050506040513d601f19601f820116820180604052508101906107909190612e48565b105b8061087c575060405163579910cf60e01b81526004810184905260248101839052604481018290526001600160a01b0386169063579910cf90606401602060405180830381865afa1580156107e9573d5f5f3e3d5ffd5b505050506040513d601f19601f8201168201806040525081019061080d9190612e48565b6040516363840ac760e01b81526001600160a01b038716906363840ac79061083b9088908690600401612e5f565b602060405180830381865afa158015610856573d5f5f3e3d5ffd5b505050506040513d601f19601f8201168201806040525081019061087a9190612e48565b105b80610966575060405163ec746ff560e01b81526004810184905260248101839052604481018290526001600160a01b0386169063ec746ff590606401602060405180830381865afa1580156108d3573d5f5f3e3d5ffd5b505050506040513d601f19601f820116820180604052508101906108f79190612e48565b60405163c2f8c99960e01b81526001600160a01b0387169063c2f8c999906109259088908690600401612e5f565b602060405180830381865afa158015610940573d5f5f3e3d5ffd5b505050506040513d601f19601f820116820180604052508101906109649190612e48565b105b80610a505750604051631eb0f14f60e21b81526004810184905260248101839052604481018290526001600160a01b03861690637ac3c53c90606401602060405180830381865afa1580156109bd573d5f5f3e3d5ffd5b505050506040513d601f19601f820116820180604052508101906109e19190612e48565b604051635dc9bbcd60e01b81526001600160a01b03871690635dc9bbcd90610a0f9088908690600401612e5f565b602060405180830381865afa158015610a2a573d5f5f3e3d5ffd5b505050506040513d601f19601f82011682018060405250810190610a4e9190612e48565b105b80610b3a5750604051631d29e62760e21b81526004810184905260248101839052604481018290526001600160a01b038616906374a7989c90606401602060405180830381865afa158015610aa7573d5f5f3e3d5ffd5b505050506040513d601f19601f82011682018060405250810190610acb9190612e48565b604051636f43957760e11b81526001600160a01b0387169063de872aee90610af99088908690600401612e5f565b602060405180830381865afa158015610b14573d5f5f3e3d5ffd5b505050506040513d601f19601f82011682018060405250810190610b389190612e48565b105b80610c24575060405163af74f68560e01b81526004810184905260248101839052604481018290526001600160a01b0386169063af74f68590606401602060405180830381865afa158015610b91573d5f5f3e3d5ffd5b505050506040513d601f19601f82011682018060405250810190610bb59190612e48565b6040516371fc7d8b60e01b81526001600160a01b038716906371fc7d8b90610be39088908690600401612e5f565b602060405180830381865afa158015610bfe573d5f5f3e3d5ffd5b505050506040513d601f19601f82011682018060405250810190610c229190612e48565b105b80610d0e575060405163758effc360e11b81526004810184905260248101839052604481018290526001600160a01b0386169063eb1dff8690606401602060405180830381865afa158015610c7b573d5f5f3e3d5ffd5b505050506040513d601f19601f82011682018060405250810190610c9f9190612e48565b60405163730837ed60e11b81526001600160a01b0387169063e6106fda90610ccd9088908690600401612e5f565b602060405180830381865afa158015610ce8573d5f5f3e3d5ffd5b505050506040513d601f19601f82011682018060405250810190610d0c9190612e48565b105b80610df857506040516323e1006360e11b81526004810184905260248101839052604481018290526001600160a01b038616906347c200c690606401602060405180830381865afa158015610d65573d5f5f3e3d5ffd5b505050506040513d601f19601f82011682018060405250810190610d899190612e48565b60405163baa62ca360e01b81526001600160a01b0387169063baa62ca390610db79088908690600401612e5f565b602060405180830381865afa158015610dd2573d5f5f3e3d5ffd5b505050506040513d601f19601f82011682018060405250810190610df69190612e48565b105b15610e165760405163693be0ed60e01b815260040160405180910390fd5b6040516304fd790160e41b81526004810184905260248101839052604481018290526001600160a01b03861690634fd7901090606401602060405180830381865afa158015610e67573d5f5f3e3d5ffd5b505050506040513d601f19601f82011682018060405250810190610e8b9190612e78565b8015610f7b57506040516304fd790160e41b81526004810184905260248101839052604481018290526001600160a01b03861690634fd7901090606401602060405180830381865afa158015610ee3573d5f5f3e3d5ffd5b505050506040513d601f19601f82011682018060405250810190610f079190612e78565b1515856001600160a01b0316634dcbf77786846040518363ffffffff1660e01b8152600401610f37929190612e5f565b602060405180830381865afa158015610f52573d5f5f3e3d5ffd5b505050506040513d601f19601f82011682018060405250810190610f769190612e78565b151514155b15610f995760405163693be0ed60e01b815260040160405180910390fd5b60405163358814d560e21b81526004810184905260248101839052604481018290526001600160a01b0386169063d620535490606401602060405180830381865afa158015610fea573d5f5f3e3d5ffd5b505050506040513d601f19601f8201168201806040525081019061100e9190612e78565b80156110fe575060405163358814d560e21b81526004810184905260248101839052604481018290526001600160a01b0386169063d620535490606401602060405180830381865afa158015611066573d5f5f3e3d5ffd5b505050506040513d601f19601f8201168201806040525081019061108a9190612e78565b1515856001600160a01b0316631896931586846040518363ffffffff1660e01b81526004016110ba929190612e5f565b602060405180830381865afa1580156110d5573d5f5f3e3d5ffd5b505050506040513d601f19601f820116820180604052508101906110f99190612e78565b151514155b1561111c5760405163693be0ed60e01b815260040160405180910390fd5b604051632c585bc960e11b81526004810184905260248101839052604481018290526001600160a01b038616906358b0b79290606401602060405180830381865afa15801561116d573d5f5f3e3d5ffd5b505050506040513d601f19601f820116820180604052508101906111919190612e78565b80156112815750604051632c585bc960e11b81526004810184905260248101839052604481018290526001600160a01b038616906358b0b79290606401602060405180830381865afa1580156111e9573d5f5f3e3d5ffd5b505050506040513d601f19601f8201168201806040525081019061120d9190612e78565b1515856001600160a01b03166397fcd07886846040518363ffffffff1660e01b815260040161123d929190612e5f565b602060405180830381865afa158015611258573d5f5f3e3d5ffd5b505050506040513d601f19601f8201168201806040525081019061127c9190612e78565b151514155b1561129f5760405163693be0ed60e01b815260040160405180910390fd5b60405163137990d160e21b81526004810184905260248101839052604481018290526001600160a01b03861690634de6434490606401602060405180830381865afa1580156112f0573d5f5f3e3d5ffd5b505050506040513d601f19601f820116820180604052508101906113149190612e78565b8015611404575060405163137990d160e21b81526004810184905260248101839052604481018290526001600160a01b03861690634de6434490606401602060405180830381865afa15801561136c573d5f5f3e3d5ffd5b505050506040513d601f19601f820116820180604052508101906113909190612e78565b1515856001600160a01b0316633707bca886846040518363ffffffff1660e01b81526004016113c0929190612e5f565b602060405180830381865afa1580156113db573d5f5f3e3d5ffd5b505050506040513d601f19601f820116820180604052508101906113ff9190612e78565b151514155b156114225760405163693be0ed60e01b815260040160405180910390fd5b604051639129f43760e01b81526004810184905260248101839052604481018290526001600160a01b03861690639129f43790606401602060405180830381865afa158015611473573d5f5f3e3d5ffd5b505050506040513d601f19601f820116820180604052508101906114979190612e78565b80156115875750604051639129f43760e01b81526004810184905260248101839052604481018290526001600160a01b03861690639129f43790606401602060405180830381865afa1580156114ef573d5f5f3e3d5ffd5b505050506040513d601f19601f820116820180604052508101906115139190612e78565b1515856001600160a01b031663aef2d4fc86846040518363ffffffff1660e01b8152600401611543929190612e5f565b602060405180830381865afa15801561155e573d5f5f3e3d5ffd5b505050506040513d601f19601f820116820180604052508101906115829190612e78565b151514155b156115a55760405163693be0ed60e01b815260040160405180910390fd5b5050505050565b6115b4612c2e565b6115bc612c2e565b5f5b86518111611fe8575f875182036115d65750856116c5565b5f5488516001600160a01b039091169063150e0b1e908a90859081106115fe576115fe612e97565b60200260200101516040518263ffffffff1660e01b815260040161162491815260200190565b602060405180830381865afa15801561163f573d5f5f3e3d5ffd5b505050506040513d601f19601f820116820180604052508101906116639190612eab565b6001600160a01b03166391fbd02b6040518163ffffffff1660e01b8152600401602060405180830381865afa15801561169e573d5f5f3e3d5ffd5b505050506040513d601f19601f820116820180604052508101906116c29190612eab565b90505b604051637aa12d1b60e11b81526001600160a01b0382169063f5425a36906116f39089908990600401612e5f565b602060405180830381865afa15801561170e573d5f5f3e3d5ffd5b505050506040513d601f19601f820116820180604052508101906117329190612e48565b83518490611741908390612eda565b9052506040516330d5f10560e11b81526001600160a01b038216906361abe20a906117729089908990600401612e5f565b602060405180830381865afa15801561178d573d5f5f3e3d5ffd5b505050506040513d601f19601f820116820180604052508101906117b19190612e48565b836020018181516117c29190612eda565b90525060405163169cd2ff60e31b81526001600160a01b0382169063b4e697f8906117f39089908990600401612e5f565b602060405180830381865afa15801561180e573d5f5f3e3d5ffd5b505050506040513d601f19601f820116820180604052508101906118329190612e48565b836040018181516118439190612eda565b905250604051632fdef9d760e21b81526001600160a01b0382169063bf7be75c906118749089908990600401612e5f565b602060405180830381865afa15801561188f573d5f5f3e3d5ffd5b505050506040513d601f19601f820116820180604052508101906118b39190612e48565b836060018181516118c49190612eda565b9052506040516329d1d41360e21b81526001600160a01b0382169063a747504c906118f59089908990600401612e5f565b602060405180830381865afa158015611910573d5f5f3e3d5ffd5b505050506040513d601f19601f820116820180604052508101906119349190612e48565b836080018181516119459190612eda565b9052506040516363840ac760e01b81526001600160a01b038216906363840ac7906119769089908990600401612e5f565b602060405180830381865afa158015611991573d5f5f3e3d5ffd5b505050506040513d601f19601f820116820180604052508101906119b59190612e48565b8360a0018181516119c69190612eda565b90525060405163c2f8c99960e01b81526001600160a01b0382169063c2f8c999906119f79089908990600401612e5f565b602060405180830381865afa158015611a12573d5f5f3e3d5ffd5b505050506040513d601f19601f82011682018060405250810190611a369190612e48565b8360c001818151611a479190612eda565b905250604051635dc9bbcd60e01b81526001600160a01b03821690635dc9bbcd90611a789089908990600401612e5f565b602060405180830381865afa158015611a93573d5f5f3e3d5ffd5b505050506040513d601f19601f82011682018060405250810190611ab79190612e48565b8360e001818151611ac89190612eda565b905250604051636f43957760e11b81526001600160a01b0382169063de872aee90611af99089908990600401612e5f565b602060405180830381865afa158015611b14573d5f5f3e3d5ffd5b505050506040513d601f19601f82011682018060405250810190611b389190612e48565b8361010001818151611b4a9190612eda565b9052506040516371fc7d8b60e01b81526001600160a01b038216906371fc7d8b90611b7b9089908990600401612e5f565b602060405180830381865afa158015611b96573d5f5f3e3d5ffd5b505050506040513d601f19601f82011682018060405250810190611bba9190612e48565b8361012001818151611bcc9190612eda565b90525060405163730837ed60e11b81526001600160a01b0382169063e6106fda90611bfd9089908990600401612e5f565b602060405180830381865afa158015611c18573d5f5f3e3d5ffd5b505050506040513d601f19601f82011682018060405250810190611c3c9190612e48565b8361014001818151611c4e9190612eda565b90525060405163baa62ca360e01b81526001600160a01b0382169063baa62ca390611c7f9089908990600401612e5f565b602060405180830381865afa158015611c9a573d5f5f3e3d5ffd5b505050506040513d601f19601f82011682018060405250810190611cbe9190612e48565b8361016001818151611cd09190612eda565b9052506040516303cb044960e41b81526001600160a01b03821690633cb0449090611d019089908990600401612e5f565b602060405180830381865afa158015611d1c573d5f5f3e3d5ffd5b505050506040513d601f19601f82011682018060405250810190611d409190612e48565b8361018001818151611d529190612eda565b9052506101a0830151611dd5576040516306e0f79560e31b81526001600160a01b03821690633707bca890611d8d9089908990600401612e5f565b602060405180830381865afa158015611da8573d5f5f3e3d5ffd5b505050506040513d601f19601f82011682018060405250810190611dcc9190612e78565b15156101a08401525b826102200151611e55576040516312ff9a0f60e31b81526001600160a01b038216906397fcd07890611e0d9089908990600401612e5f565b602060405180830381865afa158015611e28573d5f5f3e3d5ffd5b505050506040513d601f19601f82011682018060405250810190611e4c9190612e78565b15156102208401525b826102000151611ed557604051634dcbf77760e01b81526001600160a01b03821690634dcbf77790611e8d9089908990600401612e5f565b602060405180830381865afa158015611ea8573d5f5f3e3d5ffd5b505050506040513d601f19601f82011682018060405250810190611ecc9190612e78565b15156102008401525b826101e00151611f5557604051631896931560e01b81526001600160a01b03821690631896931590611f0d9089908990600401612e5f565b602060405180830381865afa158015611f28573d5f5f3e3d5ffd5b505050506040513d601f19601f82011682018060405250810190611f4c9190612e78565b15156101e08401525b826101c00151611fd557604051632bbcb53f60e21b81526001600160a01b0382169063aef2d4fc90611f8d9089908990600401612e5f565b602060405180830381865afa158015611fa8573d5f5f3e3d5ffd5b505050506040513d601f19601f82011682018060405250810190611fcc9190612e78565b15156101c08401525b5080611fe081612ef3565b9150506115be565b5095945050505050565b60405163a899af2960e01b81526004810184905260248101839052604481018290526001600160a01b0385169063a899af2990606401602060405180830381865afa158015612043573d5f5f3e3d5ffd5b505050506040513d601f19601f820116820180604052508101906120679190612e48565b855110806120ec5750604051632ab0505f60e21b81526004810184905260248101839052604481018290526001600160a01b0385169063aac1417c90606401602060405180830381865afa1580156120c1573d5f5f3e3d5ffd5b505050506040513d601f19601f820116820180604052508101906120e59190612e48565b8560200151105b8061216f5750604051636f96169360e11b81526004810184905260248101839052604481018290526001600160a01b0385169063df2c2d2690606401602060405180830381865afa158015612143573d5f5f3e3d5ffd5b505050506040513d601f19601f820116820180604052508101906121679190612e48565b856101800151105b806121f1575060405163011e7b6f60e61b81526004810184905260248101839052604481018290526001600160a01b0385169063479edbc090606401602060405180830381865afa1580156121c6573d5f5f3e3d5ffd5b505050506040513d601f19601f820116820180604052508101906121ea9190612e48565b8560400151105b806122735750604051632af508ab60e01b81526004810184905260248101839052604481018290526001600160a01b03851690632af508ab90606401602060405180830381865afa158015612248573d5f5f3e3d5ffd5b505050506040513d601f19601f8201168201806040525081019061226c9190612e48565b8560600151105b806122f55750604051632585790360e01b81526004810184905260248101839052604481018290526001600160a01b03851690632585790390606401602060405180830381865afa1580156122ca573d5f5f3e3d5ffd5b505050506040513d601f19601f820116820180604052508101906122ee9190612e48565b8560800151105b80612377575060405163579910cf60e01b81526004810184905260248101839052604481018290526001600160a01b0385169063579910cf90606401602060405180830381865afa15801561234c573d5f5f3e3d5ffd5b505050506040513d601f19601f820116820180604052508101906123709190612e48565b8560a00151105b806123f9575060405163ec746ff560e01b81526004810184905260248101839052604481018290526001600160a01b0385169063ec746ff590606401602060405180830381865afa1580156123ce573d5f5f3e3d5ffd5b505050506040513d601f19601f820116820180604052508101906123f29190612e48565b8560c00151105b8061247b5750604051631eb0f14f60e21b81526004810184905260248101839052604481018290526001600160a01b03851690637ac3c53c90606401602060405180830381865afa158015612450573d5f5f3e3d5ffd5b505050506040513d601f19601f820116820180604052508101906124749190612e48565b8560e00151105b806124fe5750604051631d29e62760e21b81526004810184905260248101839052604481018290526001600160a01b038516906374a7989c90606401602060405180830381865afa1580156124d2573d5f5f3e3d5ffd5b505050506040513d601f19601f820116820180604052508101906124f69190612e48565b856101000151105b80612581575060405163af74f68560e01b81526004810184905260248101839052604481018290526001600160a01b0385169063af74f68590606401602060405180830381865afa158015612555573d5f5f3e3d5ffd5b505050506040513d601f19601f820116820180604052508101906125799190612e48565b856101200151105b80612604575060405163758effc360e11b81526004810184905260248101839052604481018290526001600160a01b0385169063eb1dff8690606401602060405180830381865afa1580156125d8573d5f5f3e3d5ffd5b505050506040513d601f19601f820116820180604052508101906125fc9190612e48565b856101400151105b8061268757506040516323e1006360e11b81526004810184905260248101839052604481018290526001600160a01b038516906347c200c690606401602060405180830381865afa15801561265b573d5f5f3e3d5ffd5b505050506040513d601f19601f8201168201806040525081019061267f9190612e48565b856101600151105b156126a55760405163693be0ed60e01b815260040160405180910390fd5b6040516304fd790160e41b81526004810184905260248101839052604481018290526001600160a01b03851690634fd7901090606401602060405180830381865afa1580156126f6573d5f5f3e3d5ffd5b505050506040513d601f19601f8201168201806040525081019061271a9190612e78565b80156127a357506040516304fd790160e41b81526004810184905260248101839052604481018290526001600160a01b03851690634fd7901090606401602060405180830381865afa158015612772573d5f5f3e3d5ffd5b505050506040513d601f19601f820116820180604052508101906127969190612e78565b1515856102000151151514155b156127c15760405163693be0ed60e01b815260040160405180910390fd5b60405163358814d560e21b81526004810184905260248101839052604481018290526001600160a01b0385169063d620535490606401602060405180830381865afa158015612812573d5f5f3e3d5ffd5b505050506040513d601f19601f820116820180604052508101906128369190612e78565b80156128bf575060405163358814d560e21b81526004810184905260248101839052604481018290526001600160a01b0385169063d620535490606401602060405180830381865afa15801561288e573d5f5f3e3d5ffd5b505050506040513d601f19601f820116820180604052508101906128b29190612e78565b1515856101e00151151514155b156128dd5760405163693be0ed60e01b815260040160405180910390fd5b604051632c585bc960e11b81526004810184905260248101839052604481018290526001600160a01b038516906358b0b79290606401602060405180830381865afa15801561292e573d5f5f3e3d5ffd5b505050506040513d601f19601f820116820180604052508101906129529190612e78565b80156129db5750604051632c585bc960e11b81526004810184905260248101839052604481018290526001600160a01b038516906358b0b79290606401602060405180830381865afa1580156129aa573d5f5f3e3d5ffd5b505050506040513d601f19601f820116820180604052508101906129ce9190612e78565b1515856102200151151514155b156129f95760405163693be0ed60e01b815260040160405180910390fd5b60405163137990d160e21b81526004810184905260248101839052604481018290526001600160a01b03851690634de6434490606401602060405180830381865afa158015612a4a573d5f5f3e3d5ffd5b505050506040513d601f19601f82011682018060405250810190612a6e9190612e78565b8015612af7575060405163137990d160e21b81526004810184905260248101839052604481018290526001600160a01b03851690634de6434490606401602060405180830381865afa158015612ac6573d5f5f3e3d5ffd5b505050506040513d601f19601f82011682018060405250810190612aea9190612e78565b1515856101a00151151514155b15612b155760405163693be0ed60e01b815260040160405180910390fd5b604051639129f43760e01b81526004810184905260248101839052604481018290526001600160a01b03851690639129f43790606401602060405180830381865afa158015612b66573d5f5f3e3d5ffd5b505050506040513d601f19601f82011682018060405250810190612b8a9190612e78565b80156115875750604051639129f43760e01b81526004810184905260248101839052604481018290526001600160a01b03851690639129f43790606401602060405180830381865afa158015612be2573d5f5f3e3d5ffd5b505050506040513d601f19601f82011682018060405250810190612c069190612e78565b1515856101c001511515146115a55760405163693be0ed60e01b815260040160405180910390fd5b6040518061024001604052805f81526020015f81526020015f81526020015f81526020015f81526020015f81526020015f81526020015f81526020015f81526020015f81526020015f81526020015f81526020015f81526020015f151581526020015f151581526020015f151581526020015f151581526020015f151581525090565b602081525f82518060208401528060208501604085015e5f604082850101526040601f19601f83011684010191505092915050565b6001600160a01b0381168114612cfa575f5ffd5b50565b5f5f5f5f5f60a08688031215612d11575f5ffd5b8535612d1c81612ce6565b94506020860135612d2c81612ce6565b94979496505050506040830135926060810135926080909101359150565b5f60208284031215612d5a575f5ffd5b8135612d6581612ce6565b9392505050565b634e487b7160e01b5f52604160045260245ffd5b5f60208284031215612d90575f5ffd5b815167ffffffffffffffff811115612da6575f5ffd5b8201601f81018413612db6575f5ffd5b805167ffffffffffffffff811115612dd057612dd0612d6c565b8060051b604051601f19603f830116810181811067ffffffffffffffff82111715612dfd57612dfd612d6c565b604052918252602081840181019290810187841115612e1a575f5ffd5b6020850194505b83851015612e3d57845180825260209586019590935001612e21565b509695505050505050565b5f60208284031215612e58575f5ffd5b5051919050565b6001600160a01b03929092168252602082015260400190565b5f60208284031215612e88575f5ffd5b81518015158114612d65575f5ffd5b634e487b7160e01b5f52603260045260245ffd5b5f60208284031215612ebb575f5ffd5b8151612d6581612ce6565b634e487b7160e01b5f52601160045260245ffd5b80820180821115612eed57612eed612ec6565b92915050565b5f60018201612f0457612f04612ec6565b506001019056fea2646970667358221220c7122c87ce89f1eaa80181c01d4bcdc40beb4830395180a7da6a740b0efd619864736f6c634300081c0033","linkReferences":{}},"methodIdentifiers":{"checkMilestoneLogic(address,address,uint256,uint256,uint256)":"6a9fa5bd","freezeSetKinoraOpenAction(address)":"efa058f6","kinoraOpenAction()":"a1d2f568","name()":"06fdde03","symbol()":"95d89b41"},"id":42}