{"abi":[{"type":"function","name":"addPlayerMetrics","inputs":[{"name":"metrics","type":"tuple","internalType":"struct KinoraLibrary.PlayerVideoMetrics","components":[{"name":"mostReplayedArea","type":"string","internalType":"string"},{"name":"postId","type":"uint256","internalType":"uint256"},{"name":"playCount","type":"uint256","internalType":"uint256"},{"name":"secondaryQuoteOnQuote","type":"uint256","internalType":"uint256"},{"name":"secondaryMirrorOnQuote","type":"uint256","internalType":"uint256"},{"name":"secondaryReactOnQuote","type":"uint256","internalType":"uint256"},{"name":"secondaryCommentOnQuote","type":"uint256","internalType":"uint256"},{"name":"secondaryCollectOnQuote","type":"uint256","internalType":"uint256"},{"name":"secondaryQuoteOnComment","type":"uint256","internalType":"uint256"},{"name":"secondaryMirrorOnComment","type":"uint256","internalType":"uint256"},{"name":"secondaryReactOnComment","type":"uint256","internalType":"uint256"},{"name":"secondaryCommentOnComment","type":"uint256","internalType":"uint256"},{"name":"secondaryCollectOnComment","type":"uint256","internalType":"uint256"},{"name":"avd","type":"uint256","internalType":"uint256"},{"name":"duration","type":"uint256","internalType":"uint256"},{"name":"hasQuoted","type":"bool","internalType":"bool"},{"name":"hasMirrored","type":"bool","internalType":"bool"},{"name":"hasCommented","type":"bool","internalType":"bool"},{"name":"hasBookmarked","type":"bool","internalType":"bool"},{"name":"hasReacted","type":"bool","internalType":"bool"}]}],"outputs":[],"stateMutability":"nonpayable"},{"type":"function","name":"initialize","inputs":[{"name":"kinoraAccessAddress","type":"address","internalType":"address"},{"name":"kinoraQuestDataAddress","type":"address","internalType":"address"}],"outputs":[],"stateMutability":"nonpayable"},{"type":"function","name":"kinoraAccess","inputs":[],"outputs":[{"name":"","type":"address","internalType":"contract KinoraAccessControl"}],"stateMutability":"view"},{"type":"function","name":"kinoraQuestData","inputs":[],"outputs":[{"name":"","type":"address","internalType":"contract KinoraQuestData"}],"stateMutability":"view"},{"type":"function","name":"name","inputs":[],"outputs":[{"name":"","type":"string","internalType":"string"}],"stateMutability":"pure"},{"type":"function","name":"playerEligibleToClaimMilestone","inputs":[{"name":"playerProfile","type":"address","internalType":"address"},{"name":"questId","type":"uint256","internalType":"uint256"},{"name":"milestone","type":"uint256","internalType":"uint256"},{"name":"eligibility","type":"bool","internalType":"bool"}],"outputs":[],"stateMutability":"nonpayable"},{"type":"function","name":"setKinoraAccess","inputs":[{"name":"newAccessContract","type":"address","internalType":"address"}],"outputs":[],"stateMutability":"nonpayable"},{"type":"function","name":"setKinoraQuestData","inputs":[{"name":"newQuestDataContract","type":"address","internalType":"address"}],"outputs":[],"stateMutability":"nonpayable"},{"type":"function","name":"symbol","inputs":[],"outputs":[{"name":"","type":"string","internalType":"string"}],"stateMutability":"pure"},{"type":"event","name":"AddPlayerMetrics","inputs":[{"name":"playerProfile","type":"address","indexed":false,"internalType":"address"},{"name":"videoPostId","type":"uint256","indexed":false,"internalType":"uint256"}],"anonymous":false},{"type":"event","name":"Initialized","inputs":[{"name":"version","type":"uint64","indexed":false,"internalType":"uint64"}],"anonymous":false},{"type":"event","name":"PlayerEligibleToClaimMilestone","inputs":[{"name":"playerProfile","type":"address","indexed":false,"internalType":"address"},{"name":"questId","type":"uint256","indexed":false,"internalType":"uint256"},{"name":"milestone","type":"uint256","indexed":false,"internalType":"uint256"}],"anonymous":false},{"type":"error","name":"AlreadyInitialized","inputs":[]},{"type":"error","name":"InvalidAddress","inputs":[]},{"type":"error","name":"InvalidInitialization","inputs":[]},{"type":"error","name":"NotInitializing","inputs":[]},{"type":"error","name":"PlayerNotEligible","inputs":[]}],"bytecode":{"object":"0x6080604052348015600e575f5ffd5b50610c7d8061001c5f395ff3fe608060405234801561000f575f5ffd5b5060043610610090575f3560e01c80637df8feb9116100635780637df8feb91461012257806395d89b4114610135578063a84bb71b14610154578063e2839eb314610167578063ea89852814610179575f5ffd5b806306fdde031461009457806326dc20f4146100cf578063349f4815146100fa578063485cc9551461010f575b5f5ffd5b60408051808201909152600d81526c4b696e6f72614d65747269637360981b60208201525b6040516100c691906107ca565b60405180910390f35b6001546100e2906001600160a01b031681565b6040516001600160a01b0390911681526020016100c6565b61010d6101083660046108cc565b61018c565b005b61010d61011d366004610a3f565b61039a565b61010d610130366004610a76565b6104f7565b6040805180820190915260038152624b4d4560e81b60208201526100b9565b61010d610162366004610abd565b61064f565b5f546100e2906001600160a01b031681565b61010d610187366004610abd565b6106f5565b6001546040516393247b4360e01b81523360048201525f916001600160a01b0316906393247b4390602401602060405180830381865afa1580156101d2573d5f5f3e3d5ffd5b505050506040513d601f19601f820116820180604052508101906101f69190610ad8565b600154604051635bd6e32360e01b81526001600160a01b038084166004830152929350911690635bd6e32390602401602060405180830381865afa158015610240573d5f5f3e3d5ffd5b505050506040513d601f19601f820116820180604052508101906102649190610af3565b5f03610283576040516313fee0df60e21b815260040160405180910390fd5b6001546040516393247b4360e01b81523360048201525f916001600160a01b0316906393247b4390602401602060405180830381865afa1580156102c9573d5f5f3e3d5ffd5b505050506040513d601f19601f820116820180604052508101906102ed9190610ad8565b600154604051638ac83eb960e01b81529192506001600160a01b031690638ac83eb9906103209086908590600401610b0a565b5f604051808303815f87803b158015610337575f5ffd5b505af1158015610349573d5f5f3e3d5ffd5b505050602080850151604080516001600160a01b0386168152928301919091527f733def1f270eaaa111b264d07d2ddf7df518e2aa42cad46e580f45c9147bd73f92500160405180910390a1505050565b7ff0c57e16840df040f15088dc2f81fe391c3923bec73e23a9662efc9c229c6a008054600160401b810460ff16159067ffffffffffffffff165f811580156103df5750825b90505f8267ffffffffffffffff1660011480156103fb5750303b155b905081158015610409575080155b156104275760405163f92ee8a960e01b815260040160405180910390fd5b845467ffffffffffffffff19166001178555831561045157845460ff60401b1916600160401b1785555b5f546001600160a01b0316156104795760405162dc149f60e41b815260040160405180910390fd5b5f80546001600160a01b03808a166001600160a01b031992831617909255600180549289169290911691909117905583156104ee57845460ff60401b19168555604051600181527fc7f505b2f371ae2175ee4913f4499e1f2633a7b5936321eed1cdaeb6115181d29060200160405180910390a15b50505050505050565b6001546040516355754d4360e11b815260048101859052849133916001600160a01b039091169063aaea9a8690602401602060405180830381865afa158015610542573d5f5f3e3d5ffd5b505050506040513d601f19601f820116820180604052508101906105669190610ad8565b6001600160a01b03161461058d5760405163e6c4247b60e01b815260040160405180910390fd5b600154604051634a43601560e01b81526001600160a01b0387811660048301526024820187905260448201869052841515606483015290911690634a436015906084015f604051808303815f87803b1580156105e7575f5ffd5b505af11580156105f9573d5f5f3e3d5ffd5b5050604080516001600160a01b0389168152602081018890529081018690527f8e3b1c05118d88b7c6887b88e5558509d57649eaeb3b6192be532b132a3bc89b9250606001905060405180910390a15050505050565b5f5460405162a08cef60e31b81523360048201526001600160a01b0390911690630504677890602401602060405180830381865afa158015610693573d5f5f3e3d5ffd5b505050506040513d601f19601f820116820180604052508101906106b79190610c2c565b6106d45760405163e6c4247b60e01b815260040160405180910390fd5b5f80546001600160a01b0319166001600160a01b0392909216919091179055565b5f5460405162a08cef60e31b81523360048201526001600160a01b0390911690630504677890602401602060405180830381865afa158015610739573d5f5f3e3d5ffd5b505050506040513d601f19601f8201168201806040525081019061075d9190610c2c565b61077a5760405163e6c4247b60e01b815260040160405180910390fd5b600180546001600160a01b0319166001600160a01b0392909216919091179055565b5f81518084528060208401602086015e5f602082860101526020601f19601f83011685010191505092915050565b602081525f6107dc602083018461079c565b9392505050565b634e487b7160e01b5f52604160045260245ffd5b604051610280810167ffffffffffffffff8111828210171561081b5761081b6107e3565b60405290565b5f82601f830112610830575f5ffd5b813567ffffffffffffffff81111561084a5761084a6107e3565b604051601f8201601f19908116603f0116810167ffffffffffffffff81118282101715610879576108796107e3565b604052818152838201602001851015610890575f5ffd5b816020850160208301375f918101602001919091529392505050565b80151581146108b9575f5ffd5b50565b80356108c7816108ac565b919050565b5f602082840312156108dc575f5ffd5b813567ffffffffffffffff8111156108f2575f5ffd5b82016102808185031215610904575f5ffd5b61090c6107f7565b813567ffffffffffffffff811115610922575f5ffd5b61092e86828501610821565b8252506020828101359082015260408083013590820152606080830135908201526080808301359082015260a0808301359082015260c0808301359082015260e08083013590820152610100808301359082015261012080830135908201526101408083013590820152610160808301359082015261018080830135908201526101a080830135908201526101c080830135908201526109d16101e083016108bc565b6101e08201526109e461020083016108bc565b6102008201526109f761022083016108bc565b610220820152610a0a61024083016108bc565b610240820152610a1d61026083016108bc565b610260820152949350505050565b6001600160a01b03811681146108b9575f5ffd5b5f5f60408385031215610a50575f5ffd5b8235610a5b81610a2b565b91506020830135610a6b81610a2b565b809150509250929050565b5f5f5f5f60808587031215610a89575f5ffd5b8435610a9481610a2b565b935060208501359250604085013591506060850135610ab2816108ac565b939692955090935050565b5f60208284031215610acd575f5ffd5b81356107dc81610a2b565b5f60208284031215610ae8575f5ffd5b81516107dc81610a2b565b5f60208284031215610b03575f5ffd5b5051919050565b604081525f83516102806040840152610b276102c084018261079c565b90506020850151606084015260408501516080840152606085015160a0840152608085015160c084015260a085015160e084015260c085015161010084015260e08501516101208401526101008501516101408401526101208501516101608401526101408501516101808401526101608501516101a08401526101808501516101c08401526101a08501516101e08401526101c08501516102008401526101e0850151610bda61022085018215159052565b5061020085015115156102408481019190915261022086015115156102608086019190915290860151151561028085015285015115156102a08401526001600160a01b038416602084015290506107dc565b5f60208284031215610c3c575f5ffd5b81516107dc816108ac56fea26469706673582212205d2703f3f22092d0e5c4331be95e80514d0b7f431695b142f532e418a34f73ad64736f6c634300081c0033","linkReferences":{}},"methodIdentifiers":{"addPlayerMetrics((string,uint256,uint256,uint256,uint256,uint256,uint256,uint256,uint256,uint256,uint256,uint256,uint256,uint256,uint256,bool,bool,bool,bool,bool))":"349f4815","initialize(address,address)":"485cc955","kinoraAccess()":"e2839eb3","kinoraQuestData()":"26dc20f4","name()":"06fdde03","playerEligibleToClaimMilestone(address,uint256,uint256,bool)":"7df8feb9","setKinoraAccess(address)":"a84bb71b","setKinoraQuestData(address)":"ea898528","symbol()":"95d89b41"},"id":43}