{"abi":[{"type":"constructor","inputs":[{"name":"actionHub","type":"address","internalType":"address"},{"name":"_kinoraMilestoneCheckLogic","type":"address","internalType":"address"}],"stateMutability":"nonpayable"},{"type":"function","name":"configure","inputs":[{"name":"originalMsgSender","type":"address","internalType":"address"},{"name":"feed","type":"address","internalType":"address"},{"name":"postId","type":"uint256","internalType":"uint256"},{"name":"params","type":"tuple[]","internalType":"struct KeyValue[]","components":[{"name":"key","type":"bytes32","internalType":"bytes32"},{"name":"value","type":"bytes","internalType":"bytes"}]}],"outputs":[{"name":"","type":"bytes","internalType":"bytes"}],"stateMutability":"nonpayable"},{"type":"function","name":"execute","inputs":[{"name":"originalMsgSender","type":"address","internalType":"address"},{"name":"feed","type":"address","internalType":"address"},{"name":"postId","type":"uint256","internalType":"uint256"},{"name":"params","type":"tuple[]","internalType":"struct KeyValue[]","components":[{"name":"key","type":"bytes32","internalType":"bytes32"},{"name":"value","type":"bytes","internalType":"bytes"}]}],"outputs":[{"name":"","type":"bytes","internalType":"bytes"}],"stateMutability":"nonpayable"},{"type":"function","name":"getContractFactoryId","inputs":[{"name":"postId","type":"uint256","internalType":"uint256"}],"outputs":[{"name":"","type":"uint256","internalType":"uint256"}],"stateMutability":"view"},{"type":"function","name":"getContractFactoryMap","inputs":[{"name":"factoryId","type":"uint256","internalType":"uint256"}],"outputs":[{"name":"","type":"address","internalType":"address"}],"stateMutability":"view"},{"type":"function","name":"getKinoraMilestoneCheckLogicAddress","inputs":[],"outputs":[{"name":"","type":"address","internalType":"address"}],"stateMutability":"view"},{"type":"function","name":"getQuestId","inputs":[{"name":"factoryId","type":"uint256","internalType":"uint256"},{"name":"postId","type":"uint256","internalType":"uint256"}],"outputs":[{"name":"","type":"uint256","internalType":"uint256"}],"stateMutability":"view"},{"type":"function","name":"getTotalContractFactoryCount","inputs":[],"outputs":[{"name":"","type":"uint256","internalType":"uint256"}],"stateMutability":"view"},{"type":"function","name":"setDisabled","inputs":[{"name":"originalMsgSender","type":"address","internalType":"address"},{"name":"feed","type":"address","internalType":"address"},{"name":"postId","type":"uint256","internalType":"uint256"},{"name":"isDisabled","type":"bool","internalType":"bool"},{"name":"params","type":"tuple[]","internalType":"struct KeyValue[]","components":[{"name":"key","type":"bytes32","internalType":"bytes32"},{"name":"value","type":"bytes","internalType":"bytes"}]}],"outputs":[{"name":"","type":"bytes","internalType":"bytes"}],"stateMutability":"nonpayable"},{"type":"event","name":"NewFactoryDeployment","inputs":[{"name":"kac","type":"address","indexed":false,"internalType":"address"},{"name":"ke","type":"address","indexed":false,"internalType":"address"},{"name":"kqd","type":"address","indexed":false,"internalType":"address"},{"name":"km","type":"address","indexed":false,"internalType":"address"},{"name":"knc","type":"address","indexed":false,"internalType":"address"}],"anonymous":false},{"type":"event","name":"PlayerCompletedMilestone","inputs":[{"name":"playerAddress","type":"address","indexed":false,"internalType":"address"},{"name":"questId","type":"uint256","indexed":false,"internalType":"uint256"},{"name":"milestoneId","type":"uint256","indexed":false,"internalType":"uint256"}],"anonymous":false},{"type":"event","name":"PlayerCompletedQuest","inputs":[{"name":"envokerAddress","type":"address","indexed":false,"internalType":"address"},{"name":"questId","type":"uint256","indexed":false,"internalType":"uint256"},{"name":"postId","type":"uint256","indexed":false,"internalType":"uint256"}],"anonymous":false},{"type":"event","name":"PlayerJoinedQuest","inputs":[{"name":"playerProfile","type":"address","indexed":false,"internalType":"address"},{"name":"questId","type":"uint256","indexed":false,"internalType":"uint256"}],"anonymous":false},{"type":"event","name":"QuestInitialized","inputs":[{"name":"envokerAddress","type":"address","indexed":false,"internalType":"address"},{"name":"questId","type":"uint256","indexed":false,"internalType":"uint256"},{"name":"postId","type":"uint256","indexed":false,"internalType":"uint256"}],"anonymous":false},{"type":"error","name":"InvalidAddress","inputs":[]},{"type":"error","name":"InvalidContract","inputs":[]},{"type":"error","name":"InvalidMsgSender","inputs":[]},{"type":"error","name":"InvalidRewardAmount","inputs":[]},{"type":"error","name":"KeyNotFound","inputs":[]},{"type":"error","name":"MaxPlayerCountReached","inputs":[]},{"type":"error","name":"PlayerNotEligible","inputs":[]},{"type":"error","name":"QuestClosed","inputs":[]},{"type":"error","name":"QuestDoesntExist","inputs":[]}],"bytecode":{"object":"0x60a060405234801561000f575f5ffd5b5060405161da5d38038061da5d83398101604081905261002e91610073565b6001600160a01b039182166080525f80546001600160a01b031916919092161781556001556100a4565b80516001600160a01b038116811461006e575f5ffd5b919050565b5f5f60408385031215610084575f5ffd5b61008d83610058565b915061009b60208401610058565b90509250929050565b60805161d9936100ca5f395f8181610179015281816101dd0152610261015261d9935ff3fe608060405234801561000f575f5ffd5b5060043610610085575f3560e01c806389399c6d1161005857806389399c6d14610123578063a316dee514610136578063b9d62c1614610149578063f6fa4faf1461015c575f5ffd5b8063150e0b1e14610089578063219352cb146100ce5780634daa3e88146100fb5780636582221314610103575b5f5ffd5b6100b1610097366004612d50565b5f908152600460205260409020546001600160a01b031690565b6040516001600160a01b0390911681526020015b60405180910390f35b6100ed6100dc366004612d50565b5f9081526003602052604090205490565b6040519081526020016100c5565b6001546100ed565b610116610111366004612dc2565b61016c565b6040516100c59190612e5d565b610116610131366004612e7c565b6101d0565b6100ed610144366004612efb565b610234565b610116610157366004612dc2565b610254565b5f546001600160a01b03166100b1565b6060336001600160a01b037f000000000000000000000000000000000000000000000000000000000000000016146101b757604051633bfe162b60e01b815260040160405180910390fd5b6101c486868686866102ac565b90505b95945050505050565b6060336001600160a01b037f0000000000000000000000000000000000000000000000000000000000000000161461021b57604051633bfe162b60e01b815260040160405180910390fd5b6102298787878787876107a0565b979650505050505050565b5f8281526002602090815260408083208484529091529020545b92915050565b6060336001600160a01b037f0000000000000000000000000000000000000000000000000000000000000000161461029f57604051633bfe162b60e01b815260040160405180910390fd5b6101c486868686866109bd565b5f8381526003602090815260408083205480845260028352818420878552909252822054606092806102df818581610d2b565b6040516355754d4360e11b81526004810186905291935091505f906001600160a01b0383169063aaea9a8690602401602060405180830381865afa158015610329573d5f5f3e3d5ffd5b505050506040513d601f19601f8201168201806040525081019061034d9190612f1b565b6001600160a01b0316036103745760405163627ed5b360e01b815260040160405180910390fd5b6040516302c5b45760e31b81526001600160a01b038b81166004830152602482018590525f919083169063162da2b890604401602060405180830381865afa1580156103c2573d5f5f3e3d5ffd5b505050506040513d601f19601f820116820180604052508101906103e69190612f46565b90505f8b6001600160a01b0316638da5cb5b6040518163ffffffff1660e01b8152600401602060405180830381865afa158015610425573d5f5f3e3d5ffd5b505050506040513d601f19601f820116820180604052508101906104499190612f1b565b9050811561052f57604051635fb6a33360e01b81526001600160a01b038d81166004830152602482018790525f9190851690635fb6a33390604401602060405180830381865afa15801561049f573d5f5f3e3d5ffd5b505050506040513d601f19601f820116820180604052508101906104c39190612f61565b90506104d385858f858a86611486565b7f563147cf549636451fb493fe7da257ca09facfe0462bee3b85826f4a2549fe5d8287610501846001612f8c565b604080516001600160a01b03909416845260208401929092529082015260600160405180910390a150610774565b6040516325bec9f960e11b8152600481018690526001600160a01b03841690634b7d93f2906024015f60405180830381865afa158015610571573d5f5f3e3d5ffd5b505050506040513d5f823e601f3d908101601f191682016040526105989190810190613107565b516040516374f0602760e11b8152600481018790526001600160a01b0385169063e9e0c04e90602401602060405180830381865afa1580156105dc573d5f5f3e3d5ffd5b505050506040513d601f19601f820116820180604052508101906106009190612f61565b0361061e57604051634f1368d160e11b815260040160405180910390fd5b6001604051631e5bf3ed60e11b8152600481018790526001600160a01b03851690633cb7e7da90602401602060405180830381865afa158015610663573d5f5f3e3d5ffd5b505050506040513d601f19601f820116820180604052508101906106879190613158565b600181111561069857610698613138565b036106b657604051633e5a55b960e01b815260040160405180910390fd5b6106c18184876118c5565b60405163761ab01760e11b81526001600160a01b038d8116600483015282811660248301526044820187905284169063ec35602e906064015f604051808303815f87803b158015610710575f5ffd5b505af1158015610722573d5f5f3e3d5ffd5b505050507ff90d35c996daadd234b4ea3eed4cd3d05f76c60da38ee1d70439e61a3326c03b8c8660405161076b9291906001600160a01b03929092168252602082015260400190565b60405180910390a15b604080516020810187905201604051602081830303815290604052965050505050505095945050505050565b5f8481526003602090815260408083205480845260028352818420888552909252822054606092806107d3818581610d2b565b6040516355754d4360e11b81526004810186905291935091505f906001600160a01b0383169063aaea9a8690602401602060405180830381865afa15801561081d573d5f5f3e3d5ffd5b505050506040513d601f19601f820116820180604052508101906108419190612f1b565b6001600160a01b0316036108685760405163627ed5b360e01b815260040160405180910390fd5b8a6001600160a01b0316638da5cb5b6040518163ffffffff1660e01b8152600401602060405180830381865afa1580156108a4573d5f5f3e3d5ffd5b505050506040513d601f19601f820116820180604052508101906108c89190612f1b565b6040516355754d4360e11b8152600481018590526001600160a01b039182169183169063aaea9a8690602401602060405180830381865afa15801561090f573d5f5f3e3d5ffd5b505050506040513d601f19601f820116820180604052508101906109339190612f1b565b6001600160a01b03161461095a5760405163e6c4247b60e01b815260040160405180910390fd5b604051630207a6d760e31b8152600481018490526001600160a01b0383169063103d36b8906024015f604051808303815f87803b158015610999575f5ffd5b505af11580156109ab573d5f5f3e3d5ffd5b50505050505050509695505050505050565b60605f610a0084846040518060400160405280601a81526020017f6c656e732e706172616d2e636f6e6669677572654b696e6f7261000000000000815250611b8d565b90505f5f82806020019051810190610a189190613791565b60208201516040015151919350915015610a90575f5b82602001516040015151811015610a8e57610a698360200151604001518281518110610a5c57610a5c6139a5565b6020026020010151611c89565b610a86576040516303777f6960e51b815260040160405180910390fd5b600101610a2e565b505b5f5b825151811015610c3f575f5b8351805183908110610ab257610ab26139a5565b60200260200101516020015151811015610b7e575f8451805184908110610adb57610adb6139a5565b6020026020010151602001518281518110610af857610af86139a5565b60200260200101515f01516001811115610b1457610b14613138565b03610b76575f845f01518381518110610b2f57610b2f6139a5565b6020026020010151602001518281518110610b4c57610b4c6139a5565b60200260200101516060015111610b7657604051633853986560e01b815260040160405180910390fd5b600101610a9e565b505f835f01518281518110610b9557610b956139a5565b60200260200101515f015160400151511115610c37575f5b8351805183908110610bc157610bc16139a5565b60200260200101515f01516040015151811015610c3557610c10845f01518381518110610bf057610bf06139a5565b60200260200101515f0151604001518281518110610a5c57610a5c6139a5565b610c2d576040516303777f6960e51b815260040160405180910390fd5b600101610bad565b505b600101610a92565b5060408051808201909152600681526561717569696960d01b60208201528990610c6890611d55565b5f5f610c7683856001610d2b565b915091505f816001600160a01b0316633aebaeaa6040518163ffffffff1660e01b8152600401602060405180830381865afa158015610cb7573d5f5f3e3d5ffd5b505050506040513d601f19601f82011682018060405250810190610cdb9190612f61565b610ce6906001612f8c565b9050610cf6868585858f86611d9b565b60408051602081018390529081018c905260600160405160208183030381529060405297505050505050505095945050505050565b5f5f835f0361124357610d5b6040518060400160405280600681526020016561636363616160d01b815250611d55565b5f604051610d6890612d0f565b604051809103905ff080158015610d81573d5f5f3e3d5ffd5b5090505f604051610d9190612d1c565b604051809103905ff080158015610daa573d5f5f3e3d5ffd5b5090505f604051610dba90612d29565b604051809103905ff080158015610dd3573d5f5f3e3d5ffd5b5090505f604051610de390612d36565b604051809103905ff080158015610dfc573d5f5f3e3d5ffd5b5090505f604051610e0c90612d43565b604051809103905ff080158015610e25573d5f5f3e3d5ffd5b509050610e4f60405180604001604052806006815260200165636c6f6e657360d01b815250611d55565b60405163485cc95560e01b81526001600160a01b038b8116600483015230602483015286169063485cc955906044015f604051808303815f87803b158015610e95575f5ffd5b505af1158015610ea7573d5f5f3e3d5ffd5b505060405163485cc95560e01b81526001600160a01b0388811660048301523060248301528616925063485cc95591506044015f604051808303815f87803b158015610ef1575f5ffd5b505af1158015610f03573d5f5f3e3d5ffd5b505060405163485cc95560e01b81526001600160a01b03888116600483015286811660248301528516925063485cc95591506044015f604051808303815f87803b158015610f4f575f5ffd5b505af1158015610f61573d5f5f3e3d5ffd5b505060405163485cc95560e01b81526001600160a01b0388811660048301523060248301528416925063485cc95591506044015f604051808303815f87803b158015610fab575f5ffd5b505af1158015610fbd573d5f5f3e3d5ffd5b5050604051637c643b2f60e11b81526001600160a01b038881166004830152868116602483015284811660448301523060648301528716925063f8c8765e91506084015f604051808303815f87803b158015611017575f5ffd5b505af1158015611029573d5f5f3e3d5ffd5b505060405163edb2cbd760e01b81526001600160a01b0387811660048301528681166024830152858116604483015284811660648301528816925063edb2cbd791506084015f604051808303815f87803b158015611085575f5ffd5b505af1158015611097573d5f5f3e3d5ffd5b5050604051631340fc0160e31b81526001600160a01b03878116600483015284169250639a07e00891506024015f604051808303815f87803b1580156110db575f5ffd5b505af11580156110ed573d5f5f3e3d5ffd5b5050604051631340fc0160e31b81526001600160a01b03878116600483015286169250639a07e00891506024015f604051808303815f87803b158015611131575f5ffd5b505af1158015611143573d5f5f3e3d5ffd5b5050604051632381cf3f60e21b81526001600160a01b03858116600483015286169250638e073cfc91506024015f604051808303815f87803b158015611187575f5ffd5b505af1158015611199573d5f5f3e3d5ffd5b505060018054925090505f6111ad836139b9565b90915550506001545f9081526004602090815260409182902080546001600160a01b038981166001600160a01b031990921682179092558351908152878216928101929092528581168284015284811660608301528316608082015290517f91b68f0d314afe7d6f1cb7b77a410ea26a06ed0ef778bfda8f05cc44e491a6349181900360a00190a150919450925061147e915050565b6001545f9081526004602081905260409182902054915162a08cef60e31b81526001600160a01b03888116928201929092529116908190630504677890602401602060405180830381865afa15801561129e573d5f5f3e3d5ffd5b505050506040513d601f19601f820116820180604052508101906112c29190612f46565b1580156112cc5750835b156112ea5760405163e6c4247b60e01b815260040160405180910390fd5b5f816001600160a01b0316633edbd28e6040518163ffffffff1660e01b8152600401602060405180830381865afa158015611327573d5f5f3e3d5ffd5b505050506040513d601f19601f8201168201806040525081019061134b9190612f1b565b90505f826001600160a01b03166391fbd02b6040518163ffffffff1660e01b8152600401602060405180830381865afa15801561138a573d5f5f3e3d5ffd5b505050506040513d601f19601f820116820180604052508101906113ae9190612f1b565b9050826001600160a01b031663efa17e826040518163ffffffff1660e01b8152600401602060405180830381865afa1580156113ec573d5f5f3e3d5ffd5b505050506040513d601f19601f820116820180604052508101906114109190612f1b565b50826001600160a01b031663dd8465a66040518163ffffffff1660e01b8152600401602060405180830381865afa15801561144d573d5f5f3e3d5ffd5b505050506040513d601f19601f820116820180604052508101906114719190612f1b565b50909350915061147e9050565b935093915050565b5f6001600160a01b03861663e016cea6846114a2856001612f8c565b6040516001600160e01b031960e085901b168152600481019290925260248201526044015f60405180830381865afa1580156114e0573d5f5f3e3d5ffd5b505050506040513d5f823e601f3d908101601f1916820160405261150791908101906139d1565b90506001600160a01b0386166310838f598685611525866001612f8c565b6040516001600160e01b031960e086901b1681526001600160a01b03909316600484015260248301919091526044820152606401602060405180830381865afa158015611574573d5f5f3e3d5ffd5b505050506040513d601f19601f820116820180604052508101906115989190612f46565b15806116095750604051630c2010e560e41b8152600481018490526001600160a01b0387169063c2010e5090602401602060405180830381865afa1580156115e2573d5f5f3e3d5ffd5b505050506040513d601f19601f820116820180604052508101906116069190612f61565b82145b15611627576040516313fee0df60e21b815260040160405180910390fd5b61163e818688611638866001612f8c565b87611ec9565b61165484878561164f866001612f8c565b611f99565b5f6001600160a01b03871663a15b30ba85611670866001612f8c565b6040516001600160e01b031960e085901b16815260048101929092526024820152604401602060405180830381865afa1580156116af573d5f5f3e3d5ffd5b505050506040513d601f19601f820116820180604052508101906116d39190612f61565b90505f5b8181101561185d575f6001600160a01b038916630d05962d87846116fc896001612f8c565b6040516001600160e01b031960e086901b168152600481019390935260248301919091526044820152606401602060405180830381865afa158015611743573d5f5f3e3d5ffd5b505050506040513d601f19601f820116820180604052508101906117679190613158565b600181111561177857611778613138565b036117eb576001600160a01b0389166307e285628787611799886001612f8c565b856040518563ffffffff1660e01b81526004016117b99493929190613a02565b5f604051808303815f87803b1580156117d0575f5ffd5b505af11580156117e2573d5f5f3e3d5ffd5b50505050611855565b6001600160a01b0389166367aef06e8787611807886001612f8c565b856040518563ffffffff1660e01b81526004016118279493929190613a02565b5f604051808303815f87803b15801561183e575f5ffd5b505af1158015611850573d5f5f3e3d5ffd5b505050505b6001016116d7565b5060405163d8e0ceaf60e01b81526001600160a01b0387811660048301526024820186905288169063d8e0ceaf906044015f604051808303815f87803b1580156118a5575f5ffd5b505af11580156118b7573d5f5f3e3d5ffd5b505050505050505050505050565b60405163122e33cf60e31b8152600481018290525f906001600160a01b038416906391719e7890602401602060405180830381865afa15801561190a573d5f5f3e3d5ffd5b505050506040513d601f19601f8201168201806040525081019061192e9190612f46565b604051636a1a4f5b60e01b8152600481018490529091505f906001600160a01b03851690636a1a4f5b906024015f60405180830381865afa158015611975573d5f5f3e3d5ffd5b505050506040513d5f823e601f3d908101601f1916820160405261199c9190810190613107565b604051632c71b74960e01b8152600481018590529091505f906001600160a01b03861690632c71b749906024015f60405180830381865afa1580156119e3573d5f5f3e3d5ffd5b505050506040513d5f823e601f3d908101601f19168201604052611a0a91908101906139d1565b60405163c17b608360e01b8152600481018690529091505f906001600160a01b0387169063c17b6083906024015f60405180830381865afa158015611a51573d5f5f3e3d5ffd5b505050506040513d5f823e601f3d908101601f19168201604052611a789190810190613107565b604051636c2e338d60e11b8152600481018790529091505f906001600160a01b0388169063d85c671a906024015f60405180830381865afa158015611abf573d5f5f3e3d5ffd5b505050506040513d5f823e601f3d908101601f19168201604052611ae69190810190613a28565b604051632e78e46f60e01b8152600481018890529091505f906001600160a01b03891690632e78e46f906024015f60405180830381865afa158015611b2d573d5f5f3e3d5ffd5b505050506040513d5f823e601f3d908101601f19168201604052611b549190810190613a59565b9050611b6581838786888e8c61228c565b611b82576040516313fee0df60e21b815260040160405180910390fd5b505050505050505050565b60605f82604051602001611ba19190613aa1565b60408051601f19818403018152919052805160209091012090505f5b84811015611c685781868683818110611bd857611bd86139a5565b9050602002810190611bea9190613aac565b3503611c6057858582818110611c0257611c026139a5565b9050602002810190611c149190613aac565b611c22906020810190613aca565b8080601f0160208091040260200160405190810160405280939291908181526020018383808284375f92019190915250929550611c82945050505050565b600101611bbd565b506040516317cfd1e760e21b815260040160405180910390fd5b9392505050565b5f5f60405180606001604052806024815260200161d93a602491398051602091820120604080515f602482018190526044808301829052835180840390910181526064909201835293810180516001600160e01b03166001600160e01b03198516179052905191935091906001600160a01b03861690611d0a908490613aa1565b5f60405180830381855afa9150503d805f8114611d42576040519150601f19603f3d011682016040523d82523d5f602084013e611d47565b606091505b505115159695505050505050565b611d9881604051602401611d699190612e5d565b60408051601f198184030181529190526020810180516001600160e01b031663104c13eb60e21b179052612420565b50565b611daf865f01518686848a60600151612429565b826001600160a01b0316632e056c4f6040518060c0016040528089602001518152602001895f0151815260200189604001518152602001886001600160a01b0316815260200185815260200189606001518152506040518263ffffffff1660e01b8152600401611e1f9190613e83565b5f604051808303815f87803b158015611e36575f5ffd5b505af1158015611e48573d5f5f3e3d5ffd5b5050600180545f9081526002602090815260408083208884528252808320879055925460038252918390209190915581516001600160a01b038a1681529081018590529081018590527fedf4908599df77be4b5e3c9ba4a31997569144a9475b43d300940f225b2bf4da9250606001905060405180910390a1505050505050565b5f5b8551811015611f91575f5f9054906101000a90046001600160a01b03166001600160a01b0316636a9fa5bd858786868b8781518110611f0c57611f0c6139a5565b60209081029190910101516040516001600160e01b031960e088901b1681526001600160a01b03958616600482015294909316602485015260448401919091526064830152608482015260a4015f6040518083038186803b158015611f6f575f5ffd5b505afa158015611f81573d5f5f3e3d5ffd5b505060019092019150611ecb9050565b505050505050565b60405163109dee4160e21b815260048101839052602481018290525f906001600160a01b03851690634277b90490604401602060405180830381865afa158015611fe5573d5f5f3e3d5ffd5b505050506040513d601f19601f820116820180604052508101906120099190612f46565b60405163303d56df60e21b815260048101859052602481018490529091505f906001600160a01b0386169063c0f55b7c906044015f60405180830381865afa158015612057573d5f5f3e3d5ffd5b505050506040513d5f823e601f3d908101601f1916820160405261207e9190810190613107565b60405163cf405da960e01b815260048101869052602481018590529091505f906001600160a01b0387169063cf405da9906044015f60405180830381865afa1580156120cc573d5f5f3e3d5ffd5b505050506040513d5f823e601f3d908101601f191682016040526120f391908101906139d1565b60405163cfdf9f6b60e01b815260048101879052602481018690529091505f906001600160a01b0388169063cfdf9f6b906044015f60405180830381865afa158015612141573d5f5f3e3d5ffd5b505050506040513d5f823e601f3d908101601f191682016040526121689190810190613107565b604051630891682560e41b815260048101889052602481018790529091505f906001600160a01b038916906389168250906044015f60405180830381865afa1580156121b6573d5f5f3e3d5ffd5b505050506040513d5f823e601f3d908101601f191682016040526121dd9190810190613a28565b604051631d5b441160e21b815260048101899052602481018890529091505f906001600160a01b038a169063756d1044906044015f60405180830381865afa15801561222b573d5f5f3e3d5ffd5b505050506040513d5f823e601f3d908101601f191682016040526122529190810190613a59565b905061226381838786888f8c61228c565b612280576040516313fee0df60e21b815260040160405180910390fd5b50505050505050505050565b84515f90819015612381575f5b875181101561237f575f8882815181106122b5576122b56139a5565b60209081029190910101516040516370a0823160e01b81526001600160a01b038881166004830152909116906370a0823190602401602060405180830381865afa158015612305573d5f5f3e3d5ffd5b505050506040513d601f19601f820116820180604052508101906123299190612f61565b905086828151811061233d5761233d6139a5565b6020026020010151811061236657841561235d5760019350505050610229565b60019250612376565b84612376575f9350505050610229565b50600101612299565b505b82801561238b5750805b1561239a576001915050610229565b5f6123a88a8a898888612866565b90508380156123bb575081806123bb5750805b156123cb57600192505050610229565b831580156123d65750815b80156123df5750805b156123ef57600192505050610229565b60018751108015612401575060018851105b1561241157600192505050610229565b505f9998505050505050505050565b611d9881612c76565b5f5b8551811015611f91575f868281518110612447576124476139a5565b60200260200101516020015151111561285e575f5b86828151811061246e5761246e6139a5565b6020026020010151602001515181101561285c575f878381518110612495576124956139a5565b60200260200101516020015182815181106124b2576124b26139a5565b60200260200101515f015160018111156124ce576124ce613138565b036127ba578682815181106124e5576124e56139a5565b6020026020010151602001518181518110612502576125026139a5565b6020026020010151604001516001600160a01b031663095ea7b386858a8681518110612530576125306139a5565b602002602001015160200151858151811061254d5761254d6139a5565b6020026020010151606001516125639190614050565b6040516001600160e01b031960e085901b1681526001600160a01b03909216600483015260248201526044016020604051808303815f875af11580156125ab573d5f5f3e3d5ffd5b505050506040513d601f19601f820116820180604052508101906125cf9190612f46565b508682815181106125e2576125e26139a5565b60200260200101516020015181815181106125ff576125ff6139a5565b6020026020010151604001516001600160a01b03166323b872dd8730868b878151811061262e5761262e6139a5565b602002602001015160200151868151811061264b5761264b6139a5565b6020026020010151606001516126619190614050565b6040516001600160e01b031960e086901b1681526001600160a01b03938416600482015292909116602483015260448201526064016020604051808303815f875af11580156126b2573d5f5f3e3d5ffd5b505050506040513d601f19601f820116820180604052508101906126d69190612f46565b50846001600160a01b0316636e48b2718884815181106126f8576126f86139a5565b6020026020010151602001518381518110612715576127156139a5565b602002602001015160400151858a8681518110612734576127346139a5565b6020026020010151602001518581518110612751576127516139a5565b6020026020010151606001516127679190614050565b87866040518563ffffffff1660e01b81526004016127889493929190613a02565b5f604051808303815f87803b15801561279f575f5ffd5b505af11580156127b1573d5f5f3e3d5ffd5b50505050612854565b846001600160a01b03166376f41b438884815181106127db576127db6139a5565b60200260200101516020015183815181106127f8576127f86139a5565b6020026020010151602001518685856040518563ffffffff1660e01b81526004016128269493929190614067565b5f604051808303815f87803b15801561283d575f5ffd5b505af115801561284f573d5f5f3e3d5ffd5b505050505b60010161245c565b505b60010161242b565b82515f908190156101c4575f5b8551811015612c6b578751811015612add575f888281518110612898576128986139a5565b6020026020010151511115612add575f8682815181106128ba576128ba6139a5565b60209081029190910101516040516370a0823160e01b81526001600160a01b038881166004830152909116906370a0823190602401602060405180830381865afa15801561290a573d5f5f3e3d5ffd5b505050506040513d601f19601f8201168201806040525081019061292e9190612f61565b90505f805b82811015612ad9575f6129608a8681518110612951576129516139a5565b60200260200101518a84612c95565b90505f8a8681518110612975576129756139a5565b60200260200101516001600160a01b031663c87b56dd836040518263ffffffff1660e01b81526004016129aa91815260200190565b5f60405180830381865afa1580156129c4573d5f5f3e3d5ffd5b505050506040513d5f823e601f3d908101601f191682016040526129eb9190810190614095565b90505f5b8d8781518110612a0157612a016139a5565b602002602001015151811015612aa7578d8781518110612a2357612a236139a5565b60200260200101518181518110612a3c57612a3c6139a5565b6020026020010151604051602001612a549190613aa1565b6040516020818303038152906040528051906020012082604051602001612a7b9190613aa1565b6040516020818303038152906040528051906020012003612a9f5760019450612aa7565b6001016129ef565b508315612acf578815612ac45760019750505050505050506101c7565b600196505050612ad9565b5050600101612933565b5050505b8651811015612c63575f878281518110612af957612af96139a5565b6020026020010151511115612c53575f5b878281518110612b1c57612b1c6139a5565b602002602001015151811015612c51575f6001600160a01b0316878381518110612b4857612b486139a5565b60200260200101516001600160a01b031614612c4957856001600160a01b0316878381518110612b7a57612b7a6139a5565b60200260200101516001600160a01b0316636352211e8a8581518110612ba257612ba26139a5565b60200260200101518481518110612bbb57612bbb6139a5565b60200260200101516040518263ffffffff1660e01b8152600401612be191815260200190565b602060405180830381865afa158015612bfc573d5f5f3e3d5ffd5b505050506040513d601f19601f82011682018060405250810190612c209190612f1b565b6001600160a01b031603612c49578415612c4057600193505050506101c7565b60019250612c51565b600101612b0a565b505b818015612c5e575083155b612c6b575b600101612873565b509695505050505050565b5f6a636f6e736f6c652e6c6f6790505f5f835160208501845afa505050565b604051632f745c5960e01b81526001600160a01b038381166004830152602482018390525f9190851690632f745c5990604401602060405180830381865afa158015612ce3573d5f5f3e3d5ffd5b505050506040513d601f19601f82011682018060405250810190612d079190612f61565b949350505050565b6107b0806140c783390190565b611bf98061487783390190565b614ecf8061647083390190565b610c998061b33f83390190565b6119628061bfd883390190565b5f60208284031215612d60575f5ffd5b5035919050565b6001600160a01b0381168114611d98575f5ffd5b5f5f83601f840112612d8b575f5ffd5b5081356001600160401b03811115612da1575f5ffd5b6020830191508360208260051b8501011115612dbb575f5ffd5b9250929050565b5f5f5f5f5f60808688031215612dd6575f5ffd5b8535612de181612d67565b94506020860135612df181612d67565b93506040860135925060608601356001600160401b03811115612e12575f5ffd5b612e1e88828901612d7b565b969995985093965092949392505050565b5f81518084528060208401602086015e5f602082860101526020601f19601f83011685010191505092915050565b602081525f611c826020830184612e2f565b8015158114611d98575f5ffd5b5f5f5f5f5f5f60a08789031215612e91575f5ffd5b8635612e9c81612d67565b95506020870135612eac81612d67565b9450604087013593506060870135612ec381612e6f565b925060808701356001600160401b03811115612edd575f5ffd5b612ee989828a01612d7b565b979a9699509497509295939492505050565b5f5f60408385031215612f0c575f5ffd5b50508035926020909101359150565b5f60208284031215612f2b575f5ffd5b8151611c8281612d67565b8051612f4181612e6f565b919050565b5f60208284031215612f56575f5ffd5b8151611c8281612e6f565b5f60208284031215612f71575f5ffd5b5051919050565b634e487b7160e01b5f52601160045260245ffd5b8082018082111561024e5761024e612f78565b634e487b7160e01b5f52604160045260245ffd5b60405160c081016001600160401b0381118282101715612fd557612fd5612f9f565b60405290565b604051608081016001600160401b0381118282101715612fd557612fd5612f9f565b6040516102a081016001600160401b0381118282101715612fd557612fd5612f9f565b60405160a081016001600160401b0381118282101715612fd557612fd5612f9f565b604051601f8201601f191681016001600160401b038111828210171561306a5761306a612f9f565b604052919050565b5f6001600160401b0382111561308a5761308a612f9f565b5060051b60200190565b5f82601f8301126130a3575f5ffd5b81516130b66130b182613072565b613042565b8082825260208201915060208360051b8601019250858311156130d7575f5ffd5b602085015b838110156130fd5780516130ef81612d67565b8352602092830192016130dc565b5095945050505050565b5f60208284031215613117575f5ffd5b81516001600160401b0381111561312c575f5ffd5b612d0784828501613094565b634e487b7160e01b5f52602160045260245ffd5b60028110611d98575f5ffd5b5f60208284031215613168575f5ffd5b8151611c828161314c565b5f82601f830112613182575f5ffd5b81516001600160401b0381111561319b5761319b612f9f565b6131ae601f8201601f1916602001613042565b8181528460208386010111156131c2575f5ffd5b8160208501602083015e5f918101602001919091529392505050565b5f82601f8301126131ed575f5ffd5b81516131fb6130b182613072565b8082825260208201915060208360051b86010192508583111561321c575f5ffd5b602085015b838110156130fd5780516001600160401b0381111561323e575f5ffd5b8601603f8101881361324e575f5ffd5b602081015161325f6130b182613072565b808282526020820191506020808460051b8601010192508a831115613282575f5ffd5b604084015b838110156132c25780516001600160401b038111156132a4575f5ffd5b6132b38d604088840101613173565b84525060209283019201613287565b5086525050602093840193919091019050613221565b5f82601f8301126132e7575f5ffd5b81516132f56130b182613072565b8082825260208201915060208360051b860101925085831115613316575f5ffd5b602085015b838110156130fd57805183526020928301920161331b565b5f82601f830112613342575f5ffd5b81516133506130b182613072565b8082825260208201915060208360051b860101925085831115613371575f5ffd5b602085015b838110156130fd5780516001600160401b03811115613393575f5ffd5b6133a2886020838a01016132d8565b84525060209283019201613376565b5f60c082840312156133c1575f5ffd5b6133c9612fb3565b905081516001600160401b038111156133e0575f5ffd5b6133ec848285016131de565b82525060208201516001600160401b03811115613407575f5ffd5b61341384828501613333565b60208301525060408201516001600160401b03811115613431575f5ffd5b61343d84828501613094565b60408301525060608201516001600160401b0381111561345b575f5ffd5b61346784828501613094565b60608301525060808201516001600160401b03811115613485575f5ffd5b613491848285016132d8565b6080830152506134a360a08301612f36565b60a082015292915050565b5f82601f8301126134bd575f5ffd5b81516134cb6130b182613072565b8082825260208201915060208360051b8601019250858311156134ec575f5ffd5b602085015b838110156130fd5780516001600160401b0381111561350e575f5ffd5b86016080818903601f19011215613523575f5ffd5b61352b612fdb565b60208201516135398161314c565b815260408201516001600160401b03811115613553575f5ffd5b6135628a602083860101613173565b602083015250606082015161357681612d67565b60408201526080919091015160608201528352602092830192016134f1565b5f82601f8301126135a4575f5ffd5b81516135b26130b182613072565b8082825260208201915060208360051b8601019250858311156135d3575f5ffd5b602085015b838110156130fd5780516001600160401b038111156135f5575f5ffd5b86016102a0818903601f1901121561360b575f5ffd5b613613612ffd565b60208201516001600160401b0381111561362b575f5ffd5b61363a8a6020838601016132d8565b82525060408201516001600160401b03811115613655575f5ffd5b6136648a602083860101613173565b60208301525060608281015160408301526080808401519183019190915260a0808401519183019190915260c0808401519183019190915260e08084015191830191909152610100808401519183019190915261012080840151918301919091526101408084015191830191909152610160808401519183019190915261018080840151918301919091526101a080840151918301919091526101c080840151918301919091526101e08084015191830191909152610200830151908201526137306102208301612f36565b6102008201526137436102408301612f36565b6102208201526137566102608301612f36565b6102408201526137696102808301612f36565b61026082015261377c6102a08301612f36565b610280820152845250602092830192016135d8565b5f5f604083850312156137a2575f5ffd5b82516001600160401b038111156137b7575f5ffd5b8301608081860312156137c8575f5ffd5b6137d0612fdb565b81516001600160401b038111156137e5575f5ffd5b8201601f810187136137f5575f5ffd5b80516138036130b182613072565b8082825260208201915060208360051b850101925089831115613824575f5ffd5b602084015b8381101561392e5780516001600160401b03811115613846575f5ffd5b850160a0818d03601f1901121561385b575f5ffd5b613863613020565b60208201516001600160401b0381111561387b575f5ffd5b61388a8e6020838601016133b1565b82525060408201516001600160401b038111156138a5575f5ffd5b6138b48e6020838601016134ae565b60208301525060608201516001600160401b038111156138d2575f5ffd5b6138e18e602083860101613595565b60408301525060808201516001600160401b038111156138ff575f5ffd5b61390e8e602083860101613173565b60608301525060a091909101516080820152835260209283019201613829565b50845250505060208201516001600160401b0381111561394c575f5ffd5b613958878285016133b1565b60208301525060408201516001600160401b03811115613976575f5ffd5b61398287828501613173565b604083015250606091820151918101919091526020939093015192949293505050565b634e487b7160e01b5f52603260045260245ffd5b5f600182016139ca576139ca612f78565b5060010190565b5f602082840312156139e1575f5ffd5b81516001600160401b038111156139f6575f5ffd5b612d07848285016132d8565b6001600160a01b0394909416845260208401929092526040830152606082015260800190565b5f60208284031215613a38575f5ffd5b81516001600160401b03811115613a4d575f5ffd5b612d0784828501613333565b5f60208284031215613a69575f5ffd5b81516001600160401b03811115613a7e575f5ffd5b612d07848285016131de565b5f81518060208401855e5f93019283525090919050565b5f611c828284613a8a565b5f8235603e19833603018112613ac0575f5ffd5b9190910192915050565b5f5f8335601e19843603018112613adf575f5ffd5b8301803591506001600160401b03821115613af8575f5ffd5b602001915036819003821315612dbb575f5ffd5b5f8151808452602084019350602083015f5b82811015613b3c578151865260209586019590910190600101613b1e565b5093949350505050565b5f82825180855260208501945060208160051b830101602085015f5b83811015613b9457601f19858403018852613b7e838351613b0c565b6020988901989093509190910190600101613b62565b50909695505050505050565b5f8151808452602084019350602083015f5b82811015613b3c5781516001600160a01b0316865260209586019590910190600101613bb2565b5f60c08301825160c0855281815180845260e08701915060e08160051b88010193506020830192505f5b81811015613c7a5787850360df19018352835180518087526020918201918088019190600582901b8901015f5b82811015613c6157601f198a8303018452613c4c828651612e2f565b60209586019594909401939150600101613c30565b5097505050602094850194939093019250600101613c03565b5050505060208301518482036020860152613c958282613b46565b91505060408301518482036040860152613caf8282613ba0565b91505060608301518482036060860152613cc98282613ba0565b91505060808301518482036080860152613ce38282613b0c565b91505060a0830151613cf960a086018215159052565b509392505050565b5f82825180855260208501945060208160051b830101602085015f5b83811015613b9457601f19858403018852815180516102a08552613d456102a0860182613b0c565b905060208201518582036020870152613d5e8282612e2f565b91505060408201516040860152606082015160608601526080820151608086015260a082015160a086015260c082015160c086015260e082015160e08601526101008201516101008601526101208201516101208601526101408201516101408601526101608201516101608601526101808201516101808601526101a08201516101a08601526101c08201516101c08601526101e08201516101e0860152610200820151613e1261020087018215159052565b50610220820151613e2861022087018215159052565b50610240820151613e3e61024087018215159052565b50610260820151613e5461026087018215159052565b506102808201519150613e6c61028086018315159052565b6020998a0199909450929092019150600101613d1d565b602081525f825160c06020840152613e9e60e0840182613bd9565b602085810151858303601f19016040870152805180845292935081019181840191600582901b8501015f5b82811015613ff357601f198683030184528451805160a08452613eef60a0850182613bd9565b60208381015186830387830152805180845292935081019181840191600582901b8501015f5b82811015613f9857858203601f190184528451805160028110613f4657634e487b7160e01b5f52602160045260245ffd5b80845250602081015160806020850152613f636080850182612e2f565b6040838101516001600160a01b0316908601526060928301519290940191909152506020948501949390930192600101613f15565b50604086015194508781036040890152613fb28186613d01565b94505050505060608201518482036060860152613fcf8282612e2f565b60809384015195909301949094525060209586019594909401939150600101613ec9565b506040880151878203601f1901606089015294506140118186612e2f565b945050505050606084015161403160808501826001600160a01b03169052565b50608084015160a084015260a084015160c08401528091505092915050565b808202811582820484141761024e5761024e612f78565b608081525f6140796080830187612e2f565b6020830195909552506040810192909252606090910152919050565b5f602082840312156140a5575f5ffd5b81516001600160401b038111156140ba575f5ffd5b612d078482850161317356fe6080604052348015600e575f5ffd5b506107948061001c5f395ff3fe608060405234801561000f575f5ffd5b50600436106100e5575f3560e01c80638dd134ff11610088578063cffde29111610063578063cffde29114610212578063dd8465a614610225578063edb2cbd714610236578063efa17e8214610249575f5ffd5b80638dd134ff146101d157806391fbd02b146101e257806395d89b41146101f3575f5ffd5b806331238d45116100c357806331238d45146101865780633edbd28e1461019b578063485cc955146101ab57806372a862fe146101be575f5ffd5b806305046778146100e957806306fdde03146101295780630e96162414610161575b5f5ffd5b6101146100f7366004610687565b6001600160a01b03165f9081526006602052604090205460ff1690565b60405190151581526020015b60405180910390f35b60408051808201909152601381527212da5b9bdc985058d8d95cdcd0dbdb9d1c9bdb606a1b60208201525b60405161012091906106a7565b6004546001600160a01b03165b6040516001600160a01b039091168152602001610120565b610199610194366004610687565b61025a565b005b5f546001600160a01b031661016e565b6101996101b93660046106dc565b6102fd565b6101996101cc366004610687565b610470565b6005546001600160a01b031661016e565b6001546001600160a01b031661016e565b6040805180820190915260038152624b414360e81b6020820152610154565b610199610220366004610687565b610532565b6003546001600160a01b031661016e565b61019961024436600461070d565b6105f2565b6002546001600160a01b031661016e565b6004546001600160a01b03163314610285576040516331a2693f60e21b815260040160405180910390fd5b600480546001600160a01b039081165f90815260066020526040808220805460ff1990811690915584546001600160a01b0319169386169384179094558282528082208054909416600117909355915190917fdaeacd203bcec8d3b2e6a56d32e051cfc50eb9590aafe427cf42940532251d1391a250565b7ff0c57e16840df040f15088dc2f81fe391c3923bec73e23a9662efc9c229c6a008054600160401b810460ff16159067ffffffffffffffff165f811580156103425750825b90505f8267ffffffffffffffff16600114801561035e5750303b155b90508115801561036c575080155b1561038a5760405163f92ee8a960e01b815260040160405180910390fd5b845467ffffffffffffffff1916600117855583156103b457845460ff60401b1916600160401b1785555b6005546001600160a01b0316156103dd5760405162dc149f60e41b815260040160405180910390fd5b600580546001600160a01b038089166001600160a01b0319928316179092559088165f818152600660205260409020805460ff1916600117905560048054909216179055831561046757845460ff60401b19168555604051600181527fc7f505b2f371ae2175ee4913f4499e1f2633a7b5936321eed1cdaeb6115181d29060200160405180910390a15b50505050505050565b6004546001600160a01b0316331461049b576040516331a2693f60e21b815260040160405180910390fd5b6001600160a01b0381163314806104c957506001600160a01b0381165f9081526006602052604090205460ff165b156104e75760405163e6c4247b60e01b815260040160405180910390fd5b6001600160a01b0381165f81815260066020526040808220805460ff19166001179055517f704a4e56447ac6f7cc6a5d828a02acd490faa77d2cf0a2df715785d9335143f99190a250565b6004546001600160a01b0316331461055d576040516331a2693f60e21b815260040160405180910390fd5b6001600160a01b03811633148061058c57506001600160a01b0381165f9081526006602052604090205460ff16155b156105aa5760405163e6c4247b60e01b815260040160405180910390fd5b6001600160a01b0381165f81815260066020526040808220805460ff19169055517f98992a5616170aac767769bf44f381e51162b18adb250d1eebb68c1ee2f185ef9190a250565b6005546001600160a01b0316331461061d5760405163e6c4247b60e01b815260040160405180910390fd5b5f80546001600160a01b039586166001600160a01b0319918216179091556001805494861694821694909417909355600280549285169284169290921790915560038054919093169116179055565b80356001600160a01b0381168114610682575f5ffd5b919050565b5f60208284031215610697575f5ffd5b6106a08261066c565b9392505050565b602081525f82518060208401528060208501604085015e5f604082850101526040601f19601f83011684010191505092915050565b5f5f604083850312156106ed575f5ffd5b6106f68361066c565b91506107046020840161066c565b90509250929050565b5f5f5f5f60808587031215610720575f5ffd5b6107298561066c565b93506107376020860161066c565b92506107456040860161066c565b91506107536060860161066c565b90509295919450925056fea2646970667358221220db466b72e58812eb8cc6d8bd5bcfd498539d10c8f78029eba7a0ab16afe4d7af64736f6c634300081c00336080604052348015600e575f5ffd5b50611bdd8061001c5f395ff3fe608060405234801561000f575f5ffd5b5060043610610127575f3560e01c806395d89b41116100a9578063e2839eb31161006e578063e2839eb3146102a1578063e784c517146102b3578063f68451e8146102c6578063f8c8765e146102d9578063fbddeb7b146102ec575f5ffd5b806395d89b41146102385780639cfd3be514610257578063a1d2f5681461026a578063deed1c881461027d578063df29b9821461028e575f5ffd5b80633d9df04d116100ef5780633d9df04d146101cb57806367aef06e146101de5780636e48b271146101f157806376f41b43146102045780637f49983114610217575f5ffd5b806306fdde031461012b57806307e2856214610165578063103d36b81461017a57806326dc20f41461018d578063279f7ac9146101b8575b5f5ffd5b60408051808201909152600c81526b4b696e6f7261457363726f7760a01b60208201525b60405161015c9190611675565b60405180910390f35b61017861017336600461169e565b6102ff565b005b6101786101883660046116d6565b6105dd565b6001546101a0906001600160a01b031681565b6040516001600160a01b03909116815260200161015c565b6101786101c63660046116ed565b6106ef565b6101786101d93660046116ed565b610796565b6101786101ec36600461169e565b61083d565b6101786101ff36600461169e565b6109e8565b61017861021236600461171c565b610afe565b61022a6102253660046117e2565b610b87565b60405190815260200161015c565b6040805180820190915260038152624b455360e81b602082015261014f565b61014f610265366004611814565b610bd9565b6003546101a0906001600160a01b031681565b6001546001600160a01b03166101a0565b61017861029c36600461183d565b610ca0565b5f546101a0906001600160a01b031681565b6101786102c13660046116ed565b61136c565b6002546101a0906001600160a01b031681565b6101786102e7366004611867565b611412565b6101786102fa3660046116ed565b611576565b6003546001600160a01b0316331461032a576040516303777f6960e51b815260040160405180910390fd5b600154604051631e5bf3ed60e11b8152600481018590525f916001600160a01b031690633cb7e7da90602401602060405180830381865afa158015610371573d5f5f3e3d5ffd5b505050506040513d601f19601f8201168201806040525081019061039591906118e0565b60018111156103a6576103a66118c0565b146103c457604051633e5a55b960e01b815260040160405180910390fd5b600154604051637769dcd960e01b81526004810185905260248101839052604481018490525f916001600160a01b031690637769dcd990606401602060405180830381865afa158015610419573d5f5f3e3d5ffd5b505050506040513d601f19601f8201168201806040525081019061043d91906118fb565b60015460405163038b4cb960e31b81526004810187905260248101859052604481018690529192505f916001600160a01b0390911690631c5a65c890606401602060405180830381865afa158015610497573d5f5f3e3d5ffd5b505050506040513d601f19601f820116820180604052508101906104bb9190611912565b60405163a9059cbb60e01b81526001600160a01b038881166004830152602482018590529192509082169063a9059cbb906044016020604051808303815f875af115801561050b573d5f5f3e3d5ffd5b505050506040513d601f19601f8201168201806040525081019061052f919061192d565b505f858152600460205260408120839161054a600188611960565b81526020019081526020015f205f836001600160a01b03166001600160a01b031681526020019081526020015f205f8282546105869190611960565b9091555050604080516001600160a01b0388168152602081018790529081018590527f0838c06112bb6dd1f7c31dfef4d4462949cad25080c9fb92ab77f6f568856b569060600160405180910390a1505050505050565b6003546001600160a01b03163314610608576040516303777f6960e51b815260040160405180910390fd5b600154604051631e5bf3ed60e11b8152600481018390525f916001600160a01b031690633cb7e7da90602401602060405180830381865afa15801561064f573d5f5f3e3d5ffd5b505050506040513d601f19601f8201168201806040525081019061067391906118e0565b6001811115610684576106846118c0565b03610693576106933382610ca0565b600154604051630207a6d760e31b8152600481018390526001600160a01b039091169063103d36b8906024015f604051808303815f87803b1580156106d6575f5ffd5b505af11580156106e8573d5f5f3e3d5ffd5b5050505050565b5f5460405162a08cef60e31b81523360048201526001600160a01b0390911690630504677890602401602060405180830381865afa158015610733573d5f5f3e3d5ffd5b505050506040513d601f19601f82011682018060405250810190610757919061192d565b6107745760405163e6c4247b60e01b815260040160405180910390fd5b600380546001600160a01b0319166001600160a01b0392909216919091179055565b5f5460405162a08cef60e31b81523360048201526001600160a01b0390911690630504677890602401602060405180830381865afa1580156107da573d5f5f3e3d5ffd5b505050506040513d601f19601f820116820180604052508101906107fe919061192d565b61081b5760405163e6c4247b60e01b815260040160405180910390fd5b600280546001600160a01b0319166001600160a01b0392909216919091179055565b6003546001600160a01b03163314610868576040516303777f6960e51b815260040160405180910390fd5b600154604051631e5bf3ed60e11b8152600481018590525f916001600160a01b031690633cb7e7da90602401602060405180830381865afa1580156108af573d5f5f3e3d5ffd5b505050506040513d601f19601f820116820180604052508101906108d391906118e0565b60018111156108e4576108e46118c0565b1461090257604051633e5a55b960e01b815260040160405180910390fd5b6002545f8481526005602052604081206001600160a01b0390921691634ae550cd9161092f600187611960565b81526020019081526020015f205f8481526020019081526020015f20866040518363ffffffff1660e01b81526004016109699291906119ab565b5f604051808303815f87803b158015610980575f5ffd5b505af1158015610992573d5f5f3e3d5ffd5b5050604080516001600160a01b0388168152602081018790529081018590527f1597bd0ae8eb4347493dfc0b967c2c6c8e45ac6ac0e475673888bcea7346115d925060600190505b60405180910390a150505050565b6003546001600160a01b03163314610a13576040516303777f6960e51b815260040160405180910390fd5b6003546040516323b872dd60e01b81526001600160a01b03918216600482015230602482015260448101859052908516906323b872dd906064016020604051808303815f875af1158015610a69573d5f5f3e3d5ffd5b505050506040513d601f19601f82011682018060405250810190610a8d919061192d565b505f82815260046020908152604080832084845282528083206001600160a01b0388168085529083529281902086905580519283529082018590528101839052606081018290527f096f928cee9d65c5cb3c233db14392910dca29490a3e05c29b882a16e8acb94a906080016109da565b6003546001600160a01b03163314610b29576040516303777f6960e51b815260040160405180910390fd5b5f83815260056020908152604080832085845282528083208484529091529020610b538582611a89565b507f1a4b88e7ed58249270891266f8091dca3c90e8383cb59bb944c7dc6fe1e9e1968484846040516109da93929190611b44565b5f82815260046020526040812081610ba0600185611960565b81526020019081526020015f205f856001600160a01b03166001600160a01b031681526020019081526020015f205490505b9392505050565b5f838152600560205260408120606091610bf4600186611960565b81526020019081526020015f205f8381526020019081526020015f208054610c1b90611973565b80601f0160208091040260200160405190810160405280929190818152602001828054610c4790611973565b8015610c925780601f10610c6957610100808354040283529160200191610c92565b820191905f5260205f20905b815481529060010190602001808311610c7557829003601f168201915b505050505090509392505050565b6001546040516355754d4360e11b81526004810183905233916001600160a01b03169063aaea9a8690602401602060405180830381865afa158015610ce7573d5f5f3e3d5ffd5b505050506040513d601f19601f82011682018060405250810190610d0b9190611912565b6001600160a01b031614158015610d225750333014155b15610d405760405163e6c4247b60e01b815260040160405180910390fd5b6001546040516355754d4360e11b8152600481018390525f916001600160a01b03169063aaea9a8690602401602060405180830381865afa158015610d87573d5f5f3e3d5ffd5b505050506040513d601f19601f82011682018060405250810190610dab9190611912565b6001600160a01b031603610dd25760405163627ed5b360e01b815260040160405180910390fd5b600154604051630c2010e560e41b8152600481018390525f916001600160a01b03169063c2010e5090602401602060405180830381865afa158015610e19573d5f5f3e3d5ffd5b505050506040513d601f19601f82011682018060405250810190610e3d91906118fb565b90505f5b818110156112ca57600180545f916001600160a01b039091169063a15b30ba908690610e6e908690611b68565b6040516001600160e01b031960e085901b16815260048101929092526024820152604401602060405180830381865afa158015610ead573d5f5f3e3d5ffd5b505050506040513d601f19601f82011682018060405250810190610ed191906118fb565b90505f805b82811015610f99575f600180546001600160a01b031690630d05962d9089908590610f02908a90611b68565b6040516001600160e01b031960e086901b168152600481019390935260248301919091526044820152606401602060405180830381865afa158015610f49573d5f5f3e3d5ffd5b505050506040513d601f19601f82011682018060405250810190610f6d91906118e0565b6001811115610f7e57610f7e6118c0565b03610f915781610f8d81611b7b565b9250505b600101610ed6565b505f8167ffffffffffffffff811115610fb457610fb4611708565b604051908082528060200260200182016040528015610fdd578160200160208202803683370190505b5090505f805b8481101561115e575f600180546001600160a01b031690630d05962d908b90859061100f908c90611b68565b6040516001600160e01b031960e086901b168152600481019390935260248301919091526044820152606401602060405180830381865afa158015611056573d5f5f3e3d5ffd5b505050506040513d601f19601f8201168201806040525081019061107a91906118e0565b600181111561108b5761108b6118c0565b0361115657600180546001600160a01b031690631c5a65c8908a9084906110b3908b90611b68565b6040516001600160e01b031960e086901b168152600481019390935260248301919091526044820152606401602060405180830381865afa1580156110fa573d5f5f3e3d5ffd5b505050506040513d601f19601f8201168201806040525081019061111e9190611912565b83838151811061113057611130611b93565b6001600160a01b03909216602092830291909101909101528161115281611b7b565b9250505b600101610fe3565b505f5b82518110156112b95782818151811061117c5761117c611b93565b60200260200101516001600160a01b031663a9059cbb8a60045f8c81526020019081526020015f205f8a81526020019081526020015f205f8786815181106111c6576111c6611b93565b60200260200101516001600160a01b03166001600160a01b031681526020019081526020015f20546040518363ffffffff1660e01b815260040161121f9291906001600160a01b03929092168252602082015260400190565b6020604051808303815f875af115801561123b573d5f5f3e3d5ffd5b505050506040513d601f19601f8201168201806040525081019061125f919061192d565b505f88815260046020908152604080832089845290915281208451829086908590811061128e5761128e611b93565b6020908102919091018101516001600160a01b031682528101919091526040015f2055600101611161565b505060019093019250610e41915050565b5060015460405163ca223ba560e01b8152600481018490526001600160a01b039091169063ca223ba5906024015f604051808303815f87803b15801561130e575f5ffd5b505af1158015611320573d5f5f3e3d5ffd5b5050604080516001600160a01b0387168152602081018690527f92e39f7df2c623ce2e69bbf1af49ba0fb2749b5855aab707652065d349118ccf935001905060405180910390a1505050565b5f5460405162a08cef60e31b81523360048201526001600160a01b0390911690630504677890602401602060405180830381865afa1580156113b0573d5f5f3e3d5ffd5b505050506040513d601f19601f820116820180604052508101906113d4919061192d565b6113f15760405163e6c4247b60e01b815260040160405180910390fd5b5f80546001600160a01b0319166001600160a01b0392909216919091179055565b5f61141b61161d565b805490915060ff600160401b820416159067ffffffffffffffff165f811580156114425750825b90505f8267ffffffffffffffff16600114801561145e5750303b155b90508115801561146c575080155b1561148a5760405163f92ee8a960e01b815260040160405180910390fd5b845467ffffffffffffffff1916600117855583156114b457845460ff60401b1916600160401b1785555b5f546001600160a01b0316156114dc5760405162dc149f60e41b815260040160405180910390fd5b5f80546001600160a01b03808c166001600160a01b031992831617909255600180548b8416908316179055600280548a84169083161790556003805492891692909116919091179055831561156b57845460ff60401b19168555604051600181527fc7f505b2f371ae2175ee4913f4499e1f2633a7b5936321eed1cdaeb6115181d29060200160405180910390a15b505050505050505050565b5f5460405162a08cef60e31b81523360048201526001600160a01b0390911690630504677890602401602060405180830381865afa1580156115ba573d5f5f3e3d5ffd5b505050506040513d601f19601f820116820180604052508101906115de919061192d565b6115fb5760405163e6c4247b60e01b815260040160405180910390fd5b600180546001600160a01b0319166001600160a01b0392909216919091179055565b5f807ff0c57e16840df040f15088dc2f81fe391c3923bec73e23a9662efc9c229c6a005b92915050565b5f81518084528060208401602086015e5f602082860101526020601f19601f83011685010191505092915050565b602081525f610bd26020830184611647565b6001600160a01b038116811461169b575f5ffd5b50565b5f5f5f5f608085870312156116b1575f5ffd5b84356116bc81611687565b966020860135965060408601359560600135945092505050565b5f602082840312156116e6575f5ffd5b5035919050565b5f602082840312156116fd575f5ffd5b8135610bd281611687565b634e487b7160e01b5f52604160045260245ffd5b5f5f5f5f6080858703121561172f575f5ffd5b843567ffffffffffffffff811115611745575f5ffd5b8501601f81018713611755575f5ffd5b803567ffffffffffffffff81111561176f5761176f611708565b604051601f8201601f19908116603f0116810167ffffffffffffffff8111828210171561179e5761179e611708565b6040528181528282016020018910156117b5575f5ffd5b816020840160208301375f6020928201830152989087013597506040870135966060013595509350505050565b5f5f5f606084860312156117f4575f5ffd5b83356117ff81611687565b95602085013595506040909401359392505050565b5f5f5f60608486031215611826575f5ffd5b505081359360208301359350604090920135919050565b5f5f6040838503121561184e575f5ffd5b823561185981611687565b946020939093013593505050565b5f5f5f5f6080858703121561187a575f5ffd5b843561188581611687565b9350602085013561189581611687565b925060408501356118a581611687565b915060608501356118b581611687565b939692955090935050565b634e487b7160e01b5f52602160045260245ffd5b6002811061169b575f5ffd5b5f602082840312156118f0575f5ffd5b8151610bd2816118d4565b5f6020828403121561190b575f5ffd5b5051919050565b5f60208284031215611922575f5ffd5b8151610bd281611687565b5f6020828403121561193d575f5ffd5b81518015158114610bd2575f5ffd5b634e487b7160e01b5f52601160045260245ffd5b818103818111156116415761164161194c565b600181811c9082168061198757607f821691505b6020821081036119a557634e487b7160e01b5f52602260045260245ffd5b50919050565b604081525f5f84546119bc81611973565b806040860152600182165f81146119da57600181146119f657611a27565b60ff1983166060870152606082151560051b8701019350611a27565b875f5260205f205f5b83811015611a1e578154888201606001526001909101906020016119ff565b87016060019450505b5050506001600160a01b03841660208401529050610bd2565b601f821115611a8457805f5260205f20601f840160051c81016020851015611a655750805b601f840160051c820191505b818110156106e8575f8155600101611a71565b505050565b815167ffffffffffffffff811115611aa357611aa3611708565b611ab781611ab18454611973565b84611a40565b6020601f821160018114611ae9575f8315611ad25750848201515b5f19600385901b1c1916600184901b1784556106e8565b5f84815260208120601f198516915b82811015611b185787850151825560209485019460019092019101611af8565b5084821015611b3557868401515f19600387901b60f8161c191681555b50505050600190811b01905550565b606081525f611b566060830186611647565b60208301949094525060400152919050565b808201808211156116415761164161194c565b5f60018201611b8c57611b8c61194c565b5060010190565b634e487b7160e01b5f52603260045260245ffdfea2646970667358221220e0eef00c65c3fdca03c80736a058842eb9a35412ceecdbc1649d3350ae77072164736f6c634300081c00336080604052348015600e575f5ffd5b50614eb38061001c5f395ff3fe608060405234801561000f575f5ffd5b506004361061056d575f3560e01c80638fa33a1c116102d9578063c2010e5011610186578063e1214d2f116100ef578063eb1dff86116100a9578063f443043011610084578063f443043014611102578063f5425a3614611115578063f9cc469614611151578063fd9d3c2114611164575f5ffd5b8063eb1dff86146110c9578063ec35602e146110dc578063ec746ff5146110ef575f5ffd5b8063e1214d2f14611014578063e2839eb314611027578063e6106fda14611039578063e784c51714611075578063e9e0c04e14611088578063ead863b7146110aa575f5ffd5b8063d620535411610140578063d620535414610f79578063d85c671a14610f8c578063d8e0ceaf14610f9f578063de872aee14610fb2578063df2c2d2614610fee578063e016cea614611001575f5ffd5b8063c2010e5014610ecf578063c2f8c99914610ef1578063ca223ba514610f2d578063ce1982d914610f40578063cf405da914610f53578063cfdf9f6b14610f66575f5ffd5b8063a747504c11610242578063af74f685116101fc578063baa62ca3116101d7578063baa62ca314610e31578063bf7be75c14610e6d578063c0f55b7c14610ea9578063c17b608314610ebc575f5ffd5b8063af74f68514610dcf578063b4e697f814610de2578063b8519c2c14610e1e575f5ffd5b8063a747504c14610cfe578063a899af2914610d3a578063aac1417c14610d4d578063aaea9a8614610d60578063ad721ed814610a92578063aef2d4fc14610d8b575f5ffd5b806397fcd0781161029357806397fcd07814610c3d5780639a07e00814610c84578063a15b30ba14610c97578063a1d2f56814610caa578063a2d616fa14610cbd578063a67599a914610ceb575f5ffd5b80638fa33a1c14610b955780639129f43714610ba857806391316de314610bbb57806391719e7814610bce57806393247b4314610bf357806395d89b4114610c1e575f5ffd5b80634a4360151161043757806363840ac7116103a0578063756d10441161035a5780637cab89a4116103355780637cab89a414610b3c5780638916825014610b4f5780638ac83eb914610b6f5780638e073cfc14610b82575f5ffd5b8063756d104414610b035780637769dcd914610b165780637ac3c53c14610b29575f5ffd5b806363840ac714610a305780636a1a4f5b14610a6c5780636f552a7c14610a7f5780637182ecd114610a9257806371fc7d8b14610ab457806374a7989c14610af0575f5ffd5b806358b0b792116103f157806358b0b792146109325780635bd6e323146109455780635dc9bbcd146109705780635fb6a333146109ac57806361abe20a146109e15780636222b57914610a1d575f5ffd5b80634a436015146108805780634b7d93f2146108935780634dcbf777146108b35780634de64344146108f95780634fd790101461090c578063579910cf1461091f575f5ffd5b80632c71b749116104d95780633cb04490116104935780633cb04490146107cc5780633cb7e7da146108085780634277b90414610834578063479edbc01461084757806347c200c61461085a578063485cc9551461086d575f5ffd5b80632c71b7491461072c5780632e056c4f1461073f5780632e78e46f1461075257806334b2201b146107725780633707bca8146107855780633aebaeaa146107c4575f5ffd5b8063180fc74c1161052a578063180fc74c1461065557806318969315146106755780631c5a65c8146106ba57806325857903146106e5578063279f7ac9146107065780632af508ab14610719575f5ffd5b806306fdde03146105715780630d05962d146105ae578063103d36b8146105ce57806310838f59146105e357806311253c6314610606578063162da2b814610619575b5f5ffd5b60408051808201909152600f81526e4b696e6f726151756573744461746160881b60208201525b6040516105a59190613d64565b60405180910390f35b6105c16105bc366004613d7d565b61116c565b6040516105a59190613dd6565b6105e16105dc366004613de9565b6111cf565b005b6105f66105f1366004613e1b565b6112e1565b60405190151581526020016105a5565b610598610614366004613e4b565b61132d565b6105f6610627366004613e4b565b6001600160a01b03919091165f90815260066020908152604080832093835260019093019052205460ff1690565b610668610663366004613d7d565b6113e6565b6040516105a59190613e73565b6105f6610683366004613e4b565b6001600160a01b03919091165f9081526006602090815260408083209383526002909301905220600f015462010000900460ff1690565b6106cd6106c8366004613d7d565b61147b565b6040516001600160a01b0390911681526020016105a5565b6106f86106f3366004613d7d565b6114e7565b6040519081526020016105a5565b6105e1610714366004613eb5565b611536565b6106f8610727366004613d7d565b6115dd565b61066861073a366004613de9565b61162c565b6105e161074d3660046147d6565b61168e565b610765610760366004613de9565b611850565b6040516105a591906148bb565b6001546106cd906001600160a01b031681565b6105f6610793366004613e4b565b6001600160a01b03919091165f9081526006602090815260408083209383526002909301905220600f015460ff1690565b6004546106f8565b6106f86107da366004613e4b565b6001600160a01b03919091165f9081526006602090815260408083209383526002909301905220600e015490565b6105c1610816366004613de9565b5f90815260076020526040902060090154600160a01b900460ff1690565b6105f6610842366004614964565b611977565b6106f8610855366004613d7d565b6119bc565b6106f8610868366004613d7d565b611a0b565b6105e161087b366004614984565b611a5a565b6105e161088e3660046149b5565b611baa565b6108a66108a1366004613de9565b611c7e565b6040516105a591906149fa565b6105f66108c1366004613e4b565b6001600160a01b03919091165f9081526006602090815260408083209383526002909301905220600f01546301000000900460ff1690565b6105f6610907366004613d7d565b611ce9565b6105f661091a366004613d7d565b611d3b565b6106f861092d366004613d7d565b611d94565b6105f6610940366004613d7d565b611de3565b6106f8610953366004613eb5565b6001600160a01b03165f9081526006602052604090206008015490565b6106f861097e366004613e4b565b6001600160a01b03919091165f90815260066020908152604080832093835260029093019052206008015490565b6106f86109ba366004613e4b565b6001600160a01b03919091165f908152600660209081526040808320938352929052205490565b6106f86109ef366004613e4b565b6001600160a01b03919091165f90815260066020908152604080832093835260029384019091529020015490565b610598610a2b366004614964565b611e3d565b6106f8610a3e366004613e4b565b6001600160a01b0382165f908152600660208181526040808420858552600201909152909120015492915050565b6108a6610a7a366004613de9565b611e82565b6002546106cd906001600160a01b031681565b6106f8610aa0366004613de9565b5f908152600760205260409020600b015490565b6106f8610ac2366004613e4b565b6001600160a01b03919091165f9081526006602090815260408083209383526002909301905220600a015490565b6106f8610afe366004613d7d565b611eec565b610765610b11366004614964565b611f3b565b6106f8610b24366004613d7d565b61208e565b6106f8610b37366004613d7d565b6120ef565b610668610b4a366004613eb5565b61213e565b610b62610b5d366004614964565b6121a8565b6040516105a59190614a3a565b6105e1610b7d366004614aba565b61226d565b6105e1610b90366004613eb5565b612594565b610598610ba3366004613d7d565b612654565b6105f6610bb6366004613d7d565b612734565b6106f8610bc9366004614c20565b61278b565b6105f6610bdc366004613de9565b5f9081526007602052604090206006015460ff1690565b6106cd610c01366004613eb5565b6001600160a01b039081165f908152600c60205260409020541690565b60408051808201909152600381526212d45160ea1b6020820152610598565b6105f6610c4b366004613e4b565b6001600160a01b03919091165f9081526006602090815260408083209383526002909301905220600f0154640100000000900460ff1690565b6105e1610c92366004613eb5565b6127b2565b6106f8610ca5366004614964565b612872565b6003546106cd906001600160a01b031681565b6106cd610ccb366004613eb5565b6001600160a01b039081165f908152600660205260409020600701541690565b610668610cf9366004614c20565b6128b2565b6106f8610d0c366004613e4b565b6001600160a01b03919091165f90815260066020908152604080832093835260029093019052206005015490565b6106f8610d48366004613d7d565b61291e565b6106f8610d5b366004613d7d565b61296d565b6106cd610d6e366004613de9565b5f908152600760205260409020600901546001600160a01b031690565b6105f6610d99366004613e4b565b6001600160a01b03919091165f9081526006602090815260408083209383526002909301905220600f0154610100900460ff1690565b6106f8610ddd366004613d7d565b6129bc565b6106f8610df0366004613e4b565b6001600160a01b03919091165f90815260066020908152604080832093835260029093019052206003015490565b610668610e2c366004613eb5565b612a08565b6106f8610e3f366004613e4b565b6001600160a01b03919091165f9081526006602090815260408083209383526002909301905220600c015490565b6106f8610e7b366004613e4b565b6001600160a01b03919091165f90815260066020908152604080832093835260029093019052206004015490565b6108a6610eb7366004614964565b612a72565b6108a6610eca366004613de9565b612b07565b6106f8610edd366004613de9565b5f908152600760205260409020600c015490565b6106f8610eff366004613e4b565b6001600160a01b03919091165f90815260066020908152604080832093835260029093019052206007015490565b6105e1610f3b366004613de9565b612b71565b610598610f4e366004613de9565b612bf9565b610668610f61366004614964565b612c91565b6108a6610f74366004614964565b612d1c565b6105f6610f87366004613d7d565b612db0565b610b62610f9a366004613de9565b612e08565b6105e1610fad366004613e4b565b612ea1565b6106f8610fc0366004613e4b565b6001600160a01b03919091165f90815260066020908152604080832093835260029093019052206009015490565b6106f8610ffc366004613d7d565b612fe4565b61066861100f366004614964565b613033565b610668611022366004613eb5565b6130c0565b5f546106cd906001600160a01b031681565b6106f8611047366004613e4b565b6001600160a01b03919091165f9081526006602090815260408083209383526002909301905220600b015490565b6105e1611083366004613eb5565b61312a565b6106f8611096366004613de9565b5f908152600760205260409020600d015490565b6106f86110b8366004613de9565b5f908152600b602052604090205490565b6106f86110d7366004613d7d565b6131d0565b6105e16110ea366004614c59565b61321f565b6106f86110fd366004613d7d565b613371565b610598611110366004613de9565b6133c0565b6106f8611123366004613e4b565b6001600160a01b03919091165f9081526006602090815260408083209383526002909301905220600d015490565b6106f861115f366004614964565b6133dc565b6005546106f8565b5f838152600760205260408120611184600184614ca7565b8154811061119457611194614cba565b905f5260205f2090600d020160070183815481106111b4576111b4614cba565b5f91825260209091206004909102015460ff16949350505050565b6002546001600160a01b031633146111fa576040516303777f6960e51b815260040160405180910390fd5b5f81815260076020526040812090611212828261397b565b600182015f611221828261399c565b61122e600183015f6139b7565b61123b600283015f6139d2565b611248600383015f6139d2565b611255600483015f6139d2565b50600501805460ff1916905561126e600783015f6139d2565b61127b600883015f6139ed565b506009810180546001600160a81b03191690555f600a8201819055600b8201819055600c8201819055600d909101556040518181527fcbe2e2b576d488acbd141580ea0928b24300831852f56c7eb39330a9a35e1e6d906020015b60405180910390a150565b6001600160a01b0383165f908152600660209081526040808320858452600301909152812081611312600185614ca7565b815260208101919091526040015f205460ff16949350505050565b6001600160a01b0382165f908152600660209081526040808320848452600201909152902080546060919061136190614cce565b80601f016020809104026020016040519081016040528092919081815260200182805461138d90614cce565b80156113d85780601f106113af576101008083540402835291602001916113d8565b820191905f5260205f20905b8154815290600101906020018083116113bb57829003601f168201915b505050505090505b92915050565b5f838152600760205260409020606090611401600185614ca7565b8154811061141157611411614cba565b5f9182526020808320858452600d90920290910181526040918290208054835181840281018401909452808452909183018282801561146d57602002820191905f5260205f20905b815481526020019060010190808311611459575b505050505090509392505050565b5f838152600760205260408120611493600184614ca7565b815481106114a3576114a3614cba565b905f5260205f2090600d020160070183815481106114c3576114c3614cba565b5f9182526020909120600490910201600201546001600160a01b0316949350505050565b5f8381526007602052604081206114ff600185614ca7565b8154811061150f5761150f614cba565b5f9182526020808320858452600d9092029091019052604090206008015490509392505050565b5f5460405162a08cef60e31b81523360048201526001600160a01b0390911690630504677890602401602060405180830381865afa15801561157a573d5f5f3e3d5ffd5b505050506040513d601f19601f8201168201806040525081019061159e9190614d06565b6115bb5760405163e6c4247b60e01b815260040160405180910390fd5b600380546001600160a01b0319166001600160a01b0392909216919091179055565b5f8381526007602052604081206115f5600185614ca7565b8154811061160557611605614cba565b5f9182526020808320858452600d9092029091019052604090206007015490509392505050565b5f8181526007602090815260409182902060050180548351818402810184019094528084526060939283018282801561168257602002820191905f5260205f20905b81548152602001906001019080831161166e575b50505050509050919050565b6003546001600160a01b031633146116b9576040516303777f6960e51b815260040160405180910390fd5b60048054905f6116c883614d21565b90915550506004545f818152600760209081526040909120600a8101929092556080830151600b830155606083015160098301805460a0860151600d8601556001600160a81b0319166001600160a01b039092169190911790558251805180519192600185019261173c9284920190613a24565b5060208281015180516117559260018501920190613a7f565b5060408201518051611771916002840191602090910190613ad6565b506060820151805161178d916003840191602090910190613ad6565b50608082015180516117a9916004840191602090910190613b35565b5060a091909101516005909101805460ff1916911515919091179055602082015151600c820155604082015160088201906117e49082614d7d565b506117f682602001518260045461341c565b60045460808301515f908152600b602090815260409182902083905580850151518251938452908301527f5fc06d224c9af68add198a86b9edf62077458edade4534748f0ee3e3a4ff965a91015b60405180910390a15050565b5f818152600760209081526040808320600101805482518185028101850190935280835260609492939192909184015b8282101561196c578382905f5260205f2001805480602002602001604051908101604052809291908181526020015f905b82821015611959578382905f5260205f200180546118ce90614cce565b80601f01602080910402602001604051908101604052809291908181526020018280546118fa90614cce565b80156119455780601f1061191c57610100808354040283529160200191611945565b820191905f5260205f20905b81548152906001019060200180831161192857829003601f168201915b5050505050815260200190600101906118b1565b5050505081526020019060010190611880565b505050509050919050565b5f82815260076020526040812061198f600184614ca7565b8154811061199f5761199f614cba565b5f9182526020909120600d909102016006015460ff169392505050565b5f8381526007602052604081206119d4600185614ca7565b815481106119e4576119e4614cba565b5f9182526020808320858452600d9092029091019052604090206006015490509392505050565b5f838152600760205260408120611a23600185614ca7565b81548110611a3357611a33614cba565b5f9182526020808320858452600d909202909101905260409020600f015490509392505050565b5f611a636135e8565b805490915060ff600160401b82041615906001600160401b03165f81158015611a895750825b90505f826001600160401b03166001148015611aa45750303b155b905081158015611ab2575080155b15611ad05760405163f92ee8a960e01b815260040160405180910390fd5b845467ffffffffffffffff191660011785558315611afa57845460ff60401b1916600160401b1785555b5f546001600160a01b031615611b225760405162dc149f60e41b815260040160405180910390fd5b5f6004819055600581905580546001600160a01b03808a166001600160a01b03199283161790925560038054928916929091169190911790558315611ba157845460ff60401b19168555604051600181527fc7f505b2f371ae2175ee4913f4499e1f2633a7b5936321eed1cdaeb6115181d29060200160405180910390a15b50505050505050565b6001546001600160a01b03163314611bd5576040516303777f6960e51b815260040160405180910390fd5b6001600160a01b0384165f90815260066020908152604080832086845260030190915281208291611c07600186614ca7565b815260208082019290925260409081015f20805460ff19169315159390931790925581516001600160a01b038716815290810185905290810183905281151560608201527ff8ceb2db347480b2d8097e618f2b594d9a6389396b4a492f15cebf4942771daa9060800160405180910390a150505050565b5f8181526007602081815260409283902090910180548351818402810184019094528084526060939283018282801561168257602002820191905f5260205f20905b81546001600160a01b03168152600190910190602001808311611cc05750505050509050919050565b5f838152600760205260408120611d01600185614ca7565b81548110611d1157611d11614cba565b5f9182526020808320858452600d9092029091019052604090206010015460ff1690509392505050565b5f838152600760205260408120611d53600185614ca7565b81548110611d6357611d63614cba565b5f9182526020808320948352600d919091029093019092525060409020601001546301000000900460ff1692915050565b5f838152600760205260408120611dac600185614ca7565b81548110611dbc57611dbc614cba565b5f9182526020808320858452600d9092029091019052604090206009015490509392505050565b5f838152600760205260408120611dfb600185614ca7565b81548110611e0b57611e0b614cba565b5f9182526020808320948352600d91909102909301909252506040902060100154640100000000900460ff1692915050565b5f828152600760205260409020606090611e58600184614ca7565b81548110611e6857611e68614cba565b905f5260205f2090600d0201600901805461136190614cce565b5f8181526007602090815260409182902060040180548351818402810184019094528084526060939283018282801561168257602002820191905f5260205f209081546001600160a01b03168152600190910190602001808311611cc05750505050509050919050565b5f838152600760205260408120611f04600185614ca7565b81548110611f1457611f14614cba565b5f9182526020808320858452600d909202909101905260409020600c015490509392505050565b5f828152600760205260409020606090611f56600184614ca7565b81548110611f6657611f66614cba565b905f5260205f2090600d02016001015f01805480602002602001604051908101604052809291908181526020015f905b82821015612082578382905f5260205f2001805480602002602001604051908101604052809291908181526020015f905b8282101561206f578382905f5260205f20018054611fe490614cce565b80601f016020809104026020016040519081016040528092919081815260200182805461201090614cce565b801561205b5780601f106120325761010080835404028352916020019161205b565b820191905f5260205f20905b81548152906001019060200180831161203e57829003601f168201915b505050505081526020019060010190611fc7565b5050505081526020019060010190611f96565b50505050905092915050565b5f8381526007602052604081206120a6600184614ca7565b815481106120b6576120b6614cba565b905f5260205f2090600d020160070183815481106120d6576120d6614cba565b905f5260205f2090600402016003015490509392505050565b5f838152600760205260408120612107600185614ca7565b8154811061211757612117614cba565b5f9182526020808320858452600d909202909101905260409020600b015490509392505050565b6001600160a01b0381165f9081526006602090815260409182902060050180548351818402810184019094528084526060939283018282801561168257602002820191905f5260205f209081548152602001906001019080831161166e5750505050509050919050565b5f8281526007602052604090206060906121c3600184614ca7565b815481106121d3576121d3614cba565b905f5260205f2090600d0201600101600101805480602002602001604051908101604052809291908181526020015f905b82821015612082575f8481526020908190208301805460408051828502810185019091528181529283018282801561225957602002820191905f5260205f20905b815481526020019060010190808311612245575b505050505081526020019060010190612204565b6001546001600160a01b03163314612298576040516303777f6960e51b815260040160405180910390fd5b6001600160a01b0381165f9081526006602052604081206008015490036122d2576040516313fee0df60e21b815260040160405180910390fd5b6001600160a01b0381165f90815260066020908152604080832085830151845260020190915281206001015490036123fb576020808301515f908152600a90915260408120805461232290614cce565b80601f016020809104026020016040519081016040528092919081815260200182805461234e90614cce565b80156123995780601f1061237057610100808354040283529160200191612399565b820191905f5260205f20905b81548152906001019060200180831161237c57829003601f168201915b5050505050905060065f836001600160a01b03166001600160a01b031681526020019081526020015f206006016009826040516123d69190614e37565b908152604051602091819003820190205482546001810184555f938452919092200155505b6001600160a01b0381165f9081526006602090815260408083208286015184526002019091529020825183919081906124349082614d7d565b5060208281015160018301556040808401516002840155606084015160038401556080840151600484015560a0840151600584015560c0840151600684015560e084015160078401556101008085015160088501556101208501516009850155610140850151600a850155610160850151600b850155610180850151600c8501556101a0850151600d8501556101c0850151600e8501556101e0850151600f90940180546102008701516102208801516102408901516102609099015115156401000000000264ff000000001999151563010000000263ff0000001992151562010000029290921663ffff00001993151590960261ff00199915159990991661ffff19909416939093179790971716929092179490941794909416939093179091558381015182516001600160a01b0385168152918201527f615fcb39c5739585ae7a98b195a7eba14f52561bb0ae40bce8c63efb5e1343f69101611844565b5f5460405162a08cef60e31b81523360048201526001600160a01b0390911690630504677890602401602060405180830381865afa1580156125d8573d5f5f3e3d5ffd5b505050506040513d601f19601f820116820180604052508101906125fc9190614d06565b15801561261457506003546001600160a01b03163314155b156126325760405163e6c4247b60e01b815260040160405180910390fd5b600180546001600160a01b0319166001600160a01b0392909216919091179055565b5f83815260076020526040902060609061266f600184614ca7565b8154811061267f5761267f614cba565b905f5260205f2090600d0201600701838154811061269f5761269f614cba565b905f5260205f20906004020160010180546126b990614cce565b80601f01602080910402602001604051908101604052809291908181526020018280546126e590614cce565b801561146d5780601f106127075761010080835404028352916020019161146d565b820191905f5260205f20905b81548152906001019060200180831161271357509398975050505050505050565b5f83815260076020526040812061274c600185614ca7565b8154811061275c5761275c614cba565b5f9182526020808320948352600d91909102909301909252506040902060100154610100900460ff1692915050565b5f60098260405161279c9190614e37565b9081526020016040518091039020549050919050565b5f5460405162a08cef60e31b81523360048201526001600160a01b0390911690630504677890602401602060405180830381865afa1580156127f6573d5f5f3e3d5ffd5b505050506040513d601f19601f8201168201806040525081019061281a9190614d06565b15801561283257506003546001600160a01b03163314155b156128505760405163e6c4247b60e01b815260040160405180910390fd5b600280546001600160a01b0319166001600160a01b0392909216919091179055565b5f82815260076020526040812061288a600184614ca7565b8154811061289a5761289a614cba565b905f5260205f2090600d0201600c0154905092915050565b60606008826040516128c49190614e37565b908152604080519182900360209081018320805480830285018301909352828452919083018282801561168257602002820191905f5260205f209081548152602001906001019080831161166e5750505050509050919050565b5f838152600760205260408120612936600185614ca7565b8154811061294657612946614cba565b5f9182526020808320858452600d9092029091019052604090206004015490509392505050565b5f838152600760205260408120612985600185614ca7565b8154811061299557612995614cba565b5f9182526020808320858452600d9092029091019052604090206003015490509392505050565b5f8381526007602052604081206129d4600185614ca7565b815481106129e4576129e4614cba565b5f9182526020808320858452600d9283020190526040909120015490509392505050565b6001600160a01b0381165f9081526006602081815260409283902090910180548351818402810184019094528084526060939283018282801561168257602002820191905f5260205f209081548152602001906001019080831161166e5750505050509050919050565b5f828152600760205260409020606090612a8d600184614ca7565b81548110612a9d57612a9d614cba565b5f9182526020918290206004600d909202010180546040805182850281018501909152818152928301828280156113d857602002820191905f5260205f20905b81546001600160a01b03168152600190910190602001808311612add575050505050905092915050565b5f8181526007602090815260409182902060030180548351818402810184019094528084526060939283018282801561168257602002820191905f5260205f209081546001600160a01b03168152600190910190602001808311611cc05750505050509050919050565b6002546001600160a01b03163314612b9c576040516303777f6960e51b815260040160405180910390fd5b5f8181526007602052604090819020600901805460ff60a01b1916600160a01b9081179182905591517f69ece81755488aa3937ce59552d302d53cf2f9e4740f8617bf7b2d6c91643cdc926112d692859291900460ff1690614e4d565b5f818152600760205260409020600801805460609190612c1890614cce565b80601f0160208091040260200160405190810160405280929190818152602001828054612c4490614cce565b80156116825780601f10612c6657610100808354040283529160200191611682565b820191905f5260205f20905b815481529060010190602001808311612c725750939695505050505050565b5f828152600760205260409020606090612cac600184614ca7565b81548110612cbc57612cbc614cba565b5f9182526020918290206005600d909202010180546040805182850281018501909152818152928301828280156113d857602002820191905f5260205f20905b815481526020019060010190808311612cfc575050505050905092915050565b5f828152600760205260409020606090612d37600184614ca7565b81548110612d4757612d47614cba565b5f9182526020918290206003600d909202010180546040805182850281018501909152818152928301828280156113d857602002820191905f5260205f209081546001600160a01b03168152600190910190602001808311612add575050505050905092915050565b5f838152600760205260408120612dc8600185614ca7565b81548110612dd857612dd8614cba565b5f9182526020808320948352600d9190910290930190925250604090206010015462010000900460ff1692915050565b5f818152600760209081526040808320600201805482518185028101850190935280835260609492939192909184015b8282101561196c575f84815260209081902083018054604080518285028101850190915281815292830182828015612e8d57602002820191905f5260205f20905b815481526020019060010190808311612e79575b505050505081526020019060010190612e38565b6003546001600160a01b03163314612ecc576040516303777f6960e51b815260040160405180910390fd5b6001600160a01b0382165f908152600660209081526040808320848452909152812054612efa906001614e6a565b6001600160a01b0384165f8181526006602090815260408083208784528252918290208490558151928352820185905281018290529091507ff43bfc498688ec8f5ca2efe35ba87cb7b4f33c139cb2dc8e3f795527e3f08ccc9060600160405180910390a15f828152600760205260409020600c01548103612fdf576001600160a01b0383165f818152600660209081526040808320600501805460018101825590845292829020909201859055815192835282018490527f6618f11353f68847dc28cc4b36a04270fab5e356fa35386e6315ba7ff205a63391015b60405180910390a15b505050565b5f838152600760205260408120612ffc600185614ca7565b8154811061300c5761300c614cba565b5f9182526020808320858452600d9092029091019052604090206005015490509392505050565b5f82815260076020526040902060609061304e600184614ca7565b8154811061305e5761305e614cba565b905f5260205f2090600d02016008018054806020026020016040519081016040528092919081815260200182805480156113d857602002820191905f5260205f2090815481526020019060010190808311612cfc575050505050905092915050565b6001600160a01b0381165f9081526006602090815260409182902060040180548351818402810184019094528084526060939283018282801561168257602002820191905f5260205f209081548152602001906001019080831161166e5750505050509050919050565b5f5460405162a08cef60e31b81523360048201526001600160a01b0390911690630504677890602401602060405180830381865afa15801561316e573d5f5f3e3d5ffd5b505050506040513d601f19601f820116820180604052508101906131929190614d06565b6131af5760405163e6c4247b60e01b815260040160405180910390fd5b5f80546001600160a01b0319166001600160a01b0392909216919091179055565b5f8381526007602052604081206131e8600185614ca7565b815481106131f8576131f8614cba565b5f9182526020808320858452600d909202909101905260409020600e015490509392505050565b6003546001600160a01b0316331461324a576040516303777f6960e51b815260040160405180910390fd5b6001600160a01b0383165f9081526006602052604081206008015490036132d05760058054905f61327a83614d21565b90915550506001600160a01b038084165f8181526006602090815260408083206007810180549689166001600160a01b03199788168117909155426008909201919091558352600c909152902080549092161790555b6001600160a01b0383165f81815260066020908152604080832060048101805460018082018355918652848620018790558685529081018352818420805460ff1916821790556007808452828520018054918201815584529282902090920180546001600160a01b03191684179055815192835282018390527ff90d35c996daadd234b4ea3eed4cd3d05f76c60da38ee1d70439e61a3326c03b9101612fd6565b5f838152600760205260408120613389600185614ca7565b8154811061339957613399614cba565b5f9182526020808320858452600d909202909101905260409020600a015490509392505050565b5f818152600a60205260409020805460609190612c1890614cce565b5f8281526007602052604081206133f4600184614ca7565b8154811061340457613404614cba565b905f5260205f2090600d0201600b0154905092915050565b5f5b83518110156135e2578254600181810185555f85815260209020600d9092029091019061344c908390614e6a565b600a820155845185908390811061346557613465614cba565b60209081029190910181015151805180519192600185019261348a9284920190613a24565b5060208281015180516134a39260018501920190613a7f565b50604082015180516134bf916002840191602090910190613ad6565b50606082015180516134db916003840191602090910190613ad6565b50608082015180516134f7916004840191602090910190613b35565b5060a091909101516005909101805460ff1916911515919091179055845185908390811061352757613527614cba565b6020026020010151604001515181600b018190555084828151811061354e5761354e614cba565b6020026020010151602001515181600c018190555084828151811061357557613575614cba565b6020026020010151606001518160090190816135919190614d7d565b506135b5818684815181106135a8576135a8614cba565b6020026020010151613610565b6135d9818684815181106135cb576135cb614cba565b6020026020010151856136d5565b5060010161341e565b50505050565b5f807ff0c57e16840df040f15088dc2f81fe391c3923bec73e23a9662efc9c229c6a006113e0565b5f5b816020015151811015612fdf575f8260200151828151811061363657613636614cba565b602090810291909101810151600786018054600181810183555f9283529390912082516004909202018054929450929091839160ff1990911690838181111561368157613681613da6565b02179055506020820151600182019061369a9082614d7d565b5060408201516002820180546001600160a01b0319166001600160a01b03909216919091179055606090910151600390910155600101613612565b5f8260400151516001600160401b038111156136f3576136f3613ece565b60405190808252806020026020018201604052801561371c578160200160208202803683370190505b5090505f5b83604001515181101561395e575f8460400151828151811061374557613745614cba565b6020908102919091018101516040808201515f9081528984522081518051929450849391926137779284920190613b35565b506020820151600182019061378c9082614d7d565b506040828101516002830155606083015160038301556080830151600483015560a0830151600583015560c0830151600683015560e08301516007830155610100808401516008808501919091556101208501516009850155610140850151600a850155610160850151600b850155610180850151600c8501556101a0850151600d8501556101c0850151600e8501556101e0850151600f850155610200850151601090940180546102208701516102408801516102608901516102809099015115156401000000000264ff000000001999151563010000000263ff0000001992151562010000029290921663ffff00001993151590970261ff00199915159990991661ffff1990941693909317979097171693909317949094179490941617909155602083015190516138c09190614e37565b908152604080516020928190038301812080546001810182555f918252908490200187905590830151918301516009916138fa9190614e37565b9081526020016040518091039020819055508060200151600a5f836040015181526020019081526020015f2090816139329190614d7d565b50806040015183838151811061394a5761394a614cba565b602090810291909101015250600101613721565b5080516139749060088601906020840190613b35565b5050505050565b5080545f8255600d02905f5260205f20908101906139999190613b6e565b50565b5080545f8255905f5260205f20908101906139999190613c0a565b5080545f8255905f5260205f20908101906139999190613c26565b5080545f8255905f5260205f20908101906139999190613c42565b5080546139f990614cce565b5f825580601f10613a08575050565b601f0160209004905f5260205f20908101906139999190613c42565b828054828255905f5260205f20908101928215613a6f579160200282015b82811115613a6f5782518051613a5f918491602090910190613c56565b5091602001919060010190613a42565b50613a7b929150613c0a565b5090565b828054828255905f5260205f20908101928215613aca579160200282015b82811115613aca5782518051613aba918491602090910190613b35565b5091602001919060010190613a9d565b50613a7b929150613c26565b828054828255905f5260205f20908101928215613b29579160200282015b82811115613b2957825182546001600160a01b0319166001600160a01b03909116178255602090920191600190910190613af4565b50613a7b929150613c42565b828054828255905f5260205f20908101928215613b29579160200282015b82811115613b29578251825591602001919060010190613b53565b80821115613a7b575f6001820181613b86828261399c565b613b93600183015f6139b7565b613ba0600283015f6139d2565b613bad600383015f6139d2565b613bba600483015f6139d2565b50600501805460ff19169055613bd3600783015f613ca6565b613be0600883015f6139d2565b613bed600983015f6139ed565b505f600a8201819055600b8201819055600c820155600d01613b6e565b80821115613a7b575f613c1d8282613cc4565b50600101613c0a565b80821115613a7b575f613c3982826139d2565b50600101613c26565b5b80821115613a7b575f8155600101613c43565b828054828255905f5260205f20908101928215613c9a579160200282015b82811115613c9a5782518290613c8a9082614d7d565b5091602001919060010190613c74565b50613a7b929150613cdb565b5080545f8255600402905f5260205f20908101906139999190613cf7565b5080545f8255905f5260205f209081019061399991905b80821115613a7b575f613cee82826139ed565b50600101613cdb565b80821115613a7b57805460ff191681555f613d1560018301826139ed565b506002810180546001600160a01b03191690555f6003820155600401613cf7565b5f81518084528060208401602086015e5f602082860101526020601f19601f83011685010191505092915050565b602081525f613d766020830184613d36565b9392505050565b5f5f5f60608486031215613d8f575f5ffd5b505081359360208301359350604090920135919050565b634e487b7160e01b5f52602160045260245ffd5b6002811061399957634e487b7160e01b5f52602160045260245ffd5b60208101613de383613dba565b91905290565b5f60208284031215613df9575f5ffd5b5035919050565b80356001600160a01b0381168114613e16575f5ffd5b919050565b5f5f5f60608486031215613e2d575f5ffd5b613e3684613e00565b95602085013595506040909401359392505050565b5f5f60408385031215613e5c575f5ffd5b613e6583613e00565b946020939093013593505050565b602080825282518282018190525f918401906040840190835b81811015613eaa578351835260209384019390920191600101613e8c565b509095945050505050565b5f60208284031215613ec5575f5ffd5b613d7682613e00565b634e487b7160e01b5f52604160045260245ffd5b60405160c081016001600160401b0381118282101715613f0457613f04613ece565b60405290565b604051608081016001600160401b0381118282101715613f0457613f04613ece565b6040516102a081016001600160401b0381118282101715613f0457613f04613ece565b60405160a081016001600160401b0381118282101715613f0457613f04613ece565b60405161028081016001600160401b0381118282101715613f0457613f04613ece565b604051601f8201601f191681016001600160401b0381118282101715613fbc57613fbc613ece565b604052919050565b5f6001600160401b03821115613fdc57613fdc613ece565b5060051b60200190565b5f82601f830112613ff5575f5ffd5b81356001600160401b0381111561400e5761400e613ece565b614021601f8201601f1916602001613f94565b818152846020838601011115614035575f5ffd5b816020850160208301375f918101602001919091529392505050565b5f82601f830112614060575f5ffd5b813561407361406e82613fc4565b613f94565b8082825260208201915060208360051b860101925085831115614094575f5ffd5b602085015b838110156141505780356001600160401b038111156140b6575f5ffd5b8601603f810188136140c6575f5ffd5b60208101356140d761406e82613fc4565b808282526020820191506020808460051b8601010192508a8311156140fa575f5ffd5b604084015b8381101561413a5780356001600160401b0381111561411c575f5ffd5b61412b8d604088840101613fe6565b845250602092830192016140ff565b5086525050602093840193919091019050614099565b5095945050505050565b5f82601f830112614169575f5ffd5b813561417761406e82613fc4565b8082825260208201915060208360051b860101925085831115614198575f5ffd5b602085015b8381101561415057803583526020928301920161419d565b5f82601f8301126141c4575f5ffd5b81356141d261406e82613fc4565b8082825260208201915060208360051b8601019250858311156141f3575f5ffd5b602085015b838110156141505780356001600160401b03811115614215575f5ffd5b614224886020838a010161415a565b845250602092830192016141f8565b5f82601f830112614242575f5ffd5b813561425061406e82613fc4565b8082825260208201915060208360051b860101925085831115614271575f5ffd5b602085015b838110156141505761428781613e00565b835260209283019201614276565b8015158114613999575f5ffd5b8035613e1681614295565b5f60c082840312156142bd575f5ffd5b6142c5613ee2565b905081356001600160401b038111156142dc575f5ffd5b6142e884828501614051565b82525060208201356001600160401b03811115614303575f5ffd5b61430f848285016141b5565b60208301525060408201356001600160401b0381111561432d575f5ffd5b61433984828501614233565b60408301525060608201356001600160401b03811115614357575f5ffd5b61436384828501614233565b60608301525060808201356001600160401b03811115614381575f5ffd5b61438d8482850161415a565b60808301525061439f60a083016142a2565b60a082015292915050565b5f82601f8301126143b9575f5ffd5b81356143c761406e82613fc4565b8082825260208201915060208360051b8601019250858311156143e8575f5ffd5b602085015b838110156141505780356001600160401b0381111561440a575f5ffd5b86016080818903601f1901121561441f575f5ffd5b614427613f0a565b602082013560028110614438575f5ffd5b815260408201356001600160401b03811115614452575f5ffd5b6144618a602083860101613fe6565b60208301525061447360608301613e00565b60408201526080919091013560608201528352602092830192016143ed565b5f82601f8301126144a1575f5ffd5b81356144af61406e82613fc4565b8082825260208201915060208360051b8601019250858311156144d0575f5ffd5b602085015b838110156141505780356001600160401b038111156144f2575f5ffd5b86016102a0818903601f19011215614508575f5ffd5b614510613f2c565b60208201356001600160401b03811115614528575f5ffd5b6145378a60208386010161415a565b82525060408201356001600160401b03811115614552575f5ffd5b6145618a602083860101613fe6565b60208301525060608281013560408301526080808401359183019190915260a0808401359183019190915260c0808401359183019190915260e08084013591830191909152610100808401359183019190915261012080840135918301919091526101408084013591830191909152610160808401359183019190915261018080840135918301919091526101a080840135918301919091526101c080840135918301919091526101e080840135918301919091526102008301359082015261462d61022083016142a2565b61020082015261464061024083016142a2565b61022082015261465361026083016142a2565b61024082015261466661028083016142a2565b6102608201526146796102a083016142a2565b610280820152845250602092830192016144d5565b5f82601f83011261469d575f5ffd5b81356146ab61406e82613fc4565b8082825260208201915060208360051b8601019250858311156146cc575f5ffd5b602085015b838110156141505780356001600160401b038111156146ee575f5ffd5b860160a0818903601f19011215614703575f5ffd5b61470b613f4f565b60208201356001600160401b03811115614723575f5ffd5b6147328a6020838601016142ad565b82525060408201356001600160401b0381111561474d575f5ffd5b61475c8a6020838601016143aa565b60208301525060608201356001600160401b0381111561477a575f5ffd5b6147898a602083860101614492565b60408301525060808201356001600160401b038111156147a7575f5ffd5b6147b68a602083860101613fe6565b60608301525060a0919091013560808201528352602092830192016146d1565b5f602082840312156147e6575f5ffd5b81356001600160401b038111156147fb575f5ffd5b820160c0818503121561480c575f5ffd5b614814613ee2565b81356001600160401b03811115614829575f5ffd5b614835868285016142ad565b82525060208201356001600160401b03811115614850575f5ffd5b61485c8682850161468e565b60208301525060408201356001600160401b0381111561487a575f5ffd5b61488686828501613fe6565b60408301525061489860608301613e00565b60608201526080828101359082015260a091820135918101919091529392505050565b5f602082016020835280845180835260408501915060408160051b8601019250602086015f5b8281101561495857868503603f19018452815180518087526020918201918088019190600582901b8901015f5b8281101561493f57601f198a830301845261492a828651613d36565b6020958601959490940193915060010161490e565b50975050506020948501949290920191506001016148e1565b50929695505050505050565b5f5f60408385031215614975575f5ffd5b50508035926020909101359150565b5f5f60408385031215614995575f5ffd5b61499e83613e00565b91506149ac60208401613e00565b90509250929050565b5f5f5f5f608085870312156149c8575f5ffd5b6149d185613e00565b9350602085013592506040850135915060608501356149ef81614295565b939692955090935050565b602080825282518282018190525f918401906040840190835b81811015613eaa5783516001600160a01b0316835260209384019390920191600101614a13565b5f602082016020835280845180835260408501915060408160051b8601019250602086015f5b8281101561495857868503603f19018452815180518087526020918201918701905f5b81811015614aa1578351835260209384019390920191600101614a83565b5090965050506020938401939190910190600101614a60565b5f5f60408385031215614acb575f5ffd5b82356001600160401b03811115614ae0575f5ffd5b83016102808186031215614af2575f5ffd5b614afa613f71565b81356001600160401b03811115614b0f575f5ffd5b614b1b87828501613fe6565b8252506020828101359082015260408083013590820152606080830135908201526080808301359082015260a0808301359082015260c0808301359082015260e08083013590820152610100808301359082015261012080830135908201526101408083013590820152610160808301359082015261018080830135908201526101a080830135908201526101c08083013590820152614bbe6101e083016142a2565b6101e0820152614bd161020083016142a2565b610200820152614be461022083016142a2565b610220820152614bf761024083016142a2565b610240820152614c0a61026083016142a2565b61026082015292506149ac905060208401613e00565b5f60208284031215614c30575f5ffd5b81356001600160401b03811115614c45575f5ffd5b614c5184828501613fe6565b949350505050565b5f5f5f60608486031215614c6b575f5ffd5b614c7484613e00565b9250614c8260208501613e00565b929592945050506040919091013590565b634e487b7160e01b5f52601160045260245ffd5b818103818111156113e0576113e0614c93565b634e487b7160e01b5f52603260045260245ffd5b600181811c90821680614ce257607f821691505b602082108103614d0057634e487b7160e01b5f52602260045260245ffd5b50919050565b5f60208284031215614d16575f5ffd5b8151613d7681614295565b5f60018201614d3257614d32614c93565b5060010190565b601f821115612fdf57805f5260205f20601f840160051c81016020851015614d5e5750805b601f840160051c820191505b81811015613974575f8155600101614d6a565b81516001600160401b03811115614d9657614d96613ece565b614daa81614da48454614cce565b84614d39565b6020601f821160018114614ddc575f8315614dc55750848201515b5f19600385901b1c1916600184901b178455613974565b5f84815260208120601f198516915b82811015614e0b5787850151825560209485019460019092019101614deb565b5084821015614e2857868401515f19600387901b60f8161c191681555b50505050600190811b01905550565b5f82518060208501845e5f920191825250919050565b82815260408101614e5d83613dba565b8260208301529392505050565b808201808211156113e0576113e0614c9356fea2646970667358221220a85c7bfc1e8a069549c24da4a2857a7d2b16212c41f620403e05938899156ded64736f6c634300081c00336080604052348015600e575f5ffd5b50610c7d8061001c5f395ff3fe608060405234801561000f575f5ffd5b5060043610610090575f3560e01c80637df8feb9116100635780637df8feb91461012257806395d89b4114610135578063a84bb71b14610154578063e2839eb314610167578063ea89852814610179575f5ffd5b806306fdde031461009457806326dc20f4146100cf578063349f4815146100fa578063485cc9551461010f575b5f5ffd5b60408051808201909152600d81526c4b696e6f72614d65747269637360981b60208201525b6040516100c691906107ca565b60405180910390f35b6001546100e2906001600160a01b031681565b6040516001600160a01b0390911681526020016100c6565b61010d6101083660046108cc565b61018c565b005b61010d61011d366004610a3f565b61039a565b61010d610130366004610a76565b6104f7565b6040805180820190915260038152624b4d4560e81b60208201526100b9565b61010d610162366004610abd565b61064f565b5f546100e2906001600160a01b031681565b61010d610187366004610abd565b6106f5565b6001546040516393247b4360e01b81523360048201525f916001600160a01b0316906393247b4390602401602060405180830381865afa1580156101d2573d5f5f3e3d5ffd5b505050506040513d601f19601f820116820180604052508101906101f69190610ad8565b600154604051635bd6e32360e01b81526001600160a01b038084166004830152929350911690635bd6e32390602401602060405180830381865afa158015610240573d5f5f3e3d5ffd5b505050506040513d601f19601f820116820180604052508101906102649190610af3565b5f03610283576040516313fee0df60e21b815260040160405180910390fd5b6001546040516393247b4360e01b81523360048201525f916001600160a01b0316906393247b4390602401602060405180830381865afa1580156102c9573d5f5f3e3d5ffd5b505050506040513d601f19601f820116820180604052508101906102ed9190610ad8565b600154604051638ac83eb960e01b81529192506001600160a01b031690638ac83eb9906103209086908590600401610b0a565b5f604051808303815f87803b158015610337575f5ffd5b505af1158015610349573d5f5f3e3d5ffd5b505050602080850151604080516001600160a01b0386168152928301919091527f733def1f270eaaa111b264d07d2ddf7df518e2aa42cad46e580f45c9147bd73f92500160405180910390a1505050565b7ff0c57e16840df040f15088dc2f81fe391c3923bec73e23a9662efc9c229c6a008054600160401b810460ff16159067ffffffffffffffff165f811580156103df5750825b90505f8267ffffffffffffffff1660011480156103fb5750303b155b905081158015610409575080155b156104275760405163f92ee8a960e01b815260040160405180910390fd5b845467ffffffffffffffff19166001178555831561045157845460ff60401b1916600160401b1785555b5f546001600160a01b0316156104795760405162dc149f60e41b815260040160405180910390fd5b5f80546001600160a01b03808a166001600160a01b031992831617909255600180549289169290911691909117905583156104ee57845460ff60401b19168555604051600181527fc7f505b2f371ae2175ee4913f4499e1f2633a7b5936321eed1cdaeb6115181d29060200160405180910390a15b50505050505050565b6001546040516355754d4360e11b815260048101859052849133916001600160a01b039091169063aaea9a8690602401602060405180830381865afa158015610542573d5f5f3e3d5ffd5b505050506040513d601f19601f820116820180604052508101906105669190610ad8565b6001600160a01b03161461058d5760405163e6c4247b60e01b815260040160405180910390fd5b600154604051634a43601560e01b81526001600160a01b0387811660048301526024820187905260448201869052841515606483015290911690634a436015906084015f604051808303815f87803b1580156105e7575f5ffd5b505af11580156105f9573d5f5f3e3d5ffd5b5050604080516001600160a01b0389168152602081018890529081018690527f8e3b1c05118d88b7c6887b88e5558509d57649eaeb3b6192be532b132a3bc89b9250606001905060405180910390a15050505050565b5f5460405162a08cef60e31b81523360048201526001600160a01b0390911690630504677890602401602060405180830381865afa158015610693573d5f5f3e3d5ffd5b505050506040513d601f19601f820116820180604052508101906106b79190610c2c565b6106d45760405163e6c4247b60e01b815260040160405180910390fd5b5f80546001600160a01b0319166001600160a01b0392909216919091179055565b5f5460405162a08cef60e31b81523360048201526001600160a01b0390911690630504677890602401602060405180830381865afa158015610739573d5f5f3e3d5ffd5b505050506040513d601f19601f8201168201806040525081019061075d9190610c2c565b61077a5760405163e6c4247b60e01b815260040160405180910390fd5b600180546001600160a01b0319166001600160a01b0392909216919091179055565b5f81518084528060208401602086015e5f602082860101526020601f19601f83011685010191505092915050565b602081525f6107dc602083018461079c565b9392505050565b634e487b7160e01b5f52604160045260245ffd5b604051610280810167ffffffffffffffff8111828210171561081b5761081b6107e3565b60405290565b5f82601f830112610830575f5ffd5b813567ffffffffffffffff81111561084a5761084a6107e3565b604051601f8201601f19908116603f0116810167ffffffffffffffff81118282101715610879576108796107e3565b604052818152838201602001851015610890575f5ffd5b816020850160208301375f918101602001919091529392505050565b80151581146108b9575f5ffd5b50565b80356108c7816108ac565b919050565b5f602082840312156108dc575f5ffd5b813567ffffffffffffffff8111156108f2575f5ffd5b82016102808185031215610904575f5ffd5b61090c6107f7565b813567ffffffffffffffff811115610922575f5ffd5b61092e86828501610821565b8252506020828101359082015260408083013590820152606080830135908201526080808301359082015260a0808301359082015260c0808301359082015260e08083013590820152610100808301359082015261012080830135908201526101408083013590820152610160808301359082015261018080830135908201526101a080830135908201526101c080830135908201526109d16101e083016108bc565b6101e08201526109e461020083016108bc565b6102008201526109f761022083016108bc565b610220820152610a0a61024083016108bc565b610240820152610a1d61026083016108bc565b610260820152949350505050565b6001600160a01b03811681146108b9575f5ffd5b5f5f60408385031215610a50575f5ffd5b8235610a5b81610a2b565b91506020830135610a6b81610a2b565b809150509250929050565b5f5f5f5f60808587031215610a89575f5ffd5b8435610a9481610a2b565b935060208501359250604085013591506060850135610ab2816108ac565b939692955090935050565b5f60208284031215610acd575f5ffd5b81356107dc81610a2b565b5f60208284031215610ae8575f5ffd5b81516107dc81610a2b565b5f60208284031215610b03575f5ffd5b5051919050565b604081525f83516102806040840152610b276102c084018261079c565b90506020850151606084015260408501516080840152606085015160a0840152608085015160c084015260a085015160e084015260c085015161010084015260e08501516101208401526101008501516101408401526101208501516101608401526101408501516101808401526101608501516101a08401526101808501516101c08401526101a08501516101e08401526101c08501516102008401526101e0850151610bda61022085018215159052565b5061020085015115156102408481019190915261022086015115156102608086019190915290860151151561028085015285015115156102a08401526001600160a01b038416602084015290506107dc565b5f60208284031215610c3c575f5ffd5b81516107dc816108ac56fea26469706673582212205d2703f3f22092d0e5c4331be95e80514d0b7f431695b142f532e418a34f73ad64736f6c634300081c0033608060405234801561000f575f5ffd5b506040518060400160405280601081526020016f25b4b737b930a7232a21b932b0ba37b960811b815250604051806040016040528060038152602001624b4e4360e81b815250815f90816100639190610110565b5060016100708282610110565b5050506101ca565b634e487b7160e01b5f52604160045260245ffd5b600181811c908216806100a057607f821691505b6020821081036100be57634e487b7160e01b5f52602260045260245ffd5b50919050565b601f82111561010b57805f5260205f20601f840160051c810160208510156100e95750805b601f840160051c820191505b81811015610108575f81556001016100f5565b50505b505050565b81516001600160401b0381111561012957610129610078565b61013d81610137845461008c565b846100c4565b6020601f82116001811461016f575f83156101585750848201515b5f19600385901b1c1916600184901b178455610108565b5f84815260208120601f198516915b8281101561019e578785015182556020948501946001909201910161017e565b50848210156101bb57868401515f19600387901b60f8161c191681555b50505050600190811b01905550565b61178b806101d75f395ff3fe608060405234801561000f575f5ffd5b5060043610610153575f3560e01c80636f552a7c116100bf578063ad974f4c11610079578063ad974f4c146102d2578063b88d4fde146102da578063c87b56dd146102ed578063e2839eb314610300578063e784c51714610313578063e985e9c514610326575f5ffd5b80636f552a7c1461026b57806370a082311461027e57806395d89b41146102915780639a07e00814610299578063a1d2f568146102ac578063a22cb465146102bf575f5ffd5b80632f745c59116101105780632f745c59146101f957806342842e0e1461020c578063485cc9551461021f5780634ae550cd146102325780634f6ccce7146102455780636352211e14610258575f5ffd5b806301ffc9a71461015757806306fdde031461017f578063081812fc14610194578063095ea7b3146101bf57806318160ddd146101d457806323b872dd146101e6575b5f5ffd5b61016a61016536600461126c565b610339565b60405190151581526020015b60405180910390f35b610187610363565b60405161017691906112bc565b6101a76101a23660046112ce565b6103f2565b6040516001600160a01b039091168152602001610176565b6101d26101cd366004611300565b610419565b005b6008545b604051908152602001610176565b6101d26101f4366004611328565b610428565b6101d8610207366004611300565b6104b6565b6101d261021a366004611328565b610519565b6101d261022d366004611362565b610538565b6101d261024036600461141e565b610686565b6101d86102533660046112ce565b610736565b6101a76102663660046112ce565b61078b565b600b546101a7906001600160a01b031681565b6101d861028c366004611473565b610795565b6101876107da565b6101d26102a7366004611473565b6107e9565b600c546101a7906001600160a01b031681565b6101d26102cd366004611499565b6108aa565b600d546101d8565b6101d26102e83660046114ce565b6108b5565b6101876102fb3660046112ce565b6108cd565b600a546101a7906001600160a01b031681565b6101d2610321366004611473565b61096c565b61016a610334366004611362565b610a14565b5f6001600160e01b0319821663780e9d6360e01b148061035d575061035d82610a41565b92915050565b60605f805461037190611545565b80601f016020809104026020016040519081016040528092919081815260200182805461039d90611545565b80156103e85780601f106103bf576101008083540402835291602001916103e8565b820191905f5260205f20905b8154815290600101906020018083116103cb57829003601f168201915b5050505050905090565b5f6103fc82610a90565b505f828152600460205260409020546001600160a01b031661035d565b610424828233610ac8565b5050565b6001600160a01b03821661045657604051633250574960e11b81525f60048201526024015b60405180910390fd5b5f610462838333610ad5565b9050836001600160a01b0316816001600160a01b0316146104b0576040516364283d7b60e01b81526001600160a01b038086166004830152602482018490528216604482015260640161044d565b50505050565b5f6104c083610795565b82106104f15760405163295f44f760e21b81526001600160a01b03841660048201526024810183905260440161044d565b506001600160a01b03919091165f908152600660209081526040808320938352929052205490565b61053383838360405180602001604052805f8152506108b5565b505050565b5f610541610ba8565b805490915060ff600160401b820416159067ffffffffffffffff165f811580156105685750825b90505f8267ffffffffffffffff1660011480156105845750303b155b905081158015610592575080155b156105b05760405163f92ee8a960e01b815260040160405180910390fd5b845467ffffffffffffffff1916600117855583156105da57845460ff60401b1916600160401b1785555b600a546001600160a01b0316156106035760405162dc149f60e41b815260040160405180910390fd5b600a80546001600160a01b03808a166001600160a01b031992831617909255600c8054928916929091169190911790555f600d55831561067d57845460ff60401b19168555604051600181527fc7f505b2f371ae2175ee4913f4499e1f2633a7b5936321eed1cdaeb6115181d29060200160405180910390a15b50505050505050565b600b546001600160a01b031633146106b1576040516303777f6960e51b815260040160405180910390fd5b600d8054905f6106c083611591565b9091555050600d545f908152600e602052604090206106df83826115ed565b506106ec81600d54610bd0565b600d54604080516001600160a01b038416815260208101929092527fb9144c96c86541f6fa89c9f2f02495cccf4b08cd6643e26d34ee00aa586558a8910160405180910390a15050565b5f61074060085490565b82106107685760405163295f44f760e21b81525f60048201526024810183905260440161044d565b6008828154811061077b5761077b6116a8565b905f5260205f2001549050919050565b5f61035d82610a90565b5f6001600160a01b0382166107bf576040516322718ad960e21b81525f600482015260240161044d565b506001600160a01b03165f9081526003602052604090205490565b60606001805461037190611545565b600a5460405162a08cef60e31b81523360048201526001600160a01b0390911690630504677890602401602060405180830381865afa15801561082e573d5f5f3e3d5ffd5b505050506040513d601f19601f8201168201806040525081019061085291906116bc565b15801561086a5750600c546001600160a01b03163314155b156108885760405163e6c4247b60e01b815260040160405180910390fd5b600b80546001600160a01b0319166001600160a01b0392909216919091179055565b610424338383610be9565b6108c0848484610428565b6104b03385858585610c87565b5f818152600e602052604090208054606091906108e990611545565b80601f016020809104026020016040519081016040528092919081815260200182805461091590611545565b80156109605780601f1061093757610100808354040283529160200191610960565b820191905f5260205f20905b81548152906001019060200180831161094357829003601f168201915b50505050509050919050565b600a5460405162a08cef60e31b81523360048201526001600160a01b0390911690630504677890602401602060405180830381865afa1580156109b1573d5f5f3e3d5ffd5b505050506040513d601f19601f820116820180604052508101906109d591906116bc565b6109f25760405163e6c4247b60e01b815260040160405180910390fd5b600a80546001600160a01b0319166001600160a01b0392909216919091179055565b6001600160a01b039182165f90815260056020908152604080832093909416825291909152205460ff1690565b5f6001600160e01b031982166380ac58cd60e01b1480610a7157506001600160e01b03198216635b5e139f60e01b145b8061035d57506301ffc9a760e01b6001600160e01b031983161461035d565b5f818152600260205260408120546001600160a01b03168061035d57604051637e27328960e01b81526004810184905260240161044d565b6105338383836001610daf565b5f5f610ae2858585610eb3565b90506001600160a01b038116610b3e57610b3984600880545f838152600960205260408120829055600182018355919091527ff3f7a9fe364faab93b216da50a3214154f22a0a2b415b23a84c8169e8b636ee30155565b610b61565b846001600160a01b0316816001600160a01b031614610b6157610b618185610fa5565b6001600160a01b038516610b7d57610b7884611022565b610ba0565b846001600160a01b0316816001600160a01b031614610ba057610ba085856110c9565b949350505050565b5f807ff0c57e16840df040f15088dc2f81fe391c3923bec73e23a9662efc9c229c6a0061035d565b610424828260405180602001604052805f815250611117565b6001600160a01b038216610c1b57604051630b61174360e31b81526001600160a01b038316600482015260240161044d565b6001600160a01b038381165f81815260056020908152604080832094871680845294825291829020805460ff191686151590811790915591519182527f17307eab39ab6107e8899845ad3d59bd9653f200f220920489ca2b5937696c31910160405180910390a3505050565b6001600160a01b0383163b15610da857604051630a85bd0160e11b81526001600160a01b0384169063150b7a0290610cc99088908890879087906004016116d7565b6020604051808303815f875af1925050508015610d03575060408051601f3d908101601f19168201909252610d0091810190611713565b60015b610d6a573d808015610d30576040519150601f19603f3d011682016040523d82523d5f602084013e610d35565b606091505b5080515f03610d6257604051633250574960e11b81526001600160a01b038516600482015260240161044d565b805181602001fd5b6001600160e01b03198116630a85bd0160e11b14610da657604051633250574960e11b81526001600160a01b038516600482015260240161044d565b505b5050505050565b8080610dc357506001600160a01b03821615155b15610e84575f610dd284610a90565b90506001600160a01b03831615801590610dfe5750826001600160a01b0316816001600160a01b031614155b8015610e115750610e0f8184610a14565b155b15610e3a5760405163a9fbf51f60e01b81526001600160a01b038416600482015260240161044d565b8115610e825783856001600160a01b0316826001600160a01b03167f8c5be1e5ebec7d5bd14f71427d1e84f3dd0314c0f7b2291e5b200ac8c7c3b92560405160405180910390a45b505b50505f90815260046020526040902080546001600160a01b0319166001600160a01b0392909216919091179055565b5f828152600260205260408120546001600160a01b0390811690831615610edf57610edf81848661112e565b6001600160a01b03811615610f1957610efa5f855f5f610daf565b6001600160a01b0381165f90815260036020526040902080545f190190555b6001600160a01b03851615610f47576001600160a01b0385165f908152600360205260409020805460010190555b5f8481526002602052604080822080546001600160a01b0319166001600160a01b0389811691821790925591518793918516917fddf252ad1be2c89b69c2b068fc378daa952ba7f163c4a11628f55a4df523b3ef91a4949350505050565b5f610faf83610795565b5f838152600760209081526040808320546001600160a01b0388168452600690925290912091925090818314611004575f83815260208281526040808320548584528184208190558352600790915290208290555b5f938452600760209081526040808620869055938552525081205550565b6008545f906110339060019061172e565b5f838152600960205260408120546008805493945090928490811061105a5761105a6116a8565b905f5260205f20015490508060088381548110611079576110796116a8565b5f9182526020808320909101929092558281526009909152604080822084905585825281205560088054806110b0576110b0611741565b600190038181905f5260205f20015f9055905550505050565b5f60016110d584610795565b6110df919061172e565b6001600160a01b039093165f908152600660209081526040808320868452825280832085905593825260079052919091209190915550565b6111218383611192565b610533335f858585610c87565b6111398383836111f3565b610533576001600160a01b03831661116757604051637e27328960e01b81526004810182905260240161044d565b60405163177e802f60e01b81526001600160a01b03831660048201526024810182905260440161044d565b6001600160a01b0382166111bb57604051633250574960e11b81525f600482015260240161044d565b5f6111c783835f610ad5565b90506001600160a01b03811615610533576040516339e3563760e11b81525f600482015260240161044d565b5f6001600160a01b03831615801590610ba05750826001600160a01b0316846001600160a01b0316148061122c575061122c8484610a14565b80610ba05750505f908152600460205260409020546001600160a01b03908116911614919050565b6001600160e01b031981168114611269575f5ffd5b50565b5f6020828403121561127c575f5ffd5b813561128781611254565b9392505050565b5f81518084528060208401602086015e5f602082860101526020601f19601f83011685010191505092915050565b602081525f611287602083018461128e565b5f602082840312156112de575f5ffd5b5035919050565b80356001600160a01b03811681146112fb575f5ffd5b919050565b5f5f60408385031215611311575f5ffd5b61131a836112e5565b946020939093013593505050565b5f5f5f6060848603121561133a575f5ffd5b611343846112e5565b9250611351602085016112e5565b929592945050506040919091013590565b5f5f60408385031215611373575f5ffd5b61137c836112e5565b915061138a602084016112e5565b90509250929050565b634e487b7160e01b5f52604160045260245ffd5b5f5f67ffffffffffffffff8411156113c1576113c1611393565b50604051601f19601f85018116603f0116810181811067ffffffffffffffff821117156113f0576113f0611393565b604052838152905080828401851015611407575f5ffd5b838360208301375f60208583010152509392505050565b5f5f6040838503121561142f575f5ffd5b823567ffffffffffffffff811115611445575f5ffd5b8301601f81018513611455575f5ffd5b611464858235602084016113a7565b92505061138a602084016112e5565b5f60208284031215611483575f5ffd5b611287826112e5565b8015158114611269575f5ffd5b5f5f604083850312156114aa575f5ffd5b6114b3836112e5565b915060208301356114c38161148c565b809150509250929050565b5f5f5f5f608085870312156114e1575f5ffd5b6114ea856112e5565b93506114f8602086016112e5565b925060408501359150606085013567ffffffffffffffff81111561151a575f5ffd5b8501601f8101871361152a575f5ffd5b611539878235602084016113a7565b91505092959194509250565b600181811c9082168061155957607f821691505b60208210810361157757634e487b7160e01b5f52602260045260245ffd5b50919050565b634e487b7160e01b5f52601160045260245ffd5b5f600182016115a2576115a261157d565b5060010190565b601f82111561053357805f5260205f20601f840160051c810160208510156115ce5750805b601f840160051c820191505b81811015610da8575f81556001016115da565b815167ffffffffffffffff81111561160757611607611393565b61161b816116158454611545565b846115a9565b6020601f82116001811461164d575f83156116365750848201515b5f19600385901b1c1916600184901b178455610da8565b5f84815260208120601f198516915b8281101561167c578785015182556020948501946001909201910161165c565b508482101561169957868401515f19600387901b60f8161c191681555b50505050600190811b01905550565b634e487b7160e01b5f52603260045260245ffd5b5f602082840312156116cc575f5ffd5b81516112878161148c565b6001600160a01b03858116825284166020820152604081018390526080606082018190525f906117099083018461128e565b9695505050505050565b5f60208284031215611723575f5ffd5b815161128781611254565b8181038181111561035d5761035d61157d565b634e487b7160e01b5f52603160045260245ffdfea2646970667358221220708c9e2f3fce2f42948085984a83a82f9035b233629a63585cdea5d29ba2db8d64736f6c634300081c0033746f6b656e4f664f776e65724279496e64657828616464726573732c75696e7432353629a26469706673582212202af12e4d4ebdee8134fc6d8bf94256e8913a144dd7f86fa96425d01b4c22724364736f6c634300081c0033","linkReferences":{}},"methodIdentifiers":{"configure(address,address,uint256,(bytes32,bytes)[])":"b9d62c16","execute(address,address,uint256,(bytes32,bytes)[])":"65822213","getContractFactoryId(uint256)":"219352cb","getContractFactoryMap(uint256)":"150e0b1e","getKinoraMilestoneCheckLogicAddress()":"f6fa4faf","getQuestId(uint256,uint256)":"a316dee5","getTotalContractFactoryCount()":"4daa3e88","setDisabled(address,address,uint256,bool,(bytes32,bytes)[])":"89399c6d"},"id":44}