{"abi":[{"type":"function","name":"deleteQuest","inputs":[{"name":"questId","type":"uint256","internalType":"uint256"}],"outputs":[],"stateMutability":"nonpayable"},{"type":"function","name":"depositERC20","inputs":[{"name":"tokenAddress","type":"address","internalType":"address"},{"name":"amount","type":"uint256","internalType":"uint256"},{"name":"questId","type":"uint256","internalType":"uint256"},{"name":"milestone","type":"uint256","internalType":"uint256"}],"outputs":[],"stateMutability":"nonpayable"},{"type":"function","name":"depositERC721","inputs":[{"name":"uri","type":"string","internalType":"string"},{"name":"questId","type":"uint256","internalType":"uint256"},{"name":"milestone","type":"uint256","internalType":"uint256"},{"name":"rewardIndex","type":"uint256","internalType":"uint256"}],"outputs":[],"stateMutability":"nonpayable"},{"type":"function","name":"emergencyWithdrawERC20","inputs":[{"name":"toAddress","type":"address","internalType":"address"},{"name":"questId","type":"uint256","internalType":"uint256"}],"outputs":[],"stateMutability":"nonpayable"},{"type":"function","name":"getKinoraQuestDataAddress","inputs":[],"outputs":[{"name":"","type":"address","internalType":"address"}],"stateMutability":"view"},{"type":"function","name":"getQuestMilestoneERC20TotalDeposit","inputs":[{"name":"tokenAddress","type":"address","internalType":"address"},{"name":"questId","type":"uint256","internalType":"uint256"},{"name":"milestone","type":"uint256","internalType":"uint256"}],"outputs":[{"name":"","type":"uint256","internalType":"uint256"}],"stateMutability":"view"},{"type":"function","name":"getQuestMilestoneERC721URI","inputs":[{"name":"questId","type":"uint256","internalType":"uint256"},{"name":"milestone","type":"uint256","internalType":"uint256"},{"name":"rewardIndex","type":"uint256","internalType":"uint256"}],"outputs":[{"name":"","type":"string","internalType":"string"}],"stateMutability":"view"},{"type":"function","name":"initialize","inputs":[{"name":"kinoraAccessAddress","type":"address","internalType":"address"},{"name":"kinoraQuestDataAddress","type":"address","internalType":"address"},{"name":"kinoraNFTCreatorAddress","type":"address","internalType":"address"},{"name":"kinoraOpenActionAddress","type":"address","internalType":"address"}],"outputs":[],"stateMutability":"nonpayable"},{"type":"function","name":"kinoraAccess","inputs":[],"outputs":[{"name":"","type":"address","internalType":"contract KinoraAccessControl"}],"stateMutability":"view"},{"type":"function","name":"kinoraNFTCreator","inputs":[],"outputs":[{"name":"","type":"address","internalType":"contract KinoraNFTCreator"}],"stateMutability":"view"},{"type":"function","name":"kinoraOpenAction","inputs":[],"outputs":[{"name":"","type":"address","internalType":"address"}],"stateMutability":"view"},{"type":"function","name":"kinoraQuestData","inputs":[],"outputs":[{"name":"","type":"address","internalType":"contract KinoraQuestData"}],"stateMutability":"view"},{"type":"function","name":"mintERC721","inputs":[{"name":"playerAddress","type":"address","internalType":"address"},{"name":"questId","type":"uint256","internalType":"uint256"},{"name":"milestone","type":"uint256","internalType":"uint256"},{"name":"rewardIndex","type":"uint256","internalType":"uint256"}],"outputs":[],"stateMutability":"nonpayable"},{"type":"function","name":"name","inputs":[],"outputs":[{"name":"","type":"string","internalType":"string"}],"stateMutability":"pure"},{"type":"function","name":"setKinoraAccessContract","inputs":[{"name":"newAccessContract","type":"address","internalType":"address"}],"outputs":[],"stateMutability":"nonpayable"},{"type":"function","name":"setKinoraNFTCreatorContract","inputs":[{"name":"newNFTCreatorContract","type":"address","internalType":"address"}],"outputs":[],"stateMutability":"nonpayable"},{"type":"function","name":"setKinoraOpenActionContract","inputs":[{"name":"newOpenActionContract","type":"address","internalType":"address"}],"outputs":[],"stateMutability":"nonpayable"},{"type":"function","name":"setKinoraQuestDataContract","inputs":[{"name":"newQuestDataContract","type":"address","internalType":"address"}],"outputs":[],"stateMutability":"nonpayable"},{"type":"function","name":"symbol","inputs":[],"outputs":[{"name":"","type":"string","internalType":"string"}],"stateMutability":"pure"},{"type":"function","name":"withdrawERC20","inputs":[{"name":"toAddress","type":"address","internalType":"address"},{"name":"questId","type":"uint256","internalType":"uint256"},{"name":"milestone","type":"uint256","internalType":"uint256"},{"name":"rewardIndex","type":"uint256","internalType":"uint256"}],"outputs":[],"stateMutability":"nonpayable"},{"type":"event","name":"ERC20Deposited","inputs":[{"name":"tokenAddress","type":"address","indexed":false,"internalType":"address"},{"name":"amount","type":"uint256","indexed":false,"internalType":"uint256"},{"name":"questId","type":"uint256","indexed":false,"internalType":"uint256"},{"name":"milestone","type":"uint256","indexed":false,"internalType":"uint256"}],"anonymous":false},{"type":"event","name":"ERC20Withdrawn","inputs":[{"name":"toAddress","type":"address","indexed":false,"internalType":"address"},{"name":"questId","type":"uint256","indexed":false,"internalType":"uint256"},{"name":"milestone","type":"uint256","indexed":false,"internalType":"uint256"}],"anonymous":false},{"type":"event","name":"ERC721Minted","inputs":[{"name":"playerAddress","type":"address","indexed":false,"internalType":"address"},{"name":"questId","type":"uint256","indexed":false,"internalType":"uint256"},{"name":"milestone","type":"uint256","indexed":false,"internalType":"uint256"}],"anonymous":false},{"type":"event","name":"ERC721URISet","inputs":[{"name":"uri","type":"string","indexed":false,"internalType":"string"},{"name":"questId","type":"uint256","indexed":false,"internalType":"uint256"},{"name":"milestone","type":"uint256","indexed":false,"internalType":"uint256"}],"anonymous":false},{"type":"event","name":"EmergencyERC20Withdrawn","inputs":[{"name":"toAddress","type":"address","indexed":false,"internalType":"address"},{"name":"questId","type":"uint256","indexed":false,"internalType":"uint256"}],"anonymous":false},{"type":"event","name":"Initialized","inputs":[{"name":"version","type":"uint64","indexed":false,"internalType":"uint64"}],"anonymous":false},{"type":"error","name":"AlreadyInitialized","inputs":[]},{"type":"error","name":"InvalidAddress","inputs":[]},{"type":"error","name":"InvalidContract","inputs":[]},{"type":"error","name":"InvalidInitialization","inputs":[]},{"type":"error","name":"NotInitializing","inputs":[]},{"type":"error","name":"QuestClosed","inputs":[]},{"type":"error","name":"QuestDoesntExist","inputs":[]}],"bytecode":{"object":"0x6080604052348015600e575f5ffd5b50611bdd8061001c5f395ff3fe608060405234801561000f575f5ffd5b5060043610610127575f3560e01c806395d89b41116100a9578063e2839eb31161006e578063e2839eb3146102a1578063e784c517146102b3578063f68451e8146102c6578063f8c8765e146102d9578063fbddeb7b146102ec575f5ffd5b806395d89b41146102385780639cfd3be514610257578063a1d2f5681461026a578063deed1c881461027d578063df29b9821461028e575f5ffd5b80633d9df04d116100ef5780633d9df04d146101cb57806367aef06e146101de5780636e48b271146101f157806376f41b43146102045780637f49983114610217575f5ffd5b806306fdde031461012b57806307e2856214610165578063103d36b81461017a57806326dc20f41461018d578063279f7ac9146101b8575b5f5ffd5b60408051808201909152600c81526b4b696e6f7261457363726f7760a01b60208201525b60405161015c9190611675565b60405180910390f35b61017861017336600461169e565b6102ff565b005b6101786101883660046116d6565b6105dd565b6001546101a0906001600160a01b031681565b6040516001600160a01b03909116815260200161015c565b6101786101c63660046116ed565b6106ef565b6101786101d93660046116ed565b610796565b6101786101ec36600461169e565b61083d565b6101786101ff36600461169e565b6109e8565b61017861021236600461171c565b610afe565b61022a6102253660046117e2565b610b87565b60405190815260200161015c565b6040805180820190915260038152624b455360e81b602082015261014f565b61014f610265366004611814565b610bd9565b6003546101a0906001600160a01b031681565b6001546001600160a01b03166101a0565b61017861029c36600461183d565b610ca0565b5f546101a0906001600160a01b031681565b6101786102c13660046116ed565b61136c565b6002546101a0906001600160a01b031681565b6101786102e7366004611867565b611412565b6101786102fa3660046116ed565b611576565b6003546001600160a01b0316331461032a576040516303777f6960e51b815260040160405180910390fd5b600154604051631e5bf3ed60e11b8152600481018590525f916001600160a01b031690633cb7e7da90602401602060405180830381865afa158015610371573d5f5f3e3d5ffd5b505050506040513d601f19601f8201168201806040525081019061039591906118e0565b60018111156103a6576103a66118c0565b146103c457604051633e5a55b960e01b815260040160405180910390fd5b600154604051637769dcd960e01b81526004810185905260248101839052604481018490525f916001600160a01b031690637769dcd990606401602060405180830381865afa158015610419573d5f5f3e3d5ffd5b505050506040513d601f19601f8201168201806040525081019061043d91906118fb565b60015460405163038b4cb960e31b81526004810187905260248101859052604481018690529192505f916001600160a01b0390911690631c5a65c890606401602060405180830381865afa158015610497573d5f5f3e3d5ffd5b505050506040513d601f19601f820116820180604052508101906104bb9190611912565b60405163a9059cbb60e01b81526001600160a01b038881166004830152602482018590529192509082169063a9059cbb906044016020604051808303815f875af115801561050b573d5f5f3e3d5ffd5b505050506040513d601f19601f8201168201806040525081019061052f919061192d565b505f858152600460205260408120839161054a600188611960565b81526020019081526020015f205f836001600160a01b03166001600160a01b031681526020019081526020015f205f8282546105869190611960565b9091555050604080516001600160a01b0388168152602081018790529081018590527f0838c06112bb6dd1f7c31dfef4d4462949cad25080c9fb92ab77f6f568856b569060600160405180910390a1505050505050565b6003546001600160a01b03163314610608576040516303777f6960e51b815260040160405180910390fd5b600154604051631e5bf3ed60e11b8152600481018390525f916001600160a01b031690633cb7e7da90602401602060405180830381865afa15801561064f573d5f5f3e3d5ffd5b505050506040513d601f19601f8201168201806040525081019061067391906118e0565b6001811115610684576106846118c0565b03610693576106933382610ca0565b600154604051630207a6d760e31b8152600481018390526001600160a01b039091169063103d36b8906024015f604051808303815f87803b1580156106d6575f5ffd5b505af11580156106e8573d5f5f3e3d5ffd5b5050505050565b5f5460405162a08cef60e31b81523360048201526001600160a01b0390911690630504677890602401602060405180830381865afa158015610733573d5f5f3e3d5ffd5b505050506040513d601f19601f82011682018060405250810190610757919061192d565b6107745760405163e6c4247b60e01b815260040160405180910390fd5b600380546001600160a01b0319166001600160a01b0392909216919091179055565b5f5460405162a08cef60e31b81523360048201526001600160a01b0390911690630504677890602401602060405180830381865afa1580156107da573d5f5f3e3d5ffd5b505050506040513d601f19601f820116820180604052508101906107fe919061192d565b61081b5760405163e6c4247b60e01b815260040160405180910390fd5b600280546001600160a01b0319166001600160a01b0392909216919091179055565b6003546001600160a01b03163314610868576040516303777f6960e51b815260040160405180910390fd5b600154604051631e5bf3ed60e11b8152600481018590525f916001600160a01b031690633cb7e7da90602401602060405180830381865afa1580156108af573d5f5f3e3d5ffd5b505050506040513d601f19601f820116820180604052508101906108d391906118e0565b60018111156108e4576108e46118c0565b1461090257604051633e5a55b960e01b815260040160405180910390fd5b6002545f8481526005602052604081206001600160a01b0390921691634ae550cd9161092f600187611960565b81526020019081526020015f205f8481526020019081526020015f20866040518363ffffffff1660e01b81526004016109699291906119ab565b5f604051808303815f87803b158015610980575f5ffd5b505af1158015610992573d5f5f3e3d5ffd5b5050604080516001600160a01b0388168152602081018790529081018590527f1597bd0ae8eb4347493dfc0b967c2c6c8e45ac6ac0e475673888bcea7346115d925060600190505b60405180910390a150505050565b6003546001600160a01b03163314610a13576040516303777f6960e51b815260040160405180910390fd5b6003546040516323b872dd60e01b81526001600160a01b03918216600482015230602482015260448101859052908516906323b872dd906064016020604051808303815f875af1158015610a69573d5f5f3e3d5ffd5b505050506040513d601f19601f82011682018060405250810190610a8d919061192d565b505f82815260046020908152604080832084845282528083206001600160a01b0388168085529083529281902086905580519283529082018590528101839052606081018290527f096f928cee9d65c5cb3c233db14392910dca29490a3e05c29b882a16e8acb94a906080016109da565b6003546001600160a01b03163314610b29576040516303777f6960e51b815260040160405180910390fd5b5f83815260056020908152604080832085845282528083208484529091529020610b538582611a89565b507f1a4b88e7ed58249270891266f8091dca3c90e8383cb59bb944c7dc6fe1e9e1968484846040516109da93929190611b44565b5f82815260046020526040812081610ba0600185611960565b81526020019081526020015f205f856001600160a01b03166001600160a01b031681526020019081526020015f205490505b9392505050565b5f838152600560205260408120606091610bf4600186611960565b81526020019081526020015f205f8381526020019081526020015f208054610c1b90611973565b80601f0160208091040260200160405190810160405280929190818152602001828054610c4790611973565b8015610c925780601f10610c6957610100808354040283529160200191610c92565b820191905f5260205f20905b815481529060010190602001808311610c7557829003601f168201915b505050505090509392505050565b6001546040516355754d4360e11b81526004810183905233916001600160a01b03169063aaea9a8690602401602060405180830381865afa158015610ce7573d5f5f3e3d5ffd5b505050506040513d601f19601f82011682018060405250810190610d0b9190611912565b6001600160a01b031614158015610d225750333014155b15610d405760405163e6c4247b60e01b815260040160405180910390fd5b6001546040516355754d4360e11b8152600481018390525f916001600160a01b03169063aaea9a8690602401602060405180830381865afa158015610d87573d5f5f3e3d5ffd5b505050506040513d601f19601f82011682018060405250810190610dab9190611912565b6001600160a01b031603610dd25760405163627ed5b360e01b815260040160405180910390fd5b600154604051630c2010e560e41b8152600481018390525f916001600160a01b03169063c2010e5090602401602060405180830381865afa158015610e19573d5f5f3e3d5ffd5b505050506040513d601f19601f82011682018060405250810190610e3d91906118fb565b90505f5b818110156112ca57600180545f916001600160a01b039091169063a15b30ba908690610e6e908690611b68565b6040516001600160e01b031960e085901b16815260048101929092526024820152604401602060405180830381865afa158015610ead573d5f5f3e3d5ffd5b505050506040513d601f19601f82011682018060405250810190610ed191906118fb565b90505f805b82811015610f99575f600180546001600160a01b031690630d05962d9089908590610f02908a90611b68565b6040516001600160e01b031960e086901b168152600481019390935260248301919091526044820152606401602060405180830381865afa158015610f49573d5f5f3e3d5ffd5b505050506040513d601f19601f82011682018060405250810190610f6d91906118e0565b6001811115610f7e57610f7e6118c0565b03610f915781610f8d81611b7b565b9250505b600101610ed6565b505f8167ffffffffffffffff811115610fb457610fb4611708565b604051908082528060200260200182016040528015610fdd578160200160208202803683370190505b5090505f805b8481101561115e575f600180546001600160a01b031690630d05962d908b90859061100f908c90611b68565b6040516001600160e01b031960e086901b168152600481019390935260248301919091526044820152606401602060405180830381865afa158015611056573d5f5f3e3d5ffd5b505050506040513d601f19601f8201168201806040525081019061107a91906118e0565b600181111561108b5761108b6118c0565b0361115657600180546001600160a01b031690631c5a65c8908a9084906110b3908b90611b68565b6040516001600160e01b031960e086901b168152600481019390935260248301919091526044820152606401602060405180830381865afa1580156110fa573d5f5f3e3d5ffd5b505050506040513d601f19601f8201168201806040525081019061111e9190611912565b83838151811061113057611130611b93565b6001600160a01b03909216602092830291909101909101528161115281611b7b565b9250505b600101610fe3565b505f5b82518110156112b95782818151811061117c5761117c611b93565b60200260200101516001600160a01b031663a9059cbb8a60045f8c81526020019081526020015f205f8a81526020019081526020015f205f8786815181106111c6576111c6611b93565b60200260200101516001600160a01b03166001600160a01b031681526020019081526020015f20546040518363ffffffff1660e01b815260040161121f9291906001600160a01b03929092168252602082015260400190565b6020604051808303815f875af115801561123b573d5f5f3e3d5ffd5b505050506040513d601f19601f8201168201806040525081019061125f919061192d565b505f88815260046020908152604080832089845290915281208451829086908590811061128e5761128e611b93565b6020908102919091018101516001600160a01b031682528101919091526040015f2055600101611161565b505060019093019250610e41915050565b5060015460405163ca223ba560e01b8152600481018490526001600160a01b039091169063ca223ba5906024015f604051808303815f87803b15801561130e575f5ffd5b505af1158015611320573d5f5f3e3d5ffd5b5050604080516001600160a01b0387168152602081018690527f92e39f7df2c623ce2e69bbf1af49ba0fb2749b5855aab707652065d349118ccf935001905060405180910390a1505050565b5f5460405162a08cef60e31b81523360048201526001600160a01b0390911690630504677890602401602060405180830381865afa1580156113b0573d5f5f3e3d5ffd5b505050506040513d601f19601f820116820180604052508101906113d4919061192d565b6113f15760405163e6c4247b60e01b815260040160405180910390fd5b5f80546001600160a01b0319166001600160a01b0392909216919091179055565b5f61141b61161d565b805490915060ff600160401b820416159067ffffffffffffffff165f811580156114425750825b90505f8267ffffffffffffffff16600114801561145e5750303b155b90508115801561146c575080155b1561148a5760405163f92ee8a960e01b815260040160405180910390fd5b845467ffffffffffffffff1916600117855583156114b457845460ff60401b1916600160401b1785555b5f546001600160a01b0316156114dc5760405162dc149f60e41b815260040160405180910390fd5b5f80546001600160a01b03808c166001600160a01b031992831617909255600180548b8416908316179055600280548a84169083161790556003805492891692909116919091179055831561156b57845460ff60401b19168555604051600181527fc7f505b2f371ae2175ee4913f4499e1f2633a7b5936321eed1cdaeb6115181d29060200160405180910390a15b505050505050505050565b5f5460405162a08cef60e31b81523360048201526001600160a01b0390911690630504677890602401602060405180830381865afa1580156115ba573d5f5f3e3d5ffd5b505050506040513d601f19601f820116820180604052508101906115de919061192d565b6115fb5760405163e6c4247b60e01b815260040160405180910390fd5b600180546001600160a01b0319166001600160a01b0392909216919091179055565b5f807ff0c57e16840df040f15088dc2f81fe391c3923bec73e23a9662efc9c229c6a005b92915050565b5f81518084528060208401602086015e5f602082860101526020601f19601f83011685010191505092915050565b602081525f610bd26020830184611647565b6001600160a01b038116811461169b575f5ffd5b50565b5f5f5f5f608085870312156116b1575f5ffd5b84356116bc81611687565b966020860135965060408601359560600135945092505050565b5f602082840312156116e6575f5ffd5b5035919050565b5f602082840312156116fd575f5ffd5b8135610bd281611687565b634e487b7160e01b5f52604160045260245ffd5b5f5f5f5f6080858703121561172f575f5ffd5b843567ffffffffffffffff811115611745575f5ffd5b8501601f81018713611755575f5ffd5b803567ffffffffffffffff81111561176f5761176f611708565b604051601f8201601f19908116603f0116810167ffffffffffffffff8111828210171561179e5761179e611708565b6040528181528282016020018910156117b5575f5ffd5b816020840160208301375f6020928201830152989087013597506040870135966060013595509350505050565b5f5f5f606084860312156117f4575f5ffd5b83356117ff81611687565b95602085013595506040909401359392505050565b5f5f5f60608486031215611826575f5ffd5b505081359360208301359350604090920135919050565b5f5f6040838503121561184e575f5ffd5b823561185981611687565b946020939093013593505050565b5f5f5f5f6080858703121561187a575f5ffd5b843561188581611687565b9350602085013561189581611687565b925060408501356118a581611687565b915060608501356118b581611687565b939692955090935050565b634e487b7160e01b5f52602160045260245ffd5b6002811061169b575f5ffd5b5f602082840312156118f0575f5ffd5b8151610bd2816118d4565b5f6020828403121561190b575f5ffd5b5051919050565b5f60208284031215611922575f5ffd5b8151610bd281611687565b5f6020828403121561193d575f5ffd5b81518015158114610bd2575f5ffd5b634e487b7160e01b5f52601160045260245ffd5b818103818111156116415761164161194c565b600181811c9082168061198757607f821691505b6020821081036119a557634e487b7160e01b5f52602260045260245ffd5b50919050565b604081525f5f84546119bc81611973565b806040860152600182165f81146119da57600181146119f657611a27565b60ff1983166060870152606082151560051b8701019350611a27565b875f5260205f205f5b83811015611a1e578154888201606001526001909101906020016119ff565b87016060019450505b5050506001600160a01b03841660208401529050610bd2565b601f821115611a8457805f5260205f20601f840160051c81016020851015611a655750805b601f840160051c820191505b818110156106e8575f8155600101611a71565b505050565b815167ffffffffffffffff811115611aa357611aa3611708565b611ab781611ab18454611973565b84611a40565b6020601f821160018114611ae9575f8315611ad25750848201515b5f19600385901b1c1916600184901b1784556106e8565b5f84815260208120601f198516915b82811015611b185787850151825560209485019460019092019101611af8565b5084821015611b3557868401515f19600387901b60f8161c191681555b50505050600190811b01905550565b606081525f611b566060830186611647565b60208301949094525060400152919050565b808201808211156116415761164161194c565b5f60018201611b8c57611b8c61194c565b5060010190565b634e487b7160e01b5f52603260045260245ffdfea2646970667358221220e0eef00c65c3fdca03c80736a058842eb9a35412ceecdbc1649d3350ae77072164736f6c634300081c0033","linkReferences":{}},"methodIdentifiers":{"deleteQuest(uint256)":"103d36b8","depositERC20(address,uint256,uint256,uint256)":"6e48b271","depositERC721(string,uint256,uint256,uint256)":"76f41b43","emergencyWithdrawERC20(address,uint256)":"df29b982","getKinoraQuestDataAddress()":"deed1c88","getQuestMilestoneERC20TotalDeposit(address,uint256,uint256)":"7f499831","getQuestMilestoneERC721URI(uint256,uint256,uint256)":"9cfd3be5","initialize(address,address,address,address)":"f8c8765e","kinoraAccess()":"e2839eb3","kinoraNFTCreator()":"f68451e8","kinoraOpenAction()":"a1d2f568","kinoraQuestData()":"26dc20f4","mintERC721(address,uint256,uint256,uint256)":"67aef06e","name()":"06fdde03","setKinoraAccessContract(address)":"e784c517","setKinoraNFTCreatorContract(address)":"3d9df04d","setKinoraOpenActionContract(address)":"279f7ac9","setKinoraQuestDataContract(address)":"fbddeb7b","symbol()":"95d89b41","withdrawERC20(address,uint256,uint256,uint256)":"07e28562"},"id":41}