{"abi":[{"type":"function","name":"addEnvoker","inputs":[{"name":"_envoker","type":"address","internalType":"address"}],"outputs":[],"stateMutability":"nonpayable"},{"type":"function","name":"changeCoreEnvoker","inputs":[{"name":"newEnvoker","type":"address","internalType":"address"}],"outputs":[],"stateMutability":"nonpayable"},{"type":"function","name":"getKinoraEscrow","inputs":[],"outputs":[{"name":"","type":"address","internalType":"address"}],"stateMutability":"view"},{"type":"function","name":"getKinoraMetrics","inputs":[],"outputs":[{"name":"","type":"address","internalType":"address"}],"stateMutability":"view"},{"type":"function","name":"getKinoraNFTCreator","inputs":[],"outputs":[{"name":"","type":"address","internalType":"address"}],"stateMutability":"view"},{"type":"function","name":"getKinoraOpenAction","inputs":[],"outputs":[{"name":"","type":"address","internalType":"address"}],"stateMutability":"view"},{"type":"function","name":"getKinoraQuestData","inputs":[],"outputs":[{"name":"","type":"address","internalType":"address"}],"stateMutability":"view"},{"type":"function","name":"initialize","inputs":[{"name":"coreEnvokerAddress","type":"address","internalType":"address"},{"name":"kinoraOpenActionAddress","type":"address","internalType":"address"}],"outputs":[],"stateMutability":"nonpayable"},{"type":"function","name":"isCoreEnvoker","inputs":[],"outputs":[{"name":"","type":"address","internalType":"address"}],"stateMutability":"view"},{"type":"function","name":"isEnvoker","inputs":[{"name":"envoker","type":"address","internalType":"address"}],"outputs":[{"name":"","type":"bool","internalType":"bool"}],"stateMutability":"view"},{"type":"function","name":"name","inputs":[],"outputs":[{"name":"","type":"string","internalType":"string"}],"stateMutability":"pure"},{"type":"function","name":"removeEnvoker","inputs":[{"name":"_envoker","type":"address","internalType":"address"}],"outputs":[],"stateMutability":"nonpayable"},{"type":"function","name":"setRelatedContract","inputs":[{"name":"_kinoraEscrowAddress","type":"address","internalType":"address"},{"name":"_kinoraQuestDataAddress","type":"address","internalType":"address"},{"name":"_kinoraMetricsAddress","type":"address","internalType":"address"},{"name":"_kinoraNFTCreatorAddress","type":"address","internalType":"address"}],"outputs":[],"stateMutability":"nonpayable"},{"type":"function","name":"symbol","inputs":[],"outputs":[{"name":"","type":"string","internalType":"string"}],"stateMutability":"pure"},{"type":"event","name":"CoreEnvokerChanged","inputs":[{"name":"newEnvoker","type":"address","indexed":true,"internalType":"address"}],"anonymous":false},{"type":"event","name":"EnvokerAdded","inputs":[{"name":"envoker","type":"address","indexed":true,"internalType":"address"}],"anonymous":false},{"type":"event","name":"EnvokerRemoved","inputs":[{"name":"envoker","type":"address","indexed":true,"internalType":"address"}],"anonymous":false},{"type":"event","name":"Initialized","inputs":[{"name":"version","type":"uint64","indexed":false,"internalType":"uint64"}],"anonymous":false},{"type":"error","name":"AlreadyInitialized","inputs":[]},{"type":"error","name":"InvalidAddress","inputs":[]},{"type":"error","name":"InvalidInitialization","inputs":[]},{"type":"error","name":"NotInitializing","inputs":[]},{"type":"error","name":"OnlyCoreEnvoker","inputs":[]}],"bytecode":{"object":"0x6080604052348015600e575f5ffd5b506107948061001c5f395ff3fe608060405234801561000f575f5ffd5b50600436106100e5575f3560e01c80638dd134ff11610088578063cffde29111610063578063cffde29114610212578063dd8465a614610225578063edb2cbd714610236578063efa17e8214610249575f5ffd5b80638dd134ff146101d157806391fbd02b146101e257806395d89b41146101f3575f5ffd5b806331238d45116100c357806331238d45146101865780633edbd28e1461019b578063485cc955146101ab57806372a862fe146101be575f5ffd5b806305046778146100e957806306fdde03146101295780630e96162414610161575b5f5ffd5b6101146100f7366004610687565b6001600160a01b03165f9081526006602052604090205460ff1690565b60405190151581526020015b60405180910390f35b60408051808201909152601381527212da5b9bdc985058d8d95cdcd0dbdb9d1c9bdb606a1b60208201525b60405161012091906106a7565b6004546001600160a01b03165b6040516001600160a01b039091168152602001610120565b610199610194366004610687565b61025a565b005b5f546001600160a01b031661016e565b6101996101b93660046106dc565b6102fd565b6101996101cc366004610687565b610470565b6005546001600160a01b031661016e565b6001546001600160a01b031661016e565b6040805180820190915260038152624b414360e81b6020820152610154565b610199610220366004610687565b610532565b6003546001600160a01b031661016e565b61019961024436600461070d565b6105f2565b6002546001600160a01b031661016e565b6004546001600160a01b03163314610285576040516331a2693f60e21b815260040160405180910390fd5b600480546001600160a01b039081165f90815260066020526040808220805460ff1990811690915584546001600160a01b0319169386169384179094558282528082208054909416600117909355915190917fdaeacd203bcec8d3b2e6a56d32e051cfc50eb9590aafe427cf42940532251d1391a250565b7ff0c57e16840df040f15088dc2f81fe391c3923bec73e23a9662efc9c229c6a008054600160401b810460ff16159067ffffffffffffffff165f811580156103425750825b90505f8267ffffffffffffffff16600114801561035e5750303b155b90508115801561036c575080155b1561038a5760405163f92ee8a960e01b815260040160405180910390fd5b845467ffffffffffffffff1916600117855583156103b457845460ff60401b1916600160401b1785555b6005546001600160a01b0316156103dd5760405162dc149f60e41b815260040160405180910390fd5b600580546001600160a01b038089166001600160a01b0319928316179092559088165f818152600660205260409020805460ff1916600117905560048054909216179055831561046757845460ff60401b19168555604051600181527fc7f505b2f371ae2175ee4913f4499e1f2633a7b5936321eed1cdaeb6115181d29060200160405180910390a15b50505050505050565b6004546001600160a01b0316331461049b576040516331a2693f60e21b815260040160405180910390fd5b6001600160a01b0381163314806104c957506001600160a01b0381165f9081526006602052604090205460ff165b156104e75760405163e6c4247b60e01b815260040160405180910390fd5b6001600160a01b0381165f81815260066020526040808220805460ff19166001179055517f704a4e56447ac6f7cc6a5d828a02acd490faa77d2cf0a2df715785d9335143f99190a250565b6004546001600160a01b0316331461055d576040516331a2693f60e21b815260040160405180910390fd5b6001600160a01b03811633148061058c57506001600160a01b0381165f9081526006602052604090205460ff16155b156105aa5760405163e6c4247b60e01b815260040160405180910390fd5b6001600160a01b0381165f81815260066020526040808220805460ff19169055517f98992a5616170aac767769bf44f381e51162b18adb250d1eebb68c1ee2f185ef9190a250565b6005546001600160a01b0316331461061d5760405163e6c4247b60e01b815260040160405180910390fd5b5f80546001600160a01b039586166001600160a01b0319918216179091556001805494861694821694909417909355600280549285169284169290921790915560038054919093169116179055565b80356001600160a01b0381168114610682575f5ffd5b919050565b5f60208284031215610697575f5ffd5b6106a08261066c565b9392505050565b602081525f82518060208401528060208501604085015e5f604082850101526040601f19601f83011684010191505092915050565b5f5f604083850312156106ed575f5ffd5b6106f68361066c565b91506107046020840161066c565b90509250929050565b5f5f5f5f60808587031215610720575f5ffd5b6107298561066c565b93506107376020860161066c565b92506107456040860161066c565b91506107536060860161066c565b90509295919450925056fea2646970667358221220db466b72e58812eb8cc6d8bd5bcfd498539d10c8f78029eba7a0ab16afe4d7af64736f6c634300081c0033","linkReferences":{}},"methodIdentifiers":{"addEnvoker(address)":"72a862fe","changeCoreEnvoker(address)":"31238d45","getKinoraEscrow()":"3edbd28e","getKinoraMetrics()":"efa17e82","getKinoraNFTCreator()":"dd8465a6","getKinoraOpenAction()":"8dd134ff","getKinoraQuestData()":"91fbd02b","initialize(address,address)":"485cc955","isCoreEnvoker()":"0e961624","isEnvoker(address)":"05046778","name()":"06fdde03","removeEnvoker(address)":"cffde291","setRelatedContract(address,address,address,address)":"edb2cbd7","symbol()":"95d89b41"},"id":39}